:020000040000fa
:080000000002040000000000f2
:020000040000fa
:04000800960400005a
:020000040000fa
:04000c009604000056
:020000040000fa
:040010009604000052
:020000040000fa
:04001400960400004e
:020000040000fa
:04001800960400004a
:020000040000fa
:04001c009604000046
:020000040000fa
:040020009604000042
:020000040000fa
:04002400960400003e
:020000040000fa
:04002800960400003a
:020000040000fa
:04002c009604000036
:020000040000fa
:040030009604000032
:020000040000fa
:04003400fa020000cc
:020000040000fa
:04003800960400002a
:020000040000fa
:04003c009604000026
:020000040000fa
:040040009604000022
:020000040000fa
:04004400960400001e
:020000040000fa
:04004800960400001a
:020000040000fa
:04004c009604000016
:020000040000fa
:040050009604000012
:020000040000fa
:04005400da030000cb
:020000040000fa
:04005800ae030000f3
:020000040000fa
:04005c008803000015
:020000040000fa
:040060009604000002
:020000040000fa
:0400640096040000fe
:020000040000fa
:0400680096040000fa
:020000040000fa
:04006c0096040000f6
:020000040000fa
:0400700096040000f2
:020000040000fa
:0400740096040000ee
:020000040000fa
:0400780096040000ea
:020000040000fa
:04007c0096040000e6
:020000040000fa
:0400800096040000e2
:020000040000fa
:0400840096040000de
:020000040000fa
:0400880096040000da
:020000040000fa
:04008c0096040000d6
:020000040000fa
:0400900096040000d2
:020000040000fa
:040094003003000035
:020000040000fa
:0400980096040000ca
:020000040000fa
:04009c0096040000c6
:020000040000fa
:0400a0004e0400000a
:020000040000fa
:0400a4002204000032
:020000040000fa
:0400a80096040000ba
:020000040000fa
:0400ac0096040000b6
:020000040000fa
:0400b00096040000b2
:020000040000fa
:0400b40096040000ae
:020000040000fa
:0400b80096040000aa
:020000040000fa
:0400bc0096040000a6
:020000040000fa
:0400c00096040000a2
:020000040000fa
:0400c400960400009e
:020000040000fa
:0400c800960400009a
:020000040000fa
:0400cc009604000096
:020000040000fa
:0400d0009604000092
:020000040000fa
:0400d400960400008e
:020000040000fa
:0400d800960400008a
:020000040000fa
:0400dc009604000086
:020000040000fa
:0400e0009604000082
:020000040000fa
:0400e400960400007e
:020000040000fa
:0400e800960400007a
:020000040000fa
:0400ec009604000076
:020000040000fa
:0400f0009604000072
:020000040000fa
:0400f400960400006e
:020000040000fa
:0400f800960400006a
:020000040000fa
:0400fc009604000066
:020000040000fa
:040100009604000061
:020000040000fa
:04010400960400005d
:020000040000fa
:040108009604000059
:020000040000fa
:04010c009604000055
:020000040000fa
:040110009604000051
:020000040000fa
:04011400960400004d
:020000040000fa
:040118009604000049
:020000040000fa
:04011c009604000045
:020000040000fa
:040120009604000041
:020000040000fa
:04012400960400003d
:020000040000fa
:040128009604000039
:020000040000fa
:04012c009604000035
:020000040000fa
:040130009604000031
:020000040000fa
:04013400960400002d
:020000040000fa
:040138009604000029
:020000040000fa
:04013c009604000025
:020000040000fa
:040140009604000021
:020000040000fa
:04014400960400001d
:020000040000fa
:040148009604000019
:020000040000fa
:04014c009604000015
:020000040000fa
:040150009604000011
:020000040000fa
:04015400960400000d
:020000040000fa
:040158009604000009
:020000040000fa
:04015c009604000005
:020000040000fa
:040160009604000001
:020000040000fa
:0401640096040000fd
:020000040000fa
:0401680096040000f9
:020000040000fa
:04016c0096040000f5
:020000040000fa
:0401700096040000f1
:020000040000fa
:0401740096040000ed
:020000040000fa
:0401780096040000e9
:020000040000fa
:04017c0096040000e5
:020000040000fa
:0401800096040000e1
:020000040000fa
:0401840096040000dd
:020000040000fa
:0401880096040000d9
:020000040000fa
:04018c0096040000d5
:020000040000fa
:0401900096040000d1
:020000040000fa
:0401940096040000cd
:020000040000fa
:0401980096040000c9
:020000040000fa
:04019c0096040000c5
:020000040000fa
:0401a00096040000c1
:020000040000fa
:0401a40096040000bd
:020000040000fa
:0401a80096040000b9
:020000040000fa
:0401ac0096040000b5
:020000040000fa
:0401b00096040000b1
:020000040000fa
:0401b40096040000ad
:020000040000fa
:0401b80096040000a9
:020000040000fa
:0401bc0096040000a5
:020000040000fa
:0401c00096040000a1
:020000040000fa
:0401c400960400009d
:020000040000fa
:0401c8009604000099
:020000040000fa
:0401cc009604000095
:020000040000fa
:0401d0009604000091
:020000040000fa
:0401d400960400008d
:020000040000fa
:0401d8009604000089
:020000040000fa
:0401dc009604000085
:020000040000fa
:0401e0009604000081
:020000040000fa
:0401e400960400007d
:020000040000fa
:0401e8009604000079
:020000040000fa
:0401ec009604000075
:020000040000fa
:0401f0009604000071
:020000040000fa
:0401f400960400006d
:020000040000fa
:0401f8009604000069
:020000040000fa
:0401fc009604000065
:020000040000fa
:040200009604000060
:020000040000fa
:04020400960400005c
:020000040000fa
:040208009604000058
:020000040000fa
:04020c009604000054
:020000040000fa
:040210009604000050
:020000040000fa
:04021400960400004c
:020000040000fa
:040218009604000048
:020000040000fa
:04021c009604000044
:020000040000fa
:040220009604000040
:020000040000fa
:04022400960400003c
:020000040000fa
:040228009604000038
:020000040000fa
:04022c009604000034
:020000040000fa
:040230009604000030
:020000040000fa
:04023400960400002c
:020000040000fa
:040238009604000028
:020000040000fa
:04023c009604000024
:020000040000fa
:040240009604000020
:020000040000fa
:04024400960400001c
:020000040000fa
:040248009604000018
:020000040000fa
:04024c009604000014
:020000040000fa
:040250009604000010
:020000040000fa
:04025400960400000c
:020000040000fa
:040258009604000008
:020000040000fa
:04025c009604000004
:020000040000fa
:040260009604000000
:020000040000fa
:0402640096040000fc
:020000040000fa
:100400002f3521000eff27000e018800000000009c
:10041000000020000000e000020032000001200087
:100420002002880014000700420107000000e000dd
:1004300003003a0060a12200010020000200370002
:100440000000200001002000810f70000100320038
:100450000f000700000020000000e0000200320052
:1004600000000200000000000c120200000000006a
:100470000040da000000fe00200020000000e00044
:1004800002003200100020009001880000000600e9
:10049000a1028800800478000000eb001f003700f4
:1004a000e284440054a0b4009905ba00e2844400f8
:1004b00054a0b4009906ba00e284440054a0b400e9
:1004c0000006eb00476fde00fd07b200ae018800ba
:1004d000636ce10003003a000ad801000000eb0061
:1004e0000e003700606ce10008003a00004deb00a0
:1004f0000a05e800020039003420ec000af0a000f0
:100500008b05e900f9ff3e00040037006168e10057
:10051000010032000086eb000b00070019c7ba008b
:100520000e04e0001905ba0003003a000a00e000da
:10053000dbff3a0000000600fe07b200ae028800b2
:100540008a047800f5ff37000cd0a300e20f4d00bd
:100550001c003b0089027800354dba000a05e8000e
:10056000020039003420ec000af0a0008b05e900fd
:100570000f003200254dba000a05e80002003900dc
:100580003420ec000af0a0008b05e90008003200de
:100590000c00e0000600320015cdba000a05e800a4
:1005a000020039003420ec000af0a0008b05e900bd
:1005b0008984e80054a0b4000b00e000e2ff3a0098
:1005c000000006009902ba00055d78008b05e9007d
:1005d000f7ff3200c82ade00055d78008b05e900d0
:1005e000f3ff32000c00e000f1ff320019ddba0029
:1005f000eeff37003600f800809fbe00829fbe00ed
:10060000849fbe00869fbe000000fa000068a9001b
:10061000900e070092120700f5090700ee0b070085
:10062000708280000000e800708288007082800084
:10063000f90f500002003a00ed0c07004e30ef00b9
:10064000000000000080fa004f03be004f02be0011
:100650004f01be004f00be003600f900004006000a
:100660003600f800809fbe00829fbe00849fbe00bf
:10067000869fbe000000fa000368a9001282800075
:1006800023828000100020000100200002004000b2
:100690008380480010828800218288003282800096
:1006a0004382800010002000010020000200400072
:1006b0008380480030828800418288005282800016
:1006c0006382800010002000010020000200400032
:1006d0008380480050828800618288005e0807009d
:1006e0002e1307000004e000010032001913070078
:1006f000000000000080fa004f03be004f02be0061
:100700004f01be004f00be003600f9000040060059
:10071000801f78000000fa0001a8a90000188000de
:10072000409a880010188000509a88002018800095
:10073000609a880030188000709a88004018800005
:10074000809a880010c0b30077f0b7000000000066
:100750000080fa004f007800004006003600f800e4
:10076000809fbe00829fbe00849fbe00869fbe0009
:100770000000fa000188a900218380001083800016
:10078000808f500002003200bb10070001003700cc
:100790006670ef00000000000080fa004f03be000a
:1007a0004f02be004f01be004f00be003600f900f0
:1007b000004006003600f800809fbe00829fbe0009
:1007c000849fbe00869fbe000000fa000168a90059
:1007d000101180004200de0061406000e14f5000d7
:1007e00001003a002242a900101180000000d1004f
:1007f00061406000e14f500005003a002222a9004c
:1008000003003700301180000040780073120700a9
:10081000101180000040780061406000e14f5000fe
:10082000f8ff3200000000000080fa004f03be0015
:100830004f02be004f01be004f00be003600f9005f
:10084000004006003600f800809fbe00829fbe0078
:10085000849fbe00869fbe000000fa0003e8a90046
:100860005183800040838000808f5000020032005e
:10087000e9100700010037006c70ef000000000075
:100880000080fa004f03be004f02be004f01be00c1
:100890004f00be003600f900004006003600f800a8
:1008a000809fbe00829fbe00849fbe00869fbe00c8
:1008b0000000fa0003c8a900901180004200de0089
:1008c00061406000e14f500001003a003242a9004f
:1008d000901180000000d10061406000e14f5000a5
:1008e00005003a003222a90003003700b011800051
:1008f00000407800831207009011800000407800cb
:1009000061406000e14f5000f8ff3200000000003d
:100910000080fa004f03be004f02be004f01be0030
:100920004f00be003600f900004006000040da002b
:100930000000fe000000050014002000ad03370099
:10094000f4ff2f00ab0337000001be003f0007009b
:100950000470a70003f0a1006509b1001600320081
:100960000d0035006828e10006003500f0ff2f007b
:10097000f1ff27000300e00013003b000100280006
:100980000000050000004000818048008502e90069
:10099000fcff3a0008003700f88f420002003c00dc
:1009a0008000eb00000005008100d1000080d30032
:1009b0008502e800fcff3a000300e00002003b0073
:1009c00060001000e0801800000006000001be007a
:1009d0001e0007000470a70003f0a10003f8a300a5
:1009e00013003a006509b10010003200090035001b
:1009f0006928e10002003500010028000000050020
:100a000000004000818048008502e900fcff3a00b8
:100a100000000600f88f4200050035008100d1007b
:100a20000080d3008502e800fcff3a0000000600c9
:100a30008000eb00000005004f89de008201780095
:100a4000870337006011b80095033700c70ade003e
:100a5000f107b200f50fb20008003200e1cf42000a
:100a6000020032000170a00024000500810f700018
:100a7000010032000408050044000500810f7000e9
:100a800002003a00140005008502e9000000400061
:100a900081c04800fcff3b000170a000240005005d
:100aa00007f82700078361000638e10004003a00d8
:100ab000f7072000878361008703710001003a0077
:100ac00003f0a200889fbe008a9fbe008c9fbe00dc
:100ad000470ade000480a100c71ade000580a100dd
:100ae000070028000785600087856100f70f200058
:100af0000720e1009e0032000728e1009c00320040
:100b0000010678000400e000b4003200f70720007e
:100b1000878060000170a0000500e000c000320086
:100b2000f7072000878161000370a00005065200ce
:100b30000f003a000b50e1000b0032000308e10007
:100b400002003a000200e1007e0032000204500080
:100b500083845800040031000001fd008101fd0084
:100b60008402fd008a05fd006044b80021003700c2
:100b70000520e10005003d000001fd008101fd00b0
:100b80008402fd008a05fd00050652007a60e1003e
:100b9000050035000170a1004722dd00848070004f
:100ba0008a807000630037006044b800ef0266007e
:100bb00007ff2f00070666000500e000060034006e
:100bc000f08312008714dd000511de00071bdd0035
:100bd000060171008519de007060e1000500350036
:100be0000904780082047800030178008001eb009a
:100bf000700656000b50e10003003a00020040006e
:100c0000838048000400370060041400e0841c0066
:100c100002005800838058000188a30006003200bb
:100c20008100d1000080d3008984d3000884d300e0
:100c30000402e800270037000178a30025003a00ed
:100c40000100e000030032008186cf006986560073
:100c50000a0037008c0020000000e00004003a0089
:100c600009007800880478000004eb00700252004c
:100c70008086cf000d0646000c06e9007060e1009a
:100c800006003500800078000900780088047800ac
:100c90000004eb0070065600700252000c00e000e9
:100ca0000c0034008c08dd00f00316000703de00a2
:100cb000868070000c00dd00074bde00060070002f
:100cc0008c4cdd000743de00868474000c44dd009c
:100cd0000c0252006120e10020003500610160003b
:100ce0000700280087816400f7ff270087836400de
:100cf000070374000300e000060032008203730063
:100d0000040032000000e800e08048000188a300f1
:100d10000e003a00f70f20000720e1004a003d00d6
:100d20000170a1004722dd00810072008a807000fe
:100d30000000be004f06be004f05be004f04be00bf
:100d4000000006006000b800faff37008100d10003
:100d50000080d3000402e800eeff370004017800b1
:100d600089017400a10107008a807000f1ff37003b
:100d7000f7010700070278000001fd008101fd0076
:100d8000f301070087027800850372000778a3004b
:100d9000040032000001fd008101fd000602070091
:100da000e4ff3700850362000768a30008003200f3
:100db0000b50e10003003200f0ff2f00f1ff27008d
:100dc000dcff37000001fd008101fd00d9ff370085
:100dd0000468a300d7ff3200faff3700f8ff2700ae
:100de000888360000b003a000000e00009003a0030
:100df0008303640082837300020032000200be009d
:100e0000ccff37000b50e100ceff3a000200be00dd
:100e1000c8ff370014002000810064003eff370047
:100e2000f8ff27008883610004003a000200e00018
:100e300002003a008c007800beff37001500200049
:100e40008301640039ff370001f82700000020000b
:100e500081007500b7ff3700889fbe008a9fbe00e3
:100e60008c9fbe001b0020000202be0005866800a9
:100e700006002800060666004709de00f20fb200f1
:100e8000820032000243e80080003200c729de0001
:100e9000f30fb2007d0032000343e8007b00320014
:100ea000f107b2000170a000f507b2000570a000c4
:100eb000c708dd004903de00868070004700dd00c2
:100ec000c72add004923de00868272004722dd004a
:100ed00003055100040350008583580003003100ce
:100ee00000004000818048000a05e9008c1f78005e
:100ef0008a9fbe0004005000858058000402420012
:100f000085824a0000004000818048000005eb0017
:100f10000004be006033b8000406be000d48e100c6
:100f200056003100110009004dccd8000c01b8006a
:100f30000d02b8008481410060824a008283530020
:100f400003045c0084845c0060055d000a00e0002e
:100f500025003a00800578000d40e100490031008d
:100f60008800780007007800110009004d88d8003b
:100f70000c01b8000d02b8008481410060824a0073
:100f80006003110083835b0004045c00e0845c0068
:100f90000900e00021003a004f01be000300e0001c
:100fa0002b003200e3016000070673008c817100a2
:100fb00001003200640070004200de004e5edd0081
:100fc0000c007000c258de0001e0a00083010700a1
:100fd000cf017800818071004f06be004f05be0032
:100fe0004f04be00000006008c8343000d044c003b
:100ff000e0844c0060054d000000e9000a00e000bc
:10100000d4ff32008c8343000d044c00e0844c007c
:1010100060054d000000e900ceff37000c034300df
:101020008d834b0060044c00e0844c000000e9001c
:101030000900e000d8ff32000c0343008d834b0011
:1010400060044c00e0844c000000e900d2ff37004f
:101050004200de004e5edd000c007000c258de0073
:1010600001e0a000cf0178000300e000daff3200c9
:1010700060001000e0801800d7ff3700f0ff2f005d
:10108000aaff3700f0ff2f00b9ff37000404be00ad
:101090002f010700870678000004fd008104fd0091
:1010a0002b010700078366000678a30003003200c7
:1010b0000960a7000800be002c0037000d78a300cf
:1010c000020032000800be00280037000778a300a5
:1010d00026003a0001f0a10009f0a1000668a30073
:1010e00003003200f1ff2700f0ff2f00baff3700a6
:1010f0000d68a300030032000800be008c80700061
:10110000b5ff37000768a30007003a000648a300b0
:1011100003003200f1ff2700f0ff2f00aeff370081
:101120000d48a300030032006000b8008c807000fe
:10113000a9ff37000748a3000400320001f8270088
:10114000000020008c807000a3ff370076010700ac
:101150000004fd008104fd00020578007201070013
:101160000802be008a01780059ff37000160a00024
:1011700012022000c283880097ff37000100e000c0
:10118000120032000500e00010003200889fbe000f
:101190008a9fbe008c9fbe000006eb0001f8a300f2
:1011a0000300320060001000e08018000cf0a00086
:1011b00005f8a3000300320060021200e0821a006a
:1011c0000cf0a2008005eb0041ff37006000b80082
:1011d000020005000383680007002800070363007e
:1011e000470ade000480a100c71ade000580a100c6
:1011f000f70f20000720e100420032000728e1003d
:1012000040003200889fbe008a9fbe008c1f78007d
:10121000f107b200f307b2000400e00064003200fe
:101220000170a0000500e000680032000370a0001b
:1012300085054200eb07b1000204b8000302b800c4
:101240008484440060854a00020ab8008484440013
:101250000a854a00030ab80004054500040033006b
:101260000804d0008984d2000a85d2008b05e900e9
:101270006158e1003d0035000210200009016100c5
:101280000308200089816100f7072000878364003c
:1012900008867300c84cde00c853dd0087847400e4
:1012a0004855de000300e0000600320082037600ad
:1012b000040032008904e80060054d000a88a3009c
:1012c0000c003a00f70f20000758e10044003d00f1
:1012d0000a70a100c75ddd000a8575008a007300f1
:1012e000090078004f0678004f05be004f04be008d
:1012f000000006000a05d1008984d3008b05e800b0
:10130000f0ff3700881f780006047800900007007f
:10131000070278000001fd008101fd008c0007003c
:1013200087027800850372000778a3000500320069
:101330000001fd008101fd009f0007004f047800bf
:1013400000000600850372000748a3000300320076
:10135000f0ff2f00f1ff2700f8ff3700000020000a
:1013600001f8270088807000f4ff370088017800ba
:101370004848dd00808171004848de00c850dd002b
:1013800001007000c850de00060478000b017800f0
:101390001600070088807000d2ff37000500e000cb
:1013a00005003200170020003a0007009dff3700bb
:1013b00081037000f9ff3a00860078004f0678003c
:1013c0004f05be004f04be000000050083037100fe
:1013d000f9ff3200270020002e00070094ff37009d
:1013e00001f8270086807000f4ff37000100e0005c
:1013f00026003200610111007810e10023003c005a
:101400006022b8007010e10004003500800278000e
:10141000010078008000eb00700151000200e00044
:101420000900340070031100062add00822ade0064
:101430008603dd00878272000200de00860bdd007d
:10144000070070008208de0084817100f4ff27002d
:10145000048262008481710004002800848262009a
:101460006102600005f0a600000006000482710021
:10147000070032000000e800e0804800000006009d
:101480000002be006000b800efff37006000b80047
:1014900000000600889fbe000004eb006138e100f8
:1014a00016003a000100e00008003a00c800de0023
:1014b0004800dd00880020000100e00003003a0041
:1014c000c800de004800dd00680444008184cf00cd
:1014d000e9845400060034008908dd00f08314001c
:1014e0008703de00878070000900dd0009044400e6
:1014f000610214004f04be00000006000300e0007b
:1015000008003a00c811de004811dd008800200004
:101510000300e00003003a00c811de004811dd00be
:10152000680444008384cf00e9845400060034003a
:101530008919dd00f08314008713de0087817100b4
:101540000911dd0009044400e1021400e9ff37003d
:101550002700200001f0a70017002000470bde0045
:10156000f60fb200040032000643e8000a00320021
:101570004702b3000000060001037800f607b2003e
:101580000603700002003a000703b30000000600e3
:101590008702b3000000060001037800f607b200de
:1015a00006037000020032000770a0000000060071
:1015b0000760a000000006000478a30004003200c9
:1015c0000578a300030032000168a30001003a007f
:1015d0000200be000160a000000006008101700052
:1015e000270032008002eb0001f8a3000300320064
:1015f00060001000e080180015002000f4072000b3
:101600000202420020003400f7032000870360003c
:1016100006042000000363000208200000016100ae
:101620004700de00c909dd0000807100c708de0048
:101630000600e00008003200870371000600320057
:101640001000b0000180b0000188a3000200320049
:10165000c108de000402e800f107b200f30f200029
:101660000320e10003003d004722dd0081007200fd
:101670002900370001f827000000eb0026003700a2
:101680006000b80000000600680212007f20e10040
:10169000020034006000b8001f0037006011b8007d
:1016a0007020e1000400350080017800010078001e
:1016b0008000eb00700252000400e00009003400da
:1016c000f00312000719dd008419de000703dd00b6
:1016d000868171000400de00070bdd00060070004b
:1016e0008408de00f7ff270083836300870371000f
:1016f0000600280003036300070032000700e00033
:1017000003003a00610160000281730002003200b0
:101710001000b0000180b0000500a6000000060027
:1017200001f0a000000006004f0ade004709de00bd
:10173000f107b200f20fb2000b003200f207b10065
:101740000170a000c708dd00c901de0083807000c1
:101750004700dd000400a600000006006000100045
:10176000e080180000000600810f700001003a00c0
:10177000000006008182cf000500e00010003e005e
:101780008082cf00ee8242007028e1000400390020
:1017900007003e00800078000000eb000e003700dc
:1017a000708312008600de000500dd000a003700ad
:1017b000708352008600dd000000eb000600370059
:1017c000e28252008508dd00708312000603de000d
:1017d000868070000500dd007507b0000501ea0095
:1017e0000400a6000000060060001000e080180061
:1017f00000000600889fbe008a9fbe00841f7800fc
:101800007c0007004f00780011003300f0ff2f002c
:10181000838f6c0006003b00040565000a00a700ea
:101820000800370009f0a60010002000080037006b
:10183000820f5400838f5c000300390010002000e9
:1018400001003e000000200009f0a7000000ea00af
:101850004f05be004f04be000000e000000006007f
:10186000881f7800030478000300e00007003d00b3
:1018700060001000e080180060011900e08119008c
:1018800002003b0001f02d000300370004000700b8
:1018900008f0a70001f0a0004f0478000000060047
:1018a000889fbe008a9fbe00008270000402710003
:1018b00004827100260032000004be000200be0057
:1018c0006011b8006b092000950220000182cf0052
:1018d0000a0039000541b1000082cf00070039003d
:1018e0000541b1000982cf00040039000541b10073
:1018f0000882cf00010039000541b10005425200c5
:10190000120032000a003b00828171006101640014
:101910008100d1000080d3008984d3000884d300e3
:101920008b05e8000442e800f7ff3a0007003700a3
:101930000804440089844c0000004800818048006d
:101940008b05e9000442e900f9ff3a0003000700b3
:101950004f05be004f04be000000060081002000bd
:10196000618055000b003d000b00200061fe2f0040
:101970000100e1001d0034008281710061016400fa
:101980008904d1000884d3000000e800faff3a007f
:10199000710020006100640003007000020060001c
:1019a0000900320061044400e0844c000988a5006d
:1019b000050032008b05e8006808e10002003a00eb
:1019c0008904d1000884d300f20f20000258e100fe
:1019d00005003d00c75ddd00f907b2008980750094
:1019e00008007800000006000bf827008b00780044
:1019f000000005000004be0014fc07000003be0048
:101a00000405be000200be0010fc0700844f7500f4
:101a1000000006000400fa000001be0003f0a1006f
:101a2000a4fd200095f42300840f5100858f5900f8
:101a30000e003e00f4ff2f00f5972300840f5100a5
:101a4000858f59003a003e000200200003b82700ad
:101a50001cfc0700e0bf9f00f1bf9f0000002000ba
:101a600001f823000080fa00000006004f0ade00a3
:101a700005002000163d2500b7072400860f510001
:101a8000878f59001b003e0036be2c0067012400e2
:101a9000860f5100878f59000a003600b2fd2000e2
:101aa000930424000400e0000400320005fc070059
:101ab0005c01070001f0a200eaff3700f8fb070015
:101ac000fbff37000400e00005003200b2fd2000fb
:101ad00093fc2300fbfb0700dd010700e1ff37005b
:101ae0000001be00b0fd200091fc2300ecfb0700cc
:101af000f9ff3700561d2300270e2400860f5100e2
:101b0000878f590014003e00f6dd2e00f70a2400ee
:101b1000860f5100878f590009003600b2fd200062
:101b2000930c24000400e00003003200e5fb0700f2
:101b30003c010700cbff3700d9fb0700fcff370053
:101b40000400e0000100320001f0a20042be2c00bf
:101b500063092400e5ff3700f4ff2f00f5f72700a5
:101b6000840f5100858f5900040036000001be002b
:101b70000200be00cafb0700baff3700c2ff2f00f9
:101b80000f0141005b010700630160006fb897001f
:101b9000ffb89700e10f510005003200e20f51003d
:101ba000c3ff32000200e000cbff3a00e0ff370045
:101bb00001f0a200c8ff37000400fa00889fbe00b1
:101bc0008a9fbe000203410083834900e00f530057
:101bd000e08f5b000f0032000202be0005f0a100a2
:101be0000800200009f82700880f5200898f5a004a
:101bf00008003e00a0bf9f00b1bf9f00470dde0060
:101c00000b002000f40f20000a056200840f55002d
:101c100007003a006ffd07000001be008efc0700c0
:101c20004f05be004f04be000080fa000000060011
:101c30000002400081824800840f5300858f5b00c2
:101c400006003900840f5300858f5b00f4ff3a00d3
:101c50006011b8005ffd0700f1ff37000a00e000e7
:101c60004c003a002fbb9700bfbb9700493add00fc
:101c7000c732de00850272004932dd00e00f5200fb
:101c8000e08f5a003f003d00610215002fbb970016
:101c9000bfbb9700040478000804e9000300330088
:101ca0000603430087834b00fbff37000602be009c
:101cb000471bde00070020000683fb000600e00053
:101cc0003d003a00491cdd00c714de0089047400a1
:101cd0004914dd00e00f5400e08f5c0032003d004d
:101ce000e10313000204be008703e9000300330090
:101cf0000804440089844c00fbff370008015200af
:101d000089815a00860f55002f003c00e00f5100da
:101d1000e08f590004003500e00f5100e08f5900ba
:101d2000cbff32000202be004728de000100200087
:101d3000e00f5000e08f58002e0032000a00e00053
:101d4000300034000000200001f82f0004024000a1
:101d5000858248006150b900c700dd000000200006
:101d600004007000858070006022b8000200280026
:101d7000bfb9970083026100000072008180720089
:101d8000a7ff37000a05e9000402420085824a00e5
:101d9000baff37002fba9700bfba9700f507b20015
:101da0000570a000c2ff37000603e90008044400e4
:101db00089844c00c7ff37000204be00f907b20057
:101dc0000970a000cdff3700e00f5100e08f5900ef
:101dd00004003500e00f5100e08f59009cff3200f5
:101de0000202be000402420085824a000a05e900a0
:101df000c2ff37000402420085824a000a05e9005a
:101e0000c9ff3700610515000400be000a05e9009e
:101e1000030033008100d1000080d300fbff3700b6
:101e2000d1ff37000400fa00889fbe000004be0006
:101e30008900780001f0a100a4fd200095f42300a2
:101e4000840f5000858f58001e003e00f4ff2f00c5
:101e5000f5972300840f5000858f580016003e0030
:101e60006000b80003f8270089806100e00f50008f
:101e7000e08f58000b003a000200200003382000d9
:101e80000800be00d3fc07000001be00c2bf9f00d7
:101e9000d3bf9f000800be004f04be000080fa00c0
:101ea000000006000200200003b827000800be0062
:101eb00004fb0700f4ff37000800be00e400070041
:101ec000180037004f49de0003002000143d2500b4
:101ed000b5072400840f5000858f58001d003e0078
:101ee00034be2c0065012400840f5000858f5800fb
:101ef0000e003e000800be000200e000b2fd20001f
:101f000093fc230005003200eefa070045000700ad
:101f10000004be0009f0a200deff3700e0fa07006f
:101f2000400007000004be00daff37000800be00d2
:101f30000200e000b2fd2000930424000300320000
:101f4000e0fa070001f0a200dcff3700d4fa070036
:101f5000fcff3700541d2300250e2400840f500081
:101f6000858f580017003e00f4dd2e00f50a24008e
:101f7000840f5000858f580009003e000800be0005
:101f80000200e00042be2c0063092400020032007f
:101f9000ccfa0700e2ff3700c1fa0700dbff370089
:101fa0000800be000200e000b2fd2000930c2400f7
:101fb00002003200c3fa0700c0ff3700b8fa07007a
:101fc000beff3700f2ff2f00f3f72700820f50000b
:101fd000838f5800050036000801be000800be00cf
:101fe000affa07000004be00aaff370082ff2f00ef
:101ff0000f0141000800be003e00070063016000c1
:102000004fb89700dfb89700e10f5100c4ff3200ce
:10201000e20f5100cbff32000200e000bbff3a00ac
:10202000a6ff37000400fa00889fbe008a9fbe000a
:102030008c9fbe000001be0066fc07000004be00cd
:102040000001be0063fc07000005be000200200086
:1020500003f02b000800be005efc07000200200019
:1020600003f8230097fa07000006be00f2a92a0031
:10207000a3d223000a00be0056fc07000001be00e8
:102080000c00be008ffa07000002be0072a12900fa
:10209000c37c23000800be0084bf9f0095bf9f0043
:1020a0004cfc0700f243200063ab23007cfa0700de
:1020b0000006be000a01be000800be0045fc070085
:1020c0000001be000c00be0042fc07000001be0083
:1020d0000fba97009fba97000400be0079fa070074
:1020e0004f06be004f05be004f04be000080fa0040
:1020f000000006000400fa00889fbe008a9fbe0010
:102100008c9fbe000006780081047800820678006b
:1021100001f0a100a2fd200093dc2400820f5000fa
:10212000838f580023003e0032982f0023f22300b3
:102130008900780027fc07000200200003b4240077
:1021400060fa07000200200003b4240054fa0700dc
:102150000005be00fcf9070000047800a2fd200085
:1021600093fc23000a00be001afc07000001be0019
:102170000c0078008900780049fa07000002be00d0
:10218000325a2800832823000a00be0084bf9f0023
:1021900095bf9f000ffc07000001be000fba97001b
:1021a0009fba97000400be003dfa0700808ebe0073
:1021b0000b003700f2ff2f00f3f72700820f5000cb
:1021c000838f58000c0036000001780089017800e8
:1021d0008900780032fa0700808ebe000004eb0010
:1021e000080078004f06be004f05be004f04be0039
:1021f0000080fa0000000600890078004c0007000b
:102200000005be0032982f0023f22300f1fb0700e7
:102210000200200003f023002afa070055000700ff
:10222000000478008efd070032982f0023f223006f
:1022300009fb07000001be000a00be0018fa0700f3
:102240006000b800a0069800b1069800d7ff3700dc
:102250000400fa00889fbe008a9fbe008c9fbe00cb
:102260000006be000001be00dafb07000004be004d
:102270000001be000c00be00d6fb07000005be003a
:102280000801be000800be00d2fb07000a01be0024
:10229000d0fb07000002be00c2c326006363230018
:1022a0000800be0084bf9f0095bf9f00c9fb0700c8
:1022b000f27c200003952300f9f907000001be001d
:1022c0000fba97009fba97000400be00c1fb070039
:1022d0000002be004288280083c023000800be0020
:1022e00084bf9f0095bf9f00bafb0700b2aa2a00d7
:1022f000a3e22300eaf907000a01be00b5fb0700cc
:102300000c01be00eff907000001be000fba9700f4
:102310009fba97000400be00eaf907004f06be000e
:102320004f05be004f04be000080fa00000006000a
:102330000400fa006011b800e2bf9f00f3bf9f00e5
:102340006fbb9700ffbb97000002be00f0ff2f009d
:10235000f1ff2f00f2ff2f00f3ff270000006200c3
:102360008180620002016300838163000080fa00c3
:10237000000006000003be00b4f907006011b800b9
:102380000470a70007f0a1006509b1001b0032002e
:1023900012003500860220000628e1000800350002
:1023a000f3ff2700f2ff2f006110b9000700e000e3
:1023b00018003b00030028006000b8000200050080
:1023c00000004000818048000201490083814900eb
:1023d0008502e900faff3a0008003700f88f420052
:1023e00002003c008000eb00000005008100d100ed
:1023f0000080d3008502e800fcff3a000700e000ff
:1024000004003b0060001000e0801800600119002b
:08241000e08119000000060044
:020000040000fa
:102418000c00fa00220b0700250a070098030700a2
:10242800b602070000002000a1472400a30307000c
:10243800d6060700cb0a0700750a070054040700f0
:102448005b04070084cea90084aea900848ea9008d
:10245800856ea900754ea900040ea900052ea900d5
:1024680095eea900054ea900746ea900907380002e
:102478000000d10061406000e14f500004003a00c4
:1024880010002000d08088004630ef004830ef0070
:10249800fa0a0700e14f5000f4ff3a00fb0a070070
:1024a800f20a0700000f78001e007800100078007c
:1024b8008000eb0061f90700323323003305240064
:1024c80042fb0700000178000100780082027800d2
:1024d800000278000200200003582400050078005c
:1024e800840078000000be0059fa07001007980021
:1024f800210798001e019000ae0190000000200006
:102508008120240052fa07000001780001007800b9
:10251800820278000002780002002000030a2400ea
:1025280005007800840078000000be005af9070012
:1025380080017800010178000300780082007800ab
:102548000000be0060988800719888001e80e8002e
:10255800100078008000eb0038f9070032332300c0
:102568003305240019fb07000001780001007800fa
:10257800820278000002780002002000035824003c
:1025880005007800840078000000be0030fa0700db
:1025980010079800210798001e019000ae019000d6
:1025a800000020008120240029fa0700000178009b
:1025b8000100780082027800000278000200200002
:1025c800030a240005007800840078000000be009b
:1025d80031f90700800178000101780003007800d4
:1025e800820078000000be008098880091988800da
:1025f800410020001e804000100078008000eb00a1
:102608000ef907003233230033052400effa0700e0
:10261800000178000100780082027800000278004a
:102628000200200003582400050078008400780088
:102638000000be0006fa070010079800210798005e
:102648001e019000ae0190000000200081202400af
:10265800fff9070000017800010078008202780085
:102668000002780002002000030a24000500780018
:10267800840078000000be0007f907008001780098
:102688000101780003007800820078000000be0095
:10269800a0988800b1988800610020001e80400042
:1026a800100078008000eb00e4f8070032332300c4
:1026b80033052400c5fa07000001780001007800fe
:1026c80082027800000278000200200003582400eb
:1026d80005007800840078000000be00dcf90700df
:1026e80010079800210798001e019000ae01900085
:1026f8000000200081202400d5f90700000178009f
:1027080001007800820278000002780002002000b0
:10271800030a240005007800840078000000be0049
:10272800ddf80700800178000101780003007800d7
:10273800820078000000be00c0988800d198880008
:10274800810020001e804000100078008000eb000f
:10275800baf8070032332300330524009bfa070038
:1027680000017800010078008202780000027800f9
:102778000200200003582400050078008400780037
:102788000000be00b2f90700100798002107980062
:102798001e019000ae01900000002000812024005e
:1027a800abf9070000017800010078008202780088
:1027b8000002780002002000030a240005007800c7
:1027c800840078000000be00b3f80700800178009c
:1027d8000101780003007800820078000000be0044
:1027e800e0988800f19888006098800071988000cf
:1027f80074f8070000407800204f98008098800007
:10280800919880006ff8070000407800104f9800fa
:10281800a0988000b19880006af80700004078000e
:10282800004f9800c0988000d198800065f8070094
:102838000040780070479800e0988000f198800088
:1028480060f80700004078006047980007ff3700ed
:102858000000fa00328280004382800000a62e0029
:1028680001002000800f5100818f5900a3003e0015
:10287800d08080000000e000a000320018d0bf0027
:102888000080fb006100b900120120000300200055
:10289800820f5000838f580090003e000006010010
:1028a800110037001a003700230037002d003700c9
:1028b80039003700430037004f0037005900370010
:1028c8005a003700660037006e0037007a0037007c
:1028d8008200370081003700800037007f00370012
:1028e8003a003700210037004230ef004430ef0053
:1028f8000041eb006000b800c005070012c0b3003b
:102908006000b800bd05070010c0b30018f0b7009c
:102918001282800023828000803e20000100200077
:10292800800f5100818f59006e00360020c0b3001f
:1029380018f0b7006b0037000041eb0000002000e2
:10294800011c2400ad05070012c0b30000002000e0
:10295800011c2400a905070030c0b30018f0b70017
:10296800650037006f000700630037000041eb0087
:102978000000200001132400a005070012c0b300c6
:1029880000002000011924009c05070050c0b30076
:1029980018f0b700580037000041eb000000200095
:1029a800010c24009505070012c0b30000002000a8
:1029b800011a24009105070050c0b30018f0b700b1
:1029c8004d003700570007004b0037000041eb006f
:1029d80000002000011924008805070012c0b30078
:1029e80000002000011324008405070050c0b30034
:1029f80018f0b700400037000041eb00000020004d
:102a0800011a24007d05070012c0b3000000200051
:102a1800010c24007905070070c0b30018f0b70056
:102a2800350037003f000700330037000041eb0056
:102a38000000200001152c007005070012c0b3002b
:102a480000002000011524006c05070090c0b300a9
:102a580018f0b7004230ef004430ef00260037008e
:102a6800128280002382800080252000010020003f
:102a7800800f5100818f59001c0036002900070083
:102a88001a0037000041eb00000020000115240067
:102a98005a05070012c0b3000000200001152c00e1
:102aa80056050700b0c0b30018f0b7004230ef0079
:102ab8004430ef001000370012828000238280002b
:102ac800c012200001002000800f5100818f5900a2
:102ad8000800360013000700060037001870ef00e2
:102ae80005003700000000000b0037000000000060
:102af8000900370000000000070037001a30ef0017
:102b08000041eb006000b8003c05070012c0b300ac
:102b18006000b80039050700000000000080fa00d6
:102b2800000006000600fa000040eb00004f7800a5
:102b3800208180000000e0000f003200108180003a
:102b48000000e0000c003a00008180000000e00076
:102b580009003a00f08080000000e00006003a001a
:102b6800e08080000000e00003003a0050c0b3009d
:102b7800004f78004d003700208180000000e00001
:102b88000f003a00108180000000e0000c003a00bd
:102b9800008180000000e00009003a00f080800019
:102ba8000000e00006003a00e08080000000e0003d
:102bb8000300320010c0b300004f78003b0037001c
:102bc800108180000000e0000900320000818000d0
:102bd8000000e00006003a00f08080000000e000fd
:102be80003003a0040c0b300004f78002f003700c0
:102bf800108180000000e00009003a000081800098
:102c08000000e00006003a00f08080000000e000cc
:102c18000300320020c0b300004f780023003700c3
:102c2800008180000000e00006003a00108180006a
:102c38000000e00012003200f08080000000e00098
:102c48000f003200c4988000d598800080988000da
:102c5800919880000001be000400be0036f707000e
:102c68000000e0000300340060c0b300004f7800ab
:102c78000e00370030c0b300004f78000b0037005b
:102c8800108180000000e00008003a000081800008
:102c98000000e00005003a00f08080000000e0003d
:102ca80002003a000040eb00004f78001e40780018
:102cb8000004e00003003a0020c0b30026f0b7008b
:102cc800230037001e407800e54f500003003a000b
:102cd80010c1b30026f0b7001d0037001e40780071
:102ce800e14f500003003a0000c1b30026f0b700de
:102cf800170037001e407800e44f500003003a00e8
:102d080040c0b30026f0b700110037001e4078001d
:102d1800e24f500003003a0060c0b30026f0b7004d
:102d28000b0037001e407800e34f500003003a00c4
:102d380080c0b30026f0b700050037001e407800b9
:102d4800e64f500002003a00a0c0b30026f0b700da
:102d580026d0bf000080fb0081012100914078004f
:102d68008180fb008100e900810f50001b003200c8
:102d780026d0bf0018f0b70018d0bf001047980041
:102d880050828000618280004808de000100200037
:102d980000407800204798005082800061828000bf
:102da8004008de000100200000407800304798000d
:102db80050828000618280004809dd004800de0002
:102dc80000007100c808de00004078004047980005
:102dd80050828000004078005047980000000000b2
:102de8000080fa00000006000000fa0060988000e9
:102df8007198800002002000031e2400ccf6070012
:102e08000000e00004003d0084cea800100020006f
:102e1800e08088000200370084cea9001c30ef0053
:102e2800809880009198800002002000c32124002f
:102e3800bff607000000e00004003d0084aea800d3
:102e480010002000f08088000200370084aea9003e
:102e58001e30ef00a0988000b1988000020020008a
:102e6800031f2400b2f607000000e00004003d0044
:102e7800848ea8001000200000818800020037001e
:102e8800848ea9002030ef00c0988000d19880007f
:102e980002002000c3212400a5f607000000e0007e
:102ea80004003d00856ea8001000200010818800f5
:102eb80002003700856ea9002230ef00e0988000fc
:102ec800f198800002002000031e240098f60700f5
:102ed8000000e00004003d00754ea800100020002e
:102ee8002081880002003700754ea9002430ef00c9
:102ef800000000000080fa00000006000000fa0050
:102f080005e1a900200880000040a1000050a000b1
:102f1800200888000421a900f04922001008880030
:102f28000068a9002068a80005e1a80000002000aa
:102f3800812c24001d000700000000000080fa001a
:102f4800000006000000fa0013e1a90011e1a90041
:102f58001061a8001021a900800880000040a1008d
:102f68000050a100800888000a21ef000621ef0028
:102f78003039200070088800007028006008880038
:102f8800204280000000a0000010a1000020a10045
:102f9800204288000108a9002108a80011e1a80022
:102fa800000000000080fa00000006000400fa009b
:102fb800008fbe00200880000040a1000050a10042
:102fc800200888001e0178009e019000001c2e0039
:102fd80041c624009ef70700000178000100780030
:102fe800820278000002780002f02f00f3772400b4
:102ff80005007800840078000000be004ef6070047
:103008000000e0008d003400200880000040a0008f
:103018000050a100200888001e0178009e01900041
:10302800001c2e0041c6240089f707000001780023
:103038000100780082027800000278000200200077
:103048000310240005007800840078000000be000a
:103058007ff70700000178000100780082027800fd
:103068000002780002f02f00f377240005007800b2
:10307800840078000000be002ff607000000e00082
:1030880055003400200880000040a1000050a00036
:10309800200888001e0178009e019000001c2e0068
:1030a80041c624006af70700000178000100780093
:1030b8008202780000027800020020000328240021
:1030c80005007800840078000000be0060f7070063
:1030d8000001780001007800820278000002780080
:1030e80002f02f00f37724000500780084007800b0
:1030f8000000be0010f607000000e0001d003400cc
:10310800200880000040a0000050a000200888008f
:103118001e0178009e019000001c2e0041c624006c
:103128004bf7070000017800010078008202780060
:10313800000278000200200003382400050078000f
:10314800840078000000be0041f707000001780005
:1031580001007800820178000001780003007800ff
:10316800820078000000be00f5f50700100888000e
:10317800400037001e0178009e019000001c2e00c0
:1031880041c6240032f707000001780001007800ea
:103198008202780000027800020020000328240040
:1031a80005007800840078000000be0028f70700ba
:1031b80000017800010078008201780000017800a1
:1031c80003007800820078000000be00dcf50700ec
:1031d80010088800270037001e0178009e01900023
:1031e800001c2e0041c6240019f7070000017800d2
:1031f80001007800820278000002780002002000b6
:103208000310240005007800840078000000be0048
:103218000ff70700000178000100780082017800ac
:103228000001780003007800820078000000be00ea
:10323800c3f50700100888000e0037001e0178004b
:103248009e019000001c2e0041c6240000f70700d4
:103258000001780001007800820178000001780000
:1032680003007800820078000000be00b4f5070073
:1032780010088800000000000080fa000000060026
:103288000000fa001fe1a900f00880000040a1003a
:103298000050a000f00888001e21a900f049220073
:1032a800d00888000368a9002368a8001fe1a800c7
:1032b800000000000080fa00000006000400fa0088
:1032c800008fbe00f00880000040a1000050a1005f
:1032d800f00888001e0178009e019000001c2e0056
:1032e80041c62400daf607000001780001007800e2
:1032f800820278000002780002f02f00f3772400a1
:1033080005007800840078000000be008af50700f8
:103318000000e0008d003400f00880000040a000ac
:103328000050a100f00888001e0178009e0190005e
:10333800001c2e0041c62400c5f6070000017800d5
:103348000100780082027800000278000200200064
:103358000310240005007800840078000000be00f7
:10336800bbf60700000178000100780082027800af
:103378000002780002f02f00f3772400050078009f
:10338800840078000000be006bf507000000e00034
:1033980055003400f00880000040a1000050a00053
:1033a800f00888001e0178009e019000001c2e0085
:1033b80041c62400a6f60700000178000100780045
:1033c800820278000002780002002000032824000e
:1033d80005007800840078000000be009cf6070015
:1033e800000178000100780082027800000278006d
:1033f80002f02f00f377240005007800840078009d
:103408000000be004cf507000000e0001d0034007d
:10341800f00880000040a0000050a000f0088800dc
:103428001e0178009e019000001c2e0041c6240059
:1034380087f6070000017800010078008202780012
:1034480000027800020020000338240005007800fc
:10345800840078000000be007df6070000017800b7
:1034680001007800820178000001780003007800ec
:10347800820078000000be0031f50700d0088800ff
:10348800400037001e0178009e019000001c2e00ad
:1034980041c624006ef6070000017800010078009c
:1034a800820278000002780002002000032824002d
:1034b80005007800840078000000be0064f607006c
:1034c800000178000100780082017800000178008e
:1034d80003007800820078000000be0018f507009d
:1034e800d0088800270037001e0178009e01900050
:1034f800001c2e0041c6240055f607000001780084
:1035080001007800820278000002780002002000a2
:103518000310240005007800840078000000be0035
:103528004bf607000001780001007800820178005e
:103538000001780003007800820078000000be00d7
:10354800fff40700d00888000e0037001e0178003d
:103558009e019000001c2e0041c624003cf6070086
:1035680000017800010078008201780000017800ed
:1035780003007800820078000000be00f0f4070025
:10358800d0088800000000000080fa000000060053
:103598000000fa00c301a800dca1ef00dea1ef00e3
:1035a800c1e1a800000000000080fa000000060049
:1035b8000000fa00c305a800dca5ef00dea5ef00b7
:1035c800c1e5a800000000000080fa000000060025
:1035d8000800fa00889fbe00708180008181800009
:1035e8005081880061818800b0818000c18180009d
:1035f80090818800a1818800300e80008000eb0057
:10360800008fbe00500e80008000eb00c000dd007f
:10361800000020001e0f40005e974800302e8000fa
:103628008000eb002007980031079800502e80009a
:103638008000eb00c000dd000000200064014700ae
:10364800e401470033194000239148001202780032
:103658009202900024079800350798001e00780011
:103668009e009000f2f40700c2532e0073782300e6
:10367800d6f6070000017800010078008201780082
:1036880000017800030078008200780070818800cb
:10369800818188002e009000be009000e4f40700ad
:1036a800c2532e0073782b00c8f60700000178007b
:1036b800010078008201780000017800030078009a
:1036c80082007800b0818800c18188007481800000
:1036d8008581800050818000618180000001be00ea
:1036e8000400be00ecf40700000178000100780037
:1036f80082017800000178000300780082007800d9
:10370800d0818800e1818800b4818000c581800073
:1037180090818000a18180000001be000400be00ed
:10372800ddf40700000178000100780082017800cc
:10373800000178000300780082007800f08188009a
:1037480001828800d0818000e18180000200200091
:10375800a33724009df60700800178000101780056
:1037680003007800820078000000be0000998800fd
:1037780011998800f08180000182800002002000f9
:10378800a337240091f60700800178000101780032
:1037980003007800820078000000be0020998800ad
:1037a800319988002499800035998000009980001b
:1037b800119980000001be000400be00bff407009c
:1037c8000001780001007800820278000002780089
:1037d800020020000300240005007800840078001f
:1037e8000000be009af5070080017800010178000a
:1037f80003007800820078000000be00409988002d
:1038080051998800049980001599800020998000ba
:10381800319980000001be000400be009ef407003c
:103828000001780001007800820278000002780028
:1038380022972f00f3e82300050078008400780021
:103848000000be0082f507008001780001017800c1
:1038580003007800820078000000be0060998800ac
:1038680071998800a0998000b1998000809988009a
:1038780091998800e0998000f1998000c0998800aa
:10388800d1998800209a8000319a8000009a880097
:10389800119a8800489980005999800060998000a1
:1038a8007199800059f807000001be000800be00a9
:1038b80046f60700800178000101780003007800cf
:1038c800820078000000be00a0998800b1998800a5
:1038d800489980005999800060998000719980000a
:1038e8004ef907000001be000800be0037f60700c9
:1038f80080017800010178000300780082007800d8
:103908000000be00e0998800f19988006099800065
:103918007199800002002000a33724004cf50700ad
:1039280080017800010178000300780082007800a7
:103938000000be00209a8800319a8800209a8000f2
:10394800319a8000b2fd200093042400faf30700a6
:103958000000e0000c003400209a8000319a8000ba
:10396800b2fd2000930c24004bf40700800178007e
:103978000101780003007800820078000000be0092
:10398800209a8800319a8800209a8000319a800015
:10399800b2fd200093042c00e5f307000000e000ce
:1039a800010035000c003700209a8000319a800011
:1039b800b2fd2000930c240040f407008001780039
:1039c8000101780003007800820078000000be0042
:1039d800209a8800319a8800000000004f04be0039
:1039e8000080fa00000006001800fa00108280002b
:1039f8002182800000017800810178008000eb00be
:103a08000e00780002030700a0998000b199800099
:103a18000001be00410020000e007800df02070010
:103a2800e0998000f19980000001be00810020002b
:103a38000e007800d9020700209a8000319a800091
:103a48000001be00c10020000e007800d30207006c
:103a580040998000519980000001be0001012000ba
:103a68000e007800cd0207006099800071998000ef
:103a78000001be00410120000e007800c7020700c7
:103a88000e01780081012000100620003500070093
:103a9800000000000080fa00000006000a00fa009a
:103aa800200798003107980042079800e0cfb3003c
:103ab800004f78002e0090004880de00804078009b
:103ac8001e40780000c06800004f78002e0090006b
:103ad800804078001e40780000c06800004f7800e1
:103ae8003e0090004880de00804078001e4078004c
:103af80000c06800004f78003e00900080407800c9
:103b08001e40780000c06800004f78000000eb00fd
:103b1800100798000c0037001e009000e8004700ce
:103b280011004000104078009e40780000c06800f6
:103b3800004f78000e80e8008e80e8001108e80049
:103b480090007800110798009e0090003e009000b9
:103b5800808f5000f0ff35001e4078000080fa008a
:103b6800000006000e00fa00889fbe008a1f780039
:103b78004007980051079800620798000f047800e2
:103b88000f007800800478000e80e800ea00470003
:103b98006200200011084100900078001107980089
:103ba8001e0090008000e900210798000000e8004e
:103bb8000000d100800040000f0078008187470096
:103bc80060004000300798003e009000e1cfb3004d
:103bd800014878004e0090004880de008040780060
:103be8003e009000114098004e0090008040780000
:103bf8003e009000214098005e0090004880de0062
:103c0800804078003e009000314098005e009000af
:103c1800804078003e009000414098000000eb0092
:103c2800000f78000a0037001e007800ec004700fb
:103c380011004000510020001e8140009040780093
:103c48003e00900002004000014878001e0fe80086
:103c58005e0090009e007800808f5000f2ff3500d3
:103c68000e80e8001005e9006e019000de0090006b
:103c78004e00900089ff0700804078003e009000c9
:103c88000a004000014878003e0090009e00900025
:103c98009104070089077800000000008807780071
:103ca8004f0578004f04be000080fa0000000600af
:103cb8000200fa00004f7800c0828000e30f500035
:103cc80023003200e30f500007003c00e10f5000d2
:103cd80012003200e10f500016003c000000e00026
:103ce8000800320049003700e50f50002500320077
:103cf800e50f50001c003500e60f50003000320080
:103d0800420037001e407800e24f400041003a0070
:103d180010002000c08288003e0037001e80fb0093
:103d28004800dd008082880020002000c0828800d2
:103d38003b0037001e80fb008182800000807000fd
:103d48008082880030002000c0828800340037005c
:103d58001e80fb004800dd009082880040002000a3
:103d6800c08288002e0037001e80fb0091828000f0
:103d7800008070009082880050002000c082880077
:103d880027003700a1828000a01721000100400011
:103d98001e487800a08280000000e800a082880009
:103da80091828000a0828000808f50001b003c0020
:103db80060002000c08288005430ef0017003700f0
:103dc8001e417800610521008248780091828000b8
:103dd80080828000a217210030ff070057f0b7004b
:103de800710521009140780056d0bf0080cf500067
:103df80004003a009182800080828000a21721008e
:103e08000a0007005830ef00050037005830ef006f
:103e18000300370000000000010037000000000028
:103e2800000000000080fa00000006000800fa0008
:103e38001007980021079800320798009e0090000c
:103e480000022000808f50004d003a003e00900094
:103e5800104078000080fb00000f78001e007800fa
:103e68000000e0000c003a00660047001000e8007f
:103e780010407800614060000080fb006100600035
:103e88004300dd00a17380000130a1000100700033
:103e9800a0738800390037001e007800e10f500039
:103ea8000c003a00660047001000e8001040780057
:103eb800614060000080fb00610060004a00dd0096
:103ec8002170800001a0a10001007000207088000e
:103ed8002a0037001e007800e20f50000b003a005d
:103ee800660047001000e80010407800614060005c
:103ef8000080fb004f00dd00a174800001f0a100ec
:103f080001007000a07488001c0037001e007800b3
:103f1800e30f50000c003a00660047001000e8006c
:103f280010407800614060000080fb006100600084
:103f38004900dd00217080000190a100010070009f
:103f4800207088000d0037001e007800e40f500034
:103f58000a003a00660047001000e80010407800a8
:103f6800614060000080fb006100600021708000fb
:103f78000100a1000100700020708800000000000e
:103f8800000000000080fa00000006000000fa00af
:103f980002ccbf000000a1000010a1000020a10079
:103fa80002ecb700009620002060880010618000b5
:103fb80000a0a00000b0a0001061880023cca800d9
:103fc80023eca800300020002061880010628000e7
:103fd80000a0a00000b0a0001062880043cca80098
:103fe80043eca800300020002062880001eca80003
:103ff800000000000080fa00000006000600fa0039
:10400800008fbe00424798004e409000e14f50009c
:1040180004003a001e0178009e019000e297880093
:10402800f39788004e4090000004e00004003a0036
:104038001e0178009e01900022988800339888001d
:10404800000000000080fa00000006000000fa00ee
:10405800889fbe0044988000559880002098800072
:10406800319880000001be000400be0030f2070055
:104078000000e00014003d00289880003998800076
:104088004498800055988000f08280000183800069
:104098000001be000400be0088f20700000178009d
:1040a8000100780082027800000278000801be0052
:1040b80005007800840078000000be00bb010700fe
:1040c800409888005198880044988000559880004e
:1040d80020988000319880000001be000400be00d6
:1040e80015f207000000e000140034002898800052
:1040f800399880004498800055988000f0828000ac
:10410800018380000001be000400be0062f20700c7
:10411800000178000100780082027800000278002f
:104128000801be0005007800840078000000be0089
:1041380087010700409888005198880040988000bf
:10414800519880006011b800fbf107000000e00002
:104158001e00350040988000519880000200200021
:10416800031c240019f407000001780001007800fe
:104178008202780000027800d0828000e18280000c
:104188000001be0005007800840078000000be0031
:104198004af20700000178000100780082017800e7
:1041a8000001780003007800820078000000be005b
:1041b80004f2070030618800d0828000e18280002c
:1041c80000f20700706188001e003700d08280006e
:1041d800e1828000fbf10700306188004098800090
:1041e8005198800001f0a20002002000031c240066
:1041f800f6f30700000178000100780082027800d9
:1042080000027800d0828000e18280000001be00b8
:1042180005007800840078000000be0027f207003f
:104228000001780001007800820178000001780020
:1042380003007800820078000000be00e1f107006a
:10424800706188000498800015988000e0978000cd
:10425800f19780000001be000400be00b4f1070021
:104268000000e00014003d00e8978000f997800006
:104278000498800015988000f082800001838000f7
:104288000001be000400be000cf207000001780027
:104298000100780082027800000278000801be0060
:1042a80005007800840078000000be003f01070088
:1042b800009888001198880004988000159880005c
:1042c800e0978000f19780000001be000400be0066
:1042d80099f107000000e00014003400e89780001e
:1042e800f99780000498800015988000f08280007b
:1042f800018380000001be000400be00e6f1070053
:10430800000178000100780082027800000278003d
:104318000801be0005007800840078000000be0097
:104328000b01070000988800119888000098800009
:10433800119880006011b8007ff107000000e000cc
:104348001e003500009880001198800002002000af
:10435800031c24009df30700000178000100780089
:104368008202780000027800d0828000e18280001a
:104378000001be0005007800840078000000be003f
:10438800cef1070000017800010078008201780072
:104398000001780003007800820078000000be0069
:1043a80088f1070070628800d0828000e182800076
:1043b80084f10700306288001e003700d082800038
:1043c800e18280007ff10700706288000098800019
:1043d8001198800001f0a20002002000031c2400b4
:1043e8007af3070000017800010078008202780063
:1043f80000027800d0828000e18280000001be00c7
:1044080005007800840078000000be00abf10700ca
:10441800000178000100780082017800000178002e
:1044280003007800820078000000be0065f10700f4
:1044380030628800000000004f04be000080fa00cf
:10444800000006000800fa002007980031079800cd
:10445800b2fd2000930424002e009000be009000be
:104468008df10700000178000100780082027800d1
:1044780000027800b2fd2000930c240005007800ab
:10448800840078000000be00c9f50700b2fd2000d6
:104498009304240089f10700008fbe00b2fd2000bc
:1044a800930424001e0078009e00900083f107000a
:1044b800000178000100780082027800000278008c
:1044c800b2fd2000930c24000500780084007800d9
:1044d8000000be00b6f50700b2fd200093042400da
:1044e8006df1070000017800010078008200780073
:1044f80081017800000178000300780082007800cc
:104508000000be000080fa00000006000a00fa0061
:1045180030079800410798004e009000e6004700d9
:10452800110f40001e0078001001780090019000e3
:1045380012079800230798009e0090002e00900014
:10454800810178000001780003007800820078007b
:104558000000be000080fa00000006000600fa0015
:1045680010079800210798002e0090008e80e80020
:10457800110f40001e007800900078001000900095
:10458800810178000001780003007800820078003b
:104598000000be000080fa00000006000c00fa00cf
:1045a80020079800310798004207980053079800a1
:1045b8000e80e8006808470090007800110798000e
:1045c8000000eb00000f78000b0037001e00780099
:1045d8008e80e800910040006600470010017800d6
:1045e8001e0041006401470012004000914078001d
:1045f800014878001e0fe8001e007800e30f500005
:10460800f2ff3400000000000080fa0000000600fd
:104618000c00fa002007980031079800420798001c
:10462800530798000e80e80068084700900078005b
:10463800110798000000eb00000f78000c0037000d
:10464800300020001e0050008e80e80091004000dd
:1046580066004700100178001e0041006401470011
:104668001200400091407800014878001e0fe800d1
:104678001e007800e30f5000f1ff34000000000036
:104688000080fa00000006000c00fa0020079800dd
:104698003107980042079800530798000e80e800f9
:1046a8006808470090007800110798000000eb00a8
:1046b800000f78000b0037001e0078008e80e8009d
:1046c8009100400066004700100178001e0041007c
:1046d80064014700120040009140780001487800ca
:1046e8001e0fe8001e007800e70f5000f2ff3400ac
:1046f800000000000080fa00000006000400fa0034
:10470800008fbe006011b8001e0078009e00900067
:1047180089f007000000e000030035001e00780063
:104728009e009000030037001e0078009e00900055
:1047380001f0a200800178000101780003007800f0
:10474800820078000000be000080fa000000060029
:104758000800fa00008fbe0022079800330798006f
:104768002e019000be0190001e0078009e0090006f
:1047780071f007000000e000030034009e0078009c
:104788001e00900002003700ae0090003e0090002e
:104798008101780000017800030078008200780029
:1047a8000000be000080fa00000006000800fa00c1
:1047b800008fbe0022079800330798002e01900052
:1047c800be0190001e0078009e00900058f007007f
:1047d8000000e00003003d009e0078001e009000ed
:1047e80002003700ae0090003e0090008101780082
:1047f8000001780003007800820078000000be0005
:104808000080fa00000006000c00fa00008fbe00cd
:104818002207980033079800440798005507980026
:104828004e019000de0190001e0078009e0090006e
:1048380041f007000000e000040034004e01900041
:10484800de019000028fbe000a0037002e019000a2
:10485800be0190001e0078009e00900034f0070012
:104868000000e00003003d002e019000be01900012
:10487800028fbe009e0078001e0090008101780023
:104888000001780003007800820078000000be0074
:104898000080fa00000006000400fa00008fbe0045
:1048a800b2fd2000930424001e0078009e009000b2
:1048b80067f10700000178000100780082027800a3
:1048c800000278000200200043332400050078002d
:1048d800840078000000be003cf207000001780068
:1048e80001007800820078008101780000017800da
:1048f80003007800820078000000be000080fa0003
:10490800000006000400fa00008fbe00b2fd20007f
:10491800930424001e0078009e0090002bf20700ec
:104928000001780001007800820278000002780017
:10493800020020004333240005007800840078003a
:104948000000be0042f10700000178000100780075
:104958008200780081017800000178000300780067
:10496800820078000000be000080fa000000060007
:104978000600fa0010079800210798000040eb0095
:10498800004f780059000700ae009000808f50005b
:1049980013003d000040eb00004f7800080037008e
:1049a8001e80fb008e80e800110040001040780057
:1049b8000e0007001e4078000040e800004f780015
:1049c8001e80fb00ae009000808f5000f4ff3c007a
:1049d800310007000004e00001003a00240007004d
:1049e800000000000080fa00000006000200fa0043
:1049f800004f780011838000a007210001004000cb
:104a08001e487800108380000000e80010838800aa
:104a18001183800000082000808f500001003a00b8
:104a28006230ef00000000000080fa00000006007d
:104a38000200fa0021838000a00721000100400045
:104a4800104f7800208380000000e8002083880051
:104a58002183800000082000808f500001003a0068
:104a68006430ef001e4078000080fa000000060065
:104a78000200fa0010c0b30066f0b700ecff0700b0
:104a8800004f78001e80fb00201188000000000005
:104a98000080fa00000006000000fa0066d0bf009f
:104aa8000080fa00000006000200fa000000eb0097
:104ab800000f78001183800020838000808f5000d1
:104ac80003003d0000082000000f780004003700b4
:104ad800118380002083800000805000000f780040
:104ae8001e0078000080fa00000006000200fa00ac
:104af800edff07008000780000082000010050004a
:104b0800000f78001e0078000080fa000000060000
:104b18000600fa0010079800210798000040eb00f3
:104b2800004f780059000700ae009000808f5000b9
:104b380013003d000040eb00004f780008003700ec
:104b48001e80fb008e80e8001100400010407800b5
:104b58000e0007001e4078000040e800004f780073
:104b68001e80fb00ae009000808f5000f4ff3c00d8
:104b78006cd0bf000004e00001003a0024000700e8
:104b8800000000000080fa00000006000200fa00a1
:104b9800004f780041838000a01f210001004000e1
:104ba8001e487800408380000000e80040838800a9
:104bb8004183800000082000808f500001003a00e7
:104bc8006830ef00000000000080fa0000000600d6
:104bd8000200fa0051838000a01f2100010040005c
:104be800104f7800508380000000e8005083880050
:104bf8005183800000082000808f500001003a0097
:104c08006a30ef001e4078000080fa0000000600bd
:104c18000200fa0010c0b3006cf0b700ecff070008
:104c2800004f78001e80fb00a011880000000000e3
:104c38000080fa00000006000000fa006cd0bf00f7
:104c48000080fa00000006000200fa000000eb00f5
:104c5800000f78004183800050838000808f5000cf
:104c680003003d0000082000000f78000400370012
:104c7800418380005083800000805000000f78003e
:104c88001e0078000080fa00000006000200fa000a
:104c9800edff0700800078000008200001005000a8
:104ca800000f78001e0078000080fa00000006005f
:104cb8000000fa000e2eef001e2eef003e2eef0031
:104cc8002e2eef004e2eef006e2eef00702ea80055
:104cd80080cea90080aea900808ea900816ea900af
:104ce800714ea900000ea900012ea90091eea9009d
:104cf800014ea900706ea9003b0007003136800004
:104d080000f82f00008060002001b30030368800d2
:104d18008134800000fc2f00008060003000b30068
:104d2800803488002136800000f82f0080806000e1
:104d3800e004200001007000203688004134800023
:104d480000fc2f00008060000000a00040348800b4
:104d58000136800000f82f008080600010062000d7
:104d6800010070000036880001368000f00f28002e
:104d78008080600000002600010070000036880076
:104d8800e135800000f82f0080806000600420007a
:104d980001007000e0358800e1358000f00f280040
:104da800808060000050240001007000e035880019
:104db80003000700000000000080fa000000060061
:104dc8000000fa002174200062042000730520000e
:104dd800824878008348780042c7a8000000000095
:104de8000080fa00000006000000fa00217420008c
:104df8006204200073052000824878008348780008
:104e080042c7a900000000000080fa000000060068
:104e18000000fa003002a900801180000010a100f3
:104e28000020a1008011880030a2a9003062a800eb
:104e380010082000c011880033a2a90033e2a9009d
:104e480003e8a90023e8a900901180000060a100f0
:104e58000070a1009011880003c8a90023c8a80009
:104e680031e2a8003342a800000000000080fa00e8
:104e7800000006000000fa002002a90000118000ce
:104e88000010a1000020a1000011880020a2a900a4
:104e98002062a800100820004011880023a2a80062
:104ea80023e2a9000188a9002188a8001011800028
:104eb8000060a1000070a100101188000168a9001d
:104ec8002168a80021e2a8002342a80000000000f1
:104ed8000080fa00000006000600fa00100798009b
:104ee800210798000040eb00004f78000040eb00dd
:104ef800004f780014003700000000009011800077
:104f08004900de00614060000004e000fbff3a0059
:104f18001e80fb008e80e8001100400010407800e1
:104f28000080fb00a01188001e80fb008e80e80036
:104f38001100400090407800114798001e4078000a
:104f48000040e800004f78001e80fb00ae00900093
:104f5800808f5000e8ff3c00000000000080fa004d
:104f6800000006000000fa0021e3a9002143a80080
:104f7800001980000080a1000090a100001988009d
:104f88002043a900001980000050a0000060a00084
:104f98000070a000001988001019800000d0a1003e
:104fa80000e0a10000f0a100101988002343a80028
:104fb800101980000080a1000090a100101988003d
:104fc8001119800030f82f00008060000040a00018
:104fd800101988002203a9002223a90025e3a900ab
:104fe800f0c0b30024e3b70021198000f00f2e00b1
:104ff8008080600000f02000010070002019880007
:105008003303a9001e0ea8001f0ea8001f2ea8001b
:105018001f4ea8001f6ea8003003a8003103a80087
:105028003123a8003143a8003163a800411980004a
:1050380000fe2f00008060004019880028e3a900c6
:1050480001a8a90021a8a80021e3a80000000000e9
:105058000080fa00000006000000fa002023a800e3
:10506800000000000080fa00000006000000fa00be
:10507800803421000080fa00000006000000fa00d9
:1050880077d0bf000080fa00000006000000fa0098
:105098007770ef00000000000080fa0000000600b2
:1050a8000000fa00817420009140780000ccb30021
:1050b80000c060007041b30048e7b700313a800093
:1050c80000e02f0080806000800520000100700053
:1050d800303a8800203a80000060a1000070a100ea
:1050e800203a8800213a800000fe2f0000806000ee
:1050f8000000a000203a880012002000800720004d
:10510800a109200033742000804978008149780083
:1051180082497800103a8000000178000200a0005f
:105128006004200071052000237420008049780065
:10513800814978008249780000000000103a800018
:105148004c00de0067406000e14f5000fbff3a0072
:105158005927a800c03a80000000a0000010a10054
:105168000020a100c03a88005ac7bf000000a00074
:105178000010a0000020a0005ae7b700c03a800045
:105188000050a1000060a0000070a000c03a880094
:1051980059a7a80059e7a80000000000c03a8000fd
:1051a8004e00de0061406000e14f5000fbff3a0016
:1051b80000000000103a80004500de0061406000f9
:1051c800e14f5000fbff3a00000000000080fa00a9
:1051d800000006000200fa00004f78003e000700b9
:1051e8000000e0000c00340071838000a00f210053
:1051f800010040001e487800708380000000e8002d
:10520800708388007183800000082000808f500020
:1052180001003a006e30ef00000000000080fa0044
:10522800000006000200fa0081838000a00f210020
:1052380001004000104f7800808380000000e800e3
:10524800808388001e40780099fa070081838000d7
:1052580000082000808f500001003a007030ef00f5
:105268001e4078000080fa00000006000000fa00e6
:105278007183800080838000808f5000020032009c
:1052880010c0b300010037000040eb000080fa00b6
:10529800000006000200fa000000eb00000f780092
:1052a8007183800080838000808f500003003d0060
:1052b80000082000000f7800040037007183800088
:1052c8008083800000805000000f78001e00780066
:1052d8000080fa00000006000200fa00edff070057
:1052e800800078000008200001005000000f7800be
:1052f8001e0078000080fa00000006000200fa0094
:10530800004f78003e0007000000e0000c00340069
:1053180091838000a0272100010040001e487800ea
:10532800908380000000e8009083880091838000cb
:1053380000082000808f500001003a007230ef0012
:10534800000000000080fa00000006000200fa00d9
:10535800a1838000a027210001004000104f7800a1
:10536800a08380000000e800a08388001e40780029
:105378004ffa0700a183800000082000808f5000aa
:1053880001003a007430ef001e4078000080fa00f7
:10539800000006000000fa0091838000a0838000ce
:1053a800808f50000200320010c0b30001003700a7
:1053b8000040eb000080fa00000006000200fa003e
:1053c8000000eb00000f780091838000a08380002c
:1053d800808f50000300310000082000000f780083
:1053e8000400370091838000a08380000080500073
:1053f800000f78001e0078000080fa000000060008
:105408000200fa00edff0700800078000008200085
:1054180001005000000f78001e0078000080fa009c
:04542800000006007a
:020000040000fa
:10542c00001000002a000000800000004210000064
:10543c000e00000080000000fa1200004e00000078
:10544c00800000005a1000000800000082000000dc
:10545c000000a00041000000a04000004813000024
:10546c000a0000008000000076100000020000001e
:10547c00800000007a100000800000008000000016
:10548c00621000000600000080000000fa1000000e
:10549c0080000000800000006e100000040000007e
:1054ac00800000007a1100008000000080000000e5
:1054bc00501000000a00000080000000fa110000eb
:1054cc008000000080000000681000000600000052
:1054dc00800000007a1200008000000080000000b4
:1054ec007210000004000000800000002a10000070
:1054fc00180000008000000078100000020000007e
:08550c00800000000000000017
:020000040000fa
:0200000401f009
:04000800cfffff0027
:020000040000fa
:0200000401f009
:04000c00f9ffff00f9
:020000040000fa
:0200000401f009
:040010005bffff0093
:020000040000fa
:0200000401f009
:040014007fffff006b
:020000040000fa
:0200000401f009
:04001800cfffff0017
:020000040000fa
:0200000401f009
:04001c00deffff0004
:020000040000fa
:0200000401f009
:04002000cfffff000f
:00000001FF
