:020000040000fa
:080000000002040000000000f2
:020000040000fa
:040008003e030000b3
:020000040000fa
:04000c003e030000af
:020000040000fa
:040010003e030000ab
:020000040000fa
:040014003e030000a7
:020000040000fa
:040018003e030000a3
:020000040000fa
:04001c003e0300009f
:020000040000fa
:040020003e0300009b
:020000040000fa
:040024003e03000097
:020000040000fa
:040028003e03000093
:020000040000fa
:04002c003e0300008f
:020000040000fa
:040030003e0300008b
:020000040000fa
:04003400fa020000cc
:020000040000fa
:040038003e03000083
:020000040000fa
:04003c003e0300007f
:020000040000fa
:040040003e0300007b
:020000040000fa
:040044003e03000077
:020000040000fa
:040048003e03000073
:020000040000fa
:04004c003e0300006f
:020000040000fa
:040050003e0300006b
:020000040000fa
:040054003e03000067
:020000040000fa
:040058003e03000063
:020000040000fa
:04005c001a03000083
:020000040000fa
:040060003e0300005b
:020000040000fa
:040064003e03000057
:020000040000fa
:040068003e03000053
:020000040000fa
:04006c003e0300004f
:020000040000fa
:040070003e0300004b
:020000040000fa
:040074003e03000047
:020000040000fa
:040078003e03000043
:020000040000fa
:04007c003e0300003f
:020000040000fa
:040080003e0300003b
:020000040000fa
:040084003e03000037
:020000040000fa
:040088003e03000033
:020000040000fa
:04008c003e0300002f
:020000040000fa
:040090003e0300002b
:020000040000fa
:040094003e03000027
:020000040000fa
:040098003e03000023
:020000040000fa
:04009c003e0300001f
:020000040000fa
:0400a0003e0300001b
:020000040000fa
:0400a4003e03000017
:020000040000fa
:0400a8003e03000013
:020000040000fa
:0400ac003e0300000f
:020000040000fa
:0400b0003e0300000b
:020000040000fa
:0400b4003e03000007
:020000040000fa
:0400b8003e03000003
:020000040000fa
:0400bc003e030000ff
:020000040000fa
:0400c0003e030000fb
:020000040000fa
:0400c4003e030000f7
:020000040000fa
:0400c8003e030000f3
:020000040000fa
:0400cc003e030000ef
:020000040000fa
:0400d0003e030000eb
:020000040000fa
:0400d4003e030000e7
:020000040000fa
:0400d8003e030000e3
:020000040000fa
:0400dc003e030000df
:020000040000fa
:0400e0003e030000db
:020000040000fa
:0400e4003e030000d7
:020000040000fa
:0400e8003e030000d3
:020000040000fa
:0400ec003e030000cf
:020000040000fa
:0400f0003e030000cb
:020000040000fa
:0400f4003e030000c7
:020000040000fa
:0400f8003e030000c3
:020000040000fa
:0400fc003e030000bf
:020000040000fa
:040100003e030000ba
:020000040000fa
:040104003e030000b6
:020000040000fa
:040108003e030000b2
:020000040000fa
:04010c003e030000ae
:020000040000fa
:040110003e030000aa
:020000040000fa
:040114003e030000a6
:020000040000fa
:040118003e030000a2
:020000040000fa
:04011c003e0300009e
:020000040000fa
:040120003e0300009a
:020000040000fa
:040124003e03000096
:020000040000fa
:040128003e03000092
:020000040000fa
:04012c003e0300008e
:020000040000fa
:040130003e0300008a
:020000040000fa
:040134003e03000086
:020000040000fa
:040138003e03000082
:020000040000fa
:04013c003e0300007e
:020000040000fa
:040140003e0300007a
:020000040000fa
:040144003e03000076
:020000040000fa
:040148003e03000072
:020000040000fa
:04014c003e0300006e
:020000040000fa
:040150003e0300006a
:020000040000fa
:040154003e03000066
:020000040000fa
:040158003e03000062
:020000040000fa
:04015c003e0300005e
:020000040000fa
:040160003e0300005a
:020000040000fa
:040164003e03000056
:020000040000fa
:040168003e03000052
:020000040000fa
:04016c003e0300004e
:020000040000fa
:040170003e0300004a
:020000040000fa
:040174003e03000046
:020000040000fa
:040178003e03000042
:020000040000fa
:04017c003e0300003e
:020000040000fa
:040180003e0300003a
:020000040000fa
:040184003e03000036
:020000040000fa
:040188003e03000032
:020000040000fa
:04018c003e0300002e
:020000040000fa
:040190003e0300002a
:020000040000fa
:040194003e03000026
:020000040000fa
:040198003e03000022
:020000040000fa
:04019c003e0300001e
:020000040000fa
:0401a0003e0300001a
:020000040000fa
:0401a4003e03000016
:020000040000fa
:0401a8003e03000012
:020000040000fa
:0401ac003e0300000e
:020000040000fa
:0401b0003e0300000a
:020000040000fa
:0401b4003e03000006
:020000040000fa
:0401b8003e03000002
:020000040000fa
:0401bc003e030000fe
:020000040000fa
:0401c0003e030000fa
:020000040000fa
:0401c4003e030000f6
:020000040000fa
:0401c8003e030000f2
:020000040000fa
:0401cc003e030000ee
:020000040000fa
:0401d0003e030000ea
:020000040000fa
:0401d4003e030000e6
:020000040000fa
:0401d8003e030000e2
:020000040000fa
:0401dc003e030000de
:020000040000fa
:0401e0003e030000da
:020000040000fa
:0401e4003e030000d6
:020000040000fa
:0401e8003e030000d2
:020000040000fa
:0401ec003e030000ce
:020000040000fa
:0401f0003e030000ca
:020000040000fa
:0401f4003e030000c6
:020000040000fa
:0401f8003e030000c2
:020000040000fa
:0401fc003e030000be
:020000040000fa
:040200003e030000b9
:020000040000fa
:040204003e030000b5
:020000040000fa
:040208003e030000b1
:020000040000fa
:04020c003e030000ad
:020000040000fa
:040210003e030000a9
:020000040000fa
:040214003e030000a5
:020000040000fa
:040218003e030000a1
:020000040000fa
:04021c003e0300009d
:020000040000fa
:040220003e03000099
:020000040000fa
:040224003e03000095
:020000040000fa
:040228003e03000091
:020000040000fa
:04022c003e0300008d
:020000040000fa
:040230003e03000089
:020000040000fa
:040234003e03000085
:020000040000fa
:040238003e03000081
:020000040000fa
:04023c003e0300007d
:020000040000fa
:040240003e03000079
:020000040000fa
:040244003e03000075
:020000040000fa
:040248003e03000071
:020000040000fa
:04024c003e0300006d
:020000040000fa
:040250003e03000069
:020000040000fa
:040254003e03000065
:020000040000fa
:040258003e03000061
:020000040000fa
:04025c003e0300005d
:020000040000fa
:040260003e03000059
:020000040000fa
:040264003e03000055
:020000040000fa
:10040000cf0321000eff2d000e0188000000000028
:10041000000020000000e000020032000001200087
:100420002002880014000700960007000000e0008a
:1004300003003a00801e2100010020000200370066
:100440000000200001002000810f70000100320038
:100450000f000700000020000000e0000200320052
:1004600000000200000000004c0d0200000000002f
:100470000040da000000fe00200020000000e00044
:1004800002003200100020009001880000000600e9
:10049000a1028800800478000000eb001f003700f4
:1004a000e284440054a0b4009905ba00e2844400f8
:1004b00054a0b4009906ba00e284440054a0b400e9
:1004c0000006eb00476fde00fd07b200ae018800ba
:1004d000636ce10003003a000ad801000000eb0061
:1004e0000e003700606ce10008003a00004deb00a0
:1004f0000a05e800020039003420ec000af0a000f0
:100500008b05e900f9ff3e00040037006168e10057
:10051000010032000086eb000b00070019c7ba008b
:100520000e04e0001905ba0003003a000a00e000da
:10053000dbff3a0000000600fe07b200ae028800b2
:100540008a047800f5ff37000cd0a300e20f4d00bd
:100550001c003b0089027800354dba000a05e8000e
:10056000020039003420ec000af0a0008b05e900fd
:100570000f003200254dba000a05e80002003900dc
:100580003420ec000af0a0008b05e90008003200de
:100590000c00e0000600320015cdba000a05e800a4
:1005a000020039003420ec000af0a0008b05e900bd
:1005b0008984e80054a0b4000b00e000e2ff3a0098
:1005c000000006009902ba00055d78008b05e9007d
:1005d000f7ff3200c82ade00055d78008b05e900d0
:1005e000f3ff32000c00e000f1ff320019ddba0029
:1005f000eeff37003600f800809fbe00829fbe00ed
:10060000849fbe00869fbe000000fa000068a9001b
:10061000500407000f0707000080fa004f03be00d8
:100620004f02be004f01be004f00be003600f90071
:1006300000400600801f78000000fa0001a8a90011
:10064000001880009081880010188000a081880028
:1006500020188000b081880030188000c081880098
:1006600040188000d081880010c0b30009f0b700a6
:100670000080fa004f007800004006000040da00d9
:100680000000fe0000000500140020008903370070
:10069000f4ff2f00870337000001be001b00070096
:1006a0000470a70003f0a10003f8a30013003a00b0
:1006b0006509b10010003200090035006928e10029
:1006c0000200350001002800000005000000400085
:1006d000818048008502e900fcff3a000000060026
:1006e000f88f4200050035008100d1000080d30062
:1006f0008502e800fcff3a00000006008000eb00e5
:10070000000005006011b80085033700c70ade004d
:10071000f107b200f50fb20008003200e1cf42004d
:10072000020032000170a00024000500810f70005b
:10073000010032000408050044000500810f70002c
:1007400002003a00140005008502e90000004000a4
:1007500081c04800fcff3b000170a00024000500a0
:1007600007f82700078361000638e10004003a001b
:10077000f7072000878361008703710001003a00ba
:1007800003f0a200889fbe008a9fbe008c9fbe001f
:10079000470ade000480a100c71ade000580a10020
:1007a000070028000785600087856100f70f20009b
:1007b0000720e1009e0032000728e1009c00320083
:1007c000010678000400e000b4003200f7072000c2
:1007d000878060000170a0000500e000c0003200ca
:1007e000f7072000878161000370a0000506520012
:1007f0000f003a000b50e1000b0032000308e1004b
:1008000002003a000200e1007e00320002045000c3
:1008100083845800040031000001fd008101fd00c7
:100820008402fd008a05fd006044b8002100370005
:100830000520e10005003d000001fd008101fd00f3
:100840008402fd008a05fd00050652007a60e10081
:10085000050035000170a1004722dd008480700092
:100860008a807000630037006044b800ef026600c1
:1008700007ff2f00070666000500e00006003400b1
:10088000f08312008714dd000511de00071bdd0078
:10089000060171008519de007060e1000500350079
:1008a0000904780082047800030178008001eb00dd
:1008b000700656000b50e10003003a0002004000b1
:1008c000838048000400370060041400e0841c00aa
:1008d00002005800838058000188a30006003200ff
:1008e0008100d1000080d3008984d3000884d30024
:1008f0000402e800270037000178a30025003a0031
:100900000100e000030032008186cf0069865600b6
:100910000a0037008c0020000000e00004003a00cc
:1009200009007800880478000004eb00700252008f
:100930008086cf000d0646000c06e9007060e100dd
:1009400006003500800078000900780088047800ef
:100950000004eb0070065600700252000c00e0002c
:100960000c0034008c08dd00f00316000703de00e5
:10097000868070000c00dd00074bde000600700072
:100980008c4cdd000743de00868474000c44dd00df
:100990000c0252006120e10020003500610160007e
:1009a0000700280087816400f7ff27008783640021
:1009b000070374000300e0000600320082037300a6
:1009c000040032000000e800e08048000188a30035
:1009d0000e003a00f70f20000720e1004a003d001a
:1009e0000170a1004722dd00810072008a80700042
:1009f0000000be004f06be004f05be004f04be0003
:100a0000000006006000b800faff37008100d10046
:100a10000080d3000402e800eeff370004017800f4
:100a200089017400a10107008a807000f1ff37007e
:100a3000f7010700070278000001fd008101fd00b9
:100a4000f301070087027800850372000778a3008e
:100a5000040032000001fd008101fd0006020700d4
:100a6000e4ff3700850362000768a3000800320036
:100a70000b50e10003003200f0ff2f00f1ff2700d0
:100a8000dcff37000001fd008101fd00d9ff3700c8
:100a90000468a300d7ff3200faff3700f8ff2700f1
:100aa000888360000b003a000000e00009003a0073
:100ab0008303640082837300020032000200be00e0
:100ac000ccff37000b50e100ceff3a000200be0021
:100ad000c8ff370014002000810064003eff37008b
:100ae000f8ff27008883610004003a000200e0005c
:100af00002003a008c007800beff3700150020008d
:100b00008301640039ff370001f82700000020004e
:100b100081007500b7ff3700889fbe008a9fbe0026
:100b20008c9fbe001b0020000202be0005866800ec
:100b300006002800060666004709de00f20fb20034
:100b4000820032000243e80080003200c729de0044
:100b5000f30fb2007d0032000343e8007b00320057
:100b6000f107b2000170a000f507b2000570a00007
:100b7000c708dd004903de00868070004700dd0005
:100b8000c72add004923de00868272004722dd008d
:100b90000305510004035000858358000300310011
:100ba00000004000818048000a05e9008c1f7800a1
:100bb0008a9fbe0004005000858058000402420055
:100bc00085824a0000004000818048000005eb005b
:100bd0000004be006033b8000406be000d48e1000a
:100be00056003100110009004dccd8000c01b800ae
:100bf0000d02b8008481410060824a008283530064
:100c000003045c0084845c0060055d000a00e00071
:100c100025003a00800578000d40e10049003100d0
:100c20008800780007007800110009004d88d8007e
:100c30000c01b8000d02b8008481410060824a00b6
:100c40006003110083835b0004045c00e0845c00ab
:100c50000900e00021003a004f01be000300e0005f
:100c60002b003200e3016000070673008c817100e5
:100c700001003200640070004200de004e5edd00c4
:100c80000c007000c258de0001e0a00083010700e4
:100c9000cf017800818071004f06be004f05be0075
:100ca0004f04be00000006008c8343000d044c007e
:100cb000e0844c0060054d000000e9000a00e000ff
:100cc000d4ff32008c8343000d044c00e0844c00c0
:100cd00060054d000000e900ceff37000c03430023
:100ce0008d834b0060044c00e0844c000000e90060
:100cf0000900e000d8ff32000c0343008d834b0055
:100d000060044c00e0844c000000e900d2ff370092
:100d10004200de004e5edd000c007000c258de00b6
:100d200001e0a000cf0178000300e000daff32000c
:100d300060001000e0801800d7ff3700f0ff2f00a0
:100d4000aaff3700f0ff2f00b9ff37000404be00f0
:100d50002f010700870678000004fd008104fd00d4
:100d60002b010700078366000678a300030032000a
:100d70000960a7000800be002c0037000d78a30012
:100d8000020032000800be00280037000778a300e8
:100d900026003a0001f0a10009f0a1000668a300b6
:100da00003003200f1ff2700f0ff2f00baff3700e9
:100db0000d68a300030032000800be008c807000a4
:100dc000b5ff37000768a30007003a000648a300f4
:100dd00003003200f1ff2700f0ff2f00aeff3700c5
:100de0000d48a300030032006000b8008c80700042
:100df000a9ff37000748a3000400320001f82700cc
:100e0000000020008c807000a3ff370076010700ef
:100e10000004fd008104fd00020578007201070056
:100e20000802be008a01780059ff37000160a00067
:100e3000120220005280880097ff37000100e00076
:100e4000120032000500e00010003200889fbe0052
:100e50008a9fbe008c9fbe000006eb0001f8a30035
:100e60000300320060001000e08018000cf0a000c9
:100e700005f8a3000300320060021200e0821a00ad
:100e80000cf0a2008005eb0041ff37006000b800c5
:100e900002000500038368000700280007036300c1
:100ea000470ade000480a100c71ade000580a10009
:100eb000f70f20000720e100420032000728e10080
:100ec00040003200889fbe008a9fbe008c1f7800c1
:100ed000f107b200f307b2000400e0006400320042
:100ee0000170a0000500e000680032000370a0005f
:100ef00085054200eb07b1000204b8000302b80008
:100f00008484440060854a00020ab8008484440056
:100f10000a854a00030ab8000405450004003300ae
:100f20000804d0008984d2000a85d2008b05e9002c
:100f30006158e1003d003500021020000901610008
:100f40000308200089816100f7072000878364007f
:100f500008867300c84cde00c853dd008784740027
:100f60004855de000300e0000600320082037600f0
:100f7000040032008904e80060054d000a88a300df
:100f80000c003a00f70f20000758e10044003d0034
:100f90000a70a100c75ddd000a8575008a00730034
:100fa000090078004f0678004f05be004f04be00d0
:100fb000000006000a05d1008984d3008b05e800f3
:100fc000f0ff3700881f78000604780090000700c3
:100fd000070278000001fd008101fd008c00070080
:100fe00087027800850372000778a30005003200ad
:100ff0000001fd008101fd009f0007004f04780003
:1010000000000600850372000748a30003003200b9
:10101000f0ff2f00f1ff2700f8ff3700000020004d
:1010200001f8270088807000f4ff370088017800fd
:101030004848dd00808171004848de00c850dd006e
:1010400001007000c850de00060478000b01780033
:101050001600070088807000d2ff37000500e0000e
:1010600005003200170020003a0007009dff3700fe
:1010700081037000f9ff3a00860078004f0678007f
:101080004f05be004f04be00000005008303710041
:10109000f9ff3200270020002e00070094ff3700e0
:1010a00001f8270086807000f4ff37000100e0009f
:1010b00026003200610111007810e10023003c009d
:1010c0006022b8007010e100040035008002780052
:1010d000010078008000eb00700151000200e00088
:1010e0000900340070031100062add00822ade00a8
:1010f0008603dd00878272000200de00860bdd00c1
:10110000070070008208de0084817100f4ff270070
:1011100004826200848171000400280084826200dd
:101120006102600005f0a600000006000482710064
:10113000070032000000e800e080480000000600e0
:101140000002be006000b800efff37006000b8008a
:1011500000000600889fbe000004eb006138e1003b
:1011600016003a000100e00008003a00c800de0066
:101170004800dd00880020000100e00003003a0084
:10118000c800de004800dd00680444008184cf0010
:10119000e9845400060034008908dd00f08314005f
:1011a0008703de00878070000900dd000904440029
:1011b000610214004f04be00000006000300e000be
:1011c00008003a00c811de004811dd008800200048
:1011d0000300e00003003a00c811de004811dd0002
:1011e000680444008384cf00e9845400060034007e
:1011f0008919dd00f08314008713de0087817100f8
:101200000911dd0009044400e1021400e9ff370080
:101210002700200001f0a70017002000470bde0088
:10122000f60fb200040032000643e8000a00320064
:101230004702b3000000060001037800f607b20081
:101240000603700002003a000703b3000000060026
:101250008702b3000000060001037800f607b20021
:1012600006037000020032000770a00000000600b4
:101270000760a000000006000478a300040032000c
:101280000578a300030032000168a30001003a00c2
:101290000200be000160a000000006008101700095
:1012a000270032008002eb0001f8a30003003200a7
:1012b00060001000e080180015002000f4072000f6
:1012c0000202420020003400f70320008703600080
:1012d00006042000000363000208200000016100f2
:1012e0004700de00c909dd0000807100c708de008c
:1012f0000600e0000800320087037100060032009b
:101300001000b0000180b0000188a300020032008c
:10131000c108de000402e800f107b200f30f20006c
:101320000320e10003003d004722dd008100720040
:101330002900370001f827000000eb0026003700e5
:101340006000b80000000600680212007f20e10083
:10135000020034006000b8001f0037006011b800c0
:101360007020e10004003500800178000100780061
:101370008000eb00700252000400e000090034001d
:10138000f00312000719dd008419de000703dd00f9
:10139000868171000400de00070bdd00060070008e
:1013a0008408de00f7ff2700838363008703710052
:1013b0000600280003036300070032000700e00076
:1013c00003003a00610160000281730002003200f4
:1013d0001000b0000180b0000500a600000006006b
:1013e00001f0a000000006004f0ade004709de0001
:1013f000f107b200f20fb2000b003200f207b100a9
:101400000170a000c708dd00c901de008380700004
:101410004700dd000400a600000006006000100088
:10142000e080180000000600810f700001003a0003
:10143000000006008182cf000500e00010003e00a1
:101440008082cf00ee8242007028e1000400390063
:1014500007003e00800078000000eb000e0037001f
:10146000708312008600de000500dd000a003700f0
:10147000708352008600dd000000eb00060037009c
:10148000e28252008508dd00708312000603de0050
:10149000868070000500dd007507b0000501ea00d8
:1014a0000400a6000000060060001000e0801800a4
:1014b00000000600889fbe008a9fbe00841f78003f
:1014c0006c0007004f00780011003300f0ff2f0080
:1014d000838f6c0006003b00040565000a00a7002e
:1014e0000800370009f0a6001000200008003700af
:1014f000820f5400838f5c0003003900100020002d
:1015000001003e000000200009f0a7000000ea00f2
:101510004f05be004f04be000000e00000000600c2
:10152000889fbe008a9fbe00008270000402710086
:1015300004827100260032000004be000200be00da
:101540006011b8006b092000950220000182cf00d5
:101550000a0039000541b1000082cf0007003900c0
:101560000541b1000982cf00040039000541b100f6
:101570000882cf00010039000541b1000542520048
:10158000120032000a003b00828171006101640098
:101590008100d1000080d3008984d3000884d30067
:1015a0008b05e8000442e800f7ff3a000700370027
:1015b0000804440089844c000000480081804800f1
:1015c0008b05e9000442e900f9ff3a000300070037
:1015d0004f05be004f04be00000006008100200041
:1015e000618055000b003d000b00200061fe2f00c4
:1015f0000100e1001d00340082817100610164007e
:101600008904d1000884d3000000e800faff3a0002
:10161000710020006100640003007000020060009f
:101620000900320061044400e0844c000988a500f0
:10163000050032008b05e8006808e10002003a006e
:101640008904d1000884d300f20f20000258e10081
:1016500005003d00c75ddd00f907b2008980750017
:1016600008007800000006000bf827008b007800c7
:10167000000005000004be0024fc07000003be00bb
:101680000405be000200be0020fc0700844f750068
:041690000000060050
:020000040000fa
:101694000000fa001160800080ff2f0000806000cd
:1016a400106088000096200020608800116180008e
:1016b40000c02000010070001061880023cca80045
:1016c40023eca80030002000206188001162800013
:1016d40000c02000010070001062880043cca80004
:1016e40043eca800300020002062880001eca80030
:1016f4000080fa00000006000600fa00008fbe0019
:1017040064004700024878006400470010407800f5
:101714000004e00004003a001e0178009e019000dd
:10172400728088008380880064004700104078003d
:10173400e14f500004003a001e0178009e01900021
:10174400b2808800c38088000080fa000000060090
:101754000000fa00889fbe00d4808000e5808000ed
:10176400b0808000c180800018c0b3000001be00ba
:101774000400be00c3fb07000000e00001003500c8
:101784000044eb000804e0000d003200b880800043
:10179400c9808000d4808000e580800020808000a3
:1017a400318080000001be000400be00f4fb07008d
:1017b4000801be00c4010700d0808800e1808800d1
:1017c400d4808000e5808000b0808000c1808000eb
:1017d40018c0b3000001be000400be00abfb07004c
:1017e4000000e00001003c000044eb000804e000bd
:1017f4000d003200b8808000c9808000d480800051
:10180400e580800020808000318080000001be00df
:101814000400be00d1fb07000801be0090010700d0
:10182400d0808800e1808800d0808000e180800042
:1018340018c0b3006011b80094fb07000000e0007a
:1018440001003d000044eb000804e00014003200f5
:10185400d0808000e180800002002000031c24006e
:101864008bfd07000002be00008080001180800014
:101874000001be000400be00c1fb070085fb070099
:1018840000007800306188000080800011808000b2
:1018940080fb0700000078007061880014003700a6
:1018a40000808000118080007afb0700000078002f
:1018b40030618800d0808000e180800001f0a200c7
:1018c40002002000031c240071fd07000002be007a
:1018d40000808000118080000001be000400be0072
:1018e400a7fb07006bfb070000007800706188000d
:1018f40094808000a58080007080800081808000ba
:1019040018c0b3000001be000400be005dfb070068
:101914000000e000010035000044eb000804e00092
:101924000d003200788080008980800094808000df
:10193400a580800020808000318080000001be00ee
:101944000400be008efb07000801be005e01070014
:1019540090808800a180880094808000a580800009
:10196400708080008180800018c0b3000001be0038
:101974000400be0045fb07000000e00001003c003d
:101984000044eb000804e0000d0032007880800081
:101994008980800094808000a58080002080800061
:1019a400318080000001be000400be006bfb070014
:1019b4000801be002a01070090808800a1808800e9
:1019c40090808000a180800018c0b3006011b8002e
:1019d4002efb07000000e00001003c000044eb0087
:1019e4000804e0001400320090808000a180800090
:1019f40002002000031c240025fd07000002be0095
:101a040000808000118080000001be000400be0040
:101a14005bfb07001ffb07000000780030628800b2
:101a240000808000118080001afb0700000078000d
:101a340070628800140037000080800011808000ec
:101a440014fb07000000780030628800908080005a
:101a5400a180800001f0a20002002000031c2400e9
:101a64000bfd07000002be00008080001180800092
:101a74000001be000400be0041fb070005fb070097
:101a840000007800706288004f04be000080fa00f5
:101a9400000006000800fa00881f780067010700ac
:101aa40023020700fa010700f9fe0700ae01070050
:101ab4000041eb006000b8000fff070012c0b30044
:101ac4006000b8000cff070084cea90084aea90012
:101ad400848ea900856ea900754ea900040ea90084
:101ae400052ea90095eea900054ea900746ea90063
:101af400df010700e14f50007c003a00e0010700dd
:101b0400d7010700000f78001e007800100078004d
:101b14008000eb00fafa0700323323003305240077
:101b2400dbfc07000200200003582400f9fb070037
:101b34000e81e8000089be000e80e80010017800e4
:101b4400900190000000200081202400f1fb070098
:101b540002002000030a240000fb0700f080880034
:101b6400018188001e80e800100078008000eb00ee
:101b7400e3fa07003233230033052400c4fc0700d2
:101b84000200200003582400e2fb07000e81e80055
:101b94000089be000e80e8001001780090019000da
:101ba4000000200081202400dafb0700020020004e
:101bb400030a2400e9fa07001081880021818800c3
:101bc4009e00780064804000100078008000eb00e4
:101bd400cbfa07003233230033052400acfc0700a2
:101be4000200200003582400cafb07000e81e8000d
:101bf4000089be000e80e80010017800900190007a
:101c04000000200081202400c2fb07000200200005
:101c1400030a2400d1fa070030818800418188003a
:101c24009e00780066804000100078008000eb0081
:101c3400b3fa0700323323003305240094fc070071
:101c44000200200003582400b2fb07000e81e800c4
:101c54000089be000e80e800100178009001900019
:101c64000000200081202400aafb070002002000bd
:101c7400030a2400b9fa07005081880061818800b2
:101c84009e00780068804000100078008000eb001f
:101c94009bfa070032332300330524007cfc070041
:101ca40002002000035824009afb07000e81e8007c
:101cb4000089be000e80e8001001780090019000b9
:101cc400000020008120240092fb07000200200075
:101cd400030a2400a1fa070070818800818188002a
:101ce4008000eb006600470001087800f080800067
:101cf4000181800018c0b30002002000031f2400eb
:101d040060fa07000000e000010035000044eb0029
:101d14000804e0000200320084cea800010037006d
:101d240084cea900108180002181800018c0b300f6
:101d340002002000031f240052fa07000000e00004
:101d4400010035000044eb000804e000020032000a
:101d540084aea8000100370084aea9003081800061
:101d64004181800018c0b30002002000031f24003a
:101d740044fa07000000e000010035000044eb00d5
:101d84000804e00002003200848ea800010037003d
:101d9400848ea900508180006181800018c0b30046
:101da40002002000031f240036fa07000000e000b0
:101db400010035000044eb000804e000020032009a
:101dc400856ea80001003700856ea900708180002f
:101dd4008181800018c0b30002002000031f24008a
:101de40028fa07000000e000010035000044eb0081
:101df4000804e00002003200754ea8003cff3700e2
:101e0400754ea9003aff37000400fa00881f7800d5
:101e1400008fbe0018c0b3006011b8001e00780027
:101e24009e00900019fa07000000e00001003d0048
:101e34000044eb000804e000030032001e007800b8
:101e44009e009000030037001e0078009e00900062
:101e540001f0a2004f0478000080fa0000000600a0
:101e64000800fa00881f7800008fbe006400470055
:101e74000288be0018c0b300640047001001780057
:101e8400900190001e0078009e009000fff907006a
:101e94000000e00001003c000044eb000804e00006
:101ea400030032001e0078009e00900003003700fb
:101eb4006400470090009000100078004f04780000
:101ec4000080fa00000006000800fa00881f78006d
:101ed400008fbe00640047000288be0018c0b30033
:101ee4006400470010017800900190001e00780003
:101ef4009e009000e3f907000000e00001003500b7
:101f04000044eb000804e000030032001e007800e7
:101f14009e0090000300370064004700900090008a
:101f2400100078004f0478000080fa0000000600da
:101f34000c00fa00881f7800008fbe006400470080
:101f44000288be00680047000488be0018c0b300c1
:101f54006800470010017800900190001e0078008e
:101f64009e009000c9f907000000e00001003c0059
:101f74000044eb000804e00004003200680047005d
:101f8400301f7800201778000f00370018c0b30006
:101f94006400470010017800900190001e00780052
:101fa4009e009000b7f907000000e0000100350032
:101fb4000044eb000804e000030032006400470022
:101fc400301f7800201778001e0078009e009000d3
:101fd4004f0478000080fa00000006000400fa00b4
:101fe400008fbe00b2fd2000930424001e00780080
:101ff4009e009000c7fa070002002000433324002b
:10200400a3fb07000080fa00000006000400fa00a9
:10201400008fbe00b2fd2000930424001e0078004f
:102024009e0090009afb0700020020004333240026
:10203400b8fa07000080fa00000006000000fa0069
:10204400413a800000fc2f00008060007001b30062
:10205400403a8800313a800000e02f008080600020
:102064008005200001007000303a8800213a800089
:10207400f0f32f0000806000203a8800213a8000ad
:1020840000fe2f00008060000000a000203a8800bd
:102094001200200080072000a109200033742000d2
:1020a400804978008149780082497800103a80009c
:1020b400000178000200a0006004200071052000e7
:1020c400237420008049780081497800824978008f
:1020d40000000000113a80000000270080806000aa
:1020e40000002100808f5000faff3a005927a80011
:1020f400c13a800080ff2f00008060000000a00033
:10210400c03a8800d03a80007000b300d03a88000a
:10211400c13a8000f0f12f0080806000000c2000a4
:1021240001007000c03a880059a7a80059e7a80028
:1021340000000000c13a800000002400008060001c
:102144000000e000fbff320000000000113a8000b4
:1021540000022000008060000000e000fbff32006d
:102164000080fa00000006000000fa0021e3a90044
:102174002143a80001198000f0cf2f0000806000e7
:10218400001988002043a90001198000000e2000d6
:10219400010070000019880011198000f0ff21006f
:1021a40000806000101988002343a80011198000e2
:1021b400f0cf2f00008060001019880011198000f2
:1021c40030f82f00008060000040a0001019880043
:1021d4002203a9002223a90025e3a900f0c0b3002b
:1021e40024e3b70021198000f00f2e0080806000e6
:1021f40000f0200001007000201988003303a900ba
:102204001e0ea8001f0ea8001f2ea8001f4ea80017
:102214001f6ea8003003a8003103a8003123a800d2
:102224003143a8003163a8004119800000fe2f004b
:10223400008060004019880028e3a90001a8a900d3
:1022440021a8a80021e3a8000080fa0000000600ed
:102254000000fa002023a8000080fa000000060015
:102264000000fa00200321000080fa0000000600ac
:102274000000fa0009d0bf000080fa000000060048
:102284000000fa000970ef000080fa000000060068
:102294000000fa0005e1a90021088000f0fc2f00ed
:1022a400008060000050a000200888000421a900dc
:1022b400f0492200100888000068a9002068a800de
:1022c40005e1a8000080fa00000006000000fa0002
:1022d40013e1a90011e1a9001061a8001021a900cf
:1022e40081088000f0fc2f000080600080088800d6
:1022f4000a21ef000621ef00303920007008880021
:1023040000702800600888002142800080ff2f00b0
:10231400008060000000a000204288000108a9009d
:102324002108a80011e1a8000080fa0000000600be
:102334000000fa000e2eef001e2eef003e2eef00de
:102344002e2eef004e2eef006e2eef0080cea90051
:1023540080aea900808ea900816ea900714ea900eb
:10236400000ea900012ea90091eea900014ea900ba
:10237400706ea9000c000700020007000080fa003c
:10238400000006000000fa0021742000620420000e
:1023940073052000824878008348780042c7a8006b
:1023a4000080fa00000006000000fa0021742000fa
:1023b4006204200073052000824878008348780076
:0c23c40042c7a9000080fa0000000600db
:020000040000fa
:1023d0000c1000002600000080000000001000002b
:1023e00008000000820000000000a000410ad700a1
:1023f000233c0000321000000a00000080000000b2
:102400000810000002000000800000000a10000018
:0c2410000200000080000000000000003e
:020000040000fa
:0200000401f009
:04000800cfffff0027
:020000040000fa
:0200000401f009
:04000c00f9ffff00f9
:020000040000fa
:0200000401f009
:040010005bffff0093
:020000040000fa
:0200000401f009
:040014007fffff006b
:020000040000fa
:0200000401f009
:04001800cfffff0017
:020000040000fa
:0200000401f009
:04001c00deffff0004
:020000040000fa
:0200000401f009
:04002000cfffff000f
:00000001FF
