:020000040000fa
:080000001c02040000000000d6
:020000040000fa
:040008004a040000a6
:020000040000fa
:04000c004a040000a2
:020000040000fa
:040010004a0400009e
:020000040000fa
:040014004a0400009a
:020000040000fa
:040018004a04000096
:020000040000fa
:04001c004a04000092
:020000040000fa
:040020004a0400008e
:020000040000fa
:040024004a0400008a
:020000040000fa
:040028004a04000086
:020000040000fa
:04002c004a04000082
:020000040000fa
:040030004a0400007e
:020000040000fa
:0400340016030000af
:020000040000fa
:040038004a04000076
:020000040000fa
:04003c004a04000072
:020000040000fa
:040040004a0400006e
:020000040000fa
:040044004a0400006a
:020000040000fa
:040048004a04000066
:020000040000fa
:04004c004a04000062
:020000040000fa
:040050004a0400005e
:020000040000fa
:0400540002040000a2
:020000040000fa
:04005800d6030000cb
:020000040000fa
:04005c007a03000023
:020000040000fa
:040060004a0400004e
:020000040000fa
:040064004a0400004a
:020000040000fa
:040068004a04000046
:020000040000fa
:04006c004a04000042
:020000040000fa
:040070004a0400003e
:020000040000fa
:040074004a0400003a
:020000040000fa
:040078004a04000036
:020000040000fa
:04007c004a04000032
:020000040000fa
:040080004a0400002e
:020000040000fa
:040084004a0400002a
:020000040000fa
:040088004a04000026
:020000040000fa
:04008c004a04000022
:020000040000fa
:040090004a0400001e
:020000040000fa
:040094003a0300002b
:020000040000fa
:040098004a04000016
:020000040000fa
:04009c004a04000012
:020000040000fa
:0400a000a0030000b9
:020000040000fa
:0400a4004a0400000a
:020000040000fa
:0400a8004a04000006
:020000040000fa
:0400ac004a04000002
:020000040000fa
:0400b0004a040000fe
:020000040000fa
:0400b4004a040000fa
:020000040000fa
:0400b8004a040000f6
:020000040000fa
:0400bc004a040000f2
:020000040000fa
:0400c0004a040000ee
:020000040000fa
:0400c4004a040000ea
:020000040000fa
:0400c8004a040000e6
:020000040000fa
:0400cc004a040000e2
:020000040000fa
:0400d0004a040000de
:020000040000fa
:0400d4004a040000da
:020000040000fa
:0400d8004a040000d6
:020000040000fa
:0400dc004a040000d2
:020000040000fa
:0400e0004a040000ce
:020000040000fa
:0400e4004a040000ca
:020000040000fa
:0400e8004a040000c6
:020000040000fa
:0400ec004a040000c2
:020000040000fa
:0400f0004a040000be
:020000040000fa
:0400f4004a040000ba
:020000040000fa
:0400f8004a040000b6
:020000040000fa
:0400fc004a040000b2
:020000040000fa
:040100004a040000ad
:020000040000fa
:040104004a040000a9
:020000040000fa
:040108004a040000a5
:020000040000fa
:04010c004a040000a1
:020000040000fa
:040110004a0400009d
:020000040000fa
:040114004a04000099
:020000040000fa
:040118004a04000095
:020000040000fa
:04011c004a04000091
:020000040000fa
:040120004a0400008d
:020000040000fa
:040124004a04000089
:020000040000fa
:040128004a04000085
:020000040000fa
:04012c004a04000081
:020000040000fa
:040130004a0400007d
:020000040000fa
:040134004a04000079
:020000040000fa
:040138004a04000075
:020000040000fa
:04013c004a04000071
:020000040000fa
:040140004a0400006d
:020000040000fa
:040144004a04000069
:020000040000fa
:040148004a04000065
:020000040000fa
:04014c004a04000061
:020000040000fa
:040150004a0400005d
:020000040000fa
:040154004a04000059
:020000040000fa
:040158004a04000055
:020000040000fa
:04015c004a04000051
:020000040000fa
:040160004a0400004d
:020000040000fa
:040164004a04000049
:020000040000fa
:040168004a04000045
:020000040000fa
:04016c004a04000041
:020000040000fa
:040170004a0400003d
:020000040000fa
:040174004a04000039
:020000040000fa
:040178004a04000035
:020000040000fa
:04017c004a04000031
:020000040000fa
:040180004a0400002d
:020000040000fa
:040184004a04000029
:020000040000fa
:040188004a04000025
:020000040000fa
:04018c004a04000021
:020000040000fa
:040190004a0400001d
:020000040000fa
:040194004a04000019
:020000040000fa
:040198004a04000015
:020000040000fa
:04019c004a04000011
:020000040000fa
:0401a0004a0400000d
:020000040000fa
:0401a4004a04000009
:020000040000fa
:0401a8004a04000005
:020000040000fa
:0401ac004a04000001
:020000040000fa
:0401b0004a040000fd
:020000040000fa
:0401b4004a040000f9
:020000040000fa
:0401b8004a040000f5
:020000040000fa
:0401bc004a040000f1
:020000040000fa
:0401c0004a040000ed
:020000040000fa
:0401c4004a040000e9
:020000040000fa
:0401c8004a040000e5
:020000040000fa
:0401cc004a040000e1
:020000040000fa
:0401d0004a040000dd
:020000040000fa
:0401d4004a040000d9
:020000040000fa
:0401d8004a040000d5
:020000040000fa
:0401dc004a040000d1
:020000040000fa
:0401e0004a040000cd
:020000040000fa
:0401e4004a040000c9
:020000040000fa
:0401e8004a040000c5
:020000040000fa
:0401ec004a040000c1
:020000040000fa
:0401f0004a040000bd
:020000040000fa
:0401f4004a040000b9
:020000040000fa
:0401f8004a040000b5
:020000040000fa
:0401fc004a040000b1
:020000040000fa
:040200004a040000ac
:020000040000fa
:040204004a040000a8
:020000040000fa
:040208004a040000a4
:020000040000fa
:04020c004a040000a0
:020000040000fa
:040210004a0400009c
:020000040000fa
:040214004a04000098
:020000040000fa
:040218004a04000094
:020000040000fa
:04021c004a04000090
:020000040000fa
:040220004a0400008c
:020000040000fa
:040224004a04000088
:020000040000fa
:040228004a04000084
:020000040000fa
:04022c004a04000080
:020000040000fa
:040230004a0400007c
:020000040000fa
:040234004a04000078
:020000040000fa
:040238004a04000074
:020000040000fa
:04023c004a04000070
:020000040000fa
:040240004a0400006c
:020000040000fa
:040244004a04000068
:020000040000fa
:040248004a04000064
:020000040000fa
:04024c004a04000060
:020000040000fa
:040250004a0400005c
:020000040000fa
:040254004a04000058
:020000040000fa
:040258004a04000054
:020000040000fa
:04025c004a04000050
:020000040000fa
:040260004a0400004c
:020000040000fa
:040264004a04000048
:020000040000fa
:10040000f03fb1000180b10006003500ee030900a5
:1004100000000000403fb1000180b100fbff3d0043
:100420001000b000203fb00002003500008009003d
:1004300000000000000006002f1721000eff27001b
:100440000e01880000000000000020000000e00015
:100450000200320000012000200288001400070082
:100460000e0107000000e00003003a00c0ca2100ae
:1004700001002000020037000000200001002000e1
:10048000810f7000010032000f0007000000200003
:100490000000e00002003200000002000000000046
:1004a000980c0200000000000040da000000fe008e
:1004b000200020000000e0000200320010002000b8
:1004c0009001880000000600a102880080047800e6
:1004d0000000eb001f003700e284440054a0b40089
:1004e0009905ba00e284440054a0b4009906ba0009
:1004f000e284440054a0b4000006eb00476fde0025
:10050000fd07b200ae018800636ce10003003a0011
:100510000ad801000000eb000e003700606ce1001b
:1005200008003a00004deb000a05e800020039001f
:100530003420ec000af0a0008b05e900f9ff3e0032
:10054000040037006168e100010032000086eb0022
:100550000b00070019c7ba000e04e0001905ba0025
:1005600003003a000a00e000dbff3a00000006004a
:10057000fe07b200ae0288008a047800f5ff37005b
:100580000cd0a300e20f4d001c003b008902780054
:10059000354dba000a05e800020039003420ec00ad
:1005a0000af0a0008b05e9000f003200254dba00cb
:1005b0000a05e800020039003420ec000af0a0002f
:1005c0008b05e900080032000c00e0000600320054
:1005d00015cdba000a05e800020039003420ec000d
:1005e0000af0a0008b05e9008984e80054a0b4005b
:1005f0000b00e000e2ff3a00000006009902ba009a
:10060000055d78008b05e900f7ff3200c82ade009f
:10061000055d78008b05e900f3ff32000c00e00077
:10062000f1ff320019ddba00eeff37003600f800a6
:10063000809fbe00829fbe00849fbe00869fbe003a
:100640000000fa000068a9003c090700d40b07006d
:100650000e070700000000000080fa004f03be00f4
:100660004f02be004f01be004f00be003600f90031
:10067000004006003600f800809fbe00829fbe004a
:10068000849fbe00869fbe000000fa000368a90098
:100690005280800063808000100020000100200054
:1006a00002004000838048005080880061808800fc
:1006b00072808000838080001000200001002000f4
:1006c000020040008380480070808800818088009c
:1006d000a1050700000000000080fa004f03be00e3
:1006e0004f02be004f01be004f00be003600f900b1
:1006f00000400600801f78000000fa0001a8a90051
:1007000000188000408b880010188000508b8800f3
:1007100020188000608b880030188000708b880063
:1007200040188000808b880010c0b3003ff0b700f5
:10073000000000000080fa004f0078000040060032
:10074000801f78000000fa0003c8a9009011800003
:100750004200de0061406000e14f500001003a00bd
:100760003242a900901180000000d1006140600079
:10077000e14f500004003a003222a9000200370085
:10078000b0118000a0118800901180000040780016
:1007900061406000e14f5000f9ff320000000000ae
:1007a0000080fa004f007800004006003600f80094
:1007b000809fbe00829fbe00849fbe00869fbe00b9
:1007c0000000fa000188a900b1818000a0818000aa
:1007d000808f500002003200b90a07000100370084
:1007e0003870ef00000000000080fa004f03be00e8
:1007f0004f02be004f01be004f00be003600f900a0
:10080000004006003600f800809fbe00829fbe00b8
:10081000849fbe00869fbe000000fa000168a90008
:10082000101180004200de0061406000e14f500086
:1008300001003a002242a900101180000000d100fe
:1008400061406000e14f500005003a002222a900fb
:10085000030037003011800000407800620b070071
:10086000101180000040780061406000e14f5000ae
:10087000f8ff3200000000000080fa004f03be00c5
:100880004f02be004f01be004f00be003600f9000f
:10089000004006000040da000000fe0000000500f5
:1008a00014002000aa033700f4ff2f00a80337002c
:1008b0000001be003c0007000470a70003f0a10087
:1008c0006509b100160032000d0035006828e1000e
:1008d00006003500f0ff2f00f1ff27000300e000c5
:1008e00013003b000100280000000500000040004c
:1008f000818048008502e900fcff3a0008003700cb
:10090000f88f420002003c008000eb000000050070
:100910008100d1000080d3008502e800fcff3a008e
:100920000300e00002003b0060001000e0801800bf
:10093000000006000001be001b0007000470a700b5
:1009400003f0a10003f8a30013003a006509b10009
:1009500010003200090035006928e100020035006e
:1009600001002800000005000000400081804800d0
:100970008502e900fcff3a0000000600f88f420003
:10098000050035008100d1000080d3008502e80019
:10099000fcff3a00000006008000eb0000000500ac
:1009a0006011b80085033700c70ade00f107b20006
:1009b000f50fb20008003200e1cf42000200320021
:1009c0000170a00024000500810f700001003200ba
:1009d0000408050044000500810f700002003a0081
:1009e000140005008502e9000000400081c04800b5
:1009f000fcff3b000170a0002400050007f8270061
:100a0000078361000638e10004003a00f707200080
:100a1000878361008703710001003a0003f0a200a0
:100a2000889fbe008a9fbe008c9fbe00470ade00e2
:100a30000480a100c71ade000580a100070028007d
:100a40000785600087856100f70f20000720e1001f
:100a50009e0032000728e1009c0032000106780069
:100a60000400e000b4003200f70720008780600037
:100a70000170a0000500e000c0003200f707200070
:100a8000878161000370a000050652000f003a0044
:100a90000b50e1000b0032000308e10002003a00b5
:100aa0000200e1007e0032000204500083845800fe
:100ab000040031000001fd008101fd008402fd0001
:100ac0008a05fd006044b800210037000520e100e0
:100ad00005003d000001fd008101fd008402fd00d4
:100ae0008a05fd00050652007a60e1000500350028
:100af0000170a1004722dd00848070008a807000b0
:100b0000630037006044b800ef02660007ff2f0063
:100b1000070666000500e00006003400f0831200be
:100b20008714dd000511de00071bdd0006017100e2
:100b30008519de007060e1000500350009047800c9
:100b400082047800030178008001eb0070065600f3
:100b50000b50e10003003a0002004000838048008f
:100b60000400370060041400e0841c0002005800f8
:100b7000838058000188a300060032008100d10064
:100b80000080d3008984d3000884d3000402e800e5
:100b9000270037000178a30025003a000100e0009b
:100ba000030032008186cf00698656000a003700b4
:100bb0008c0020000000e00004003a0009007800ea
:100bc000880478000004eb00700252008086cf0099
:100bd0000d0646000c06e9007060e10006003500d5
:100be0008000780009007800880478000004eb0099
:100bf00070065600700252000c00e0000c00340039
:100c00008c08dd00f00316000703de00868070000c
:100c10000c00dd00074bde00060070008c4cdd0090
:100c20000743de00868474000c44dd000c02520091
:100c30006120e1002000350061016000070028000c
:100c400087816400f7ff270087836400070374002f
:100c50000300e0000600320082037300040032004b
:100c60000000e800e08048000188a3000e003a0080
:100c7000f70f20000720e1004a003d000170a100ad
:100c80004722dd00810072008a8070000000be00f3
:100c90004f06be004f05be004f04be000000060018
:100ca0006000b800faff37008100d1000080d30057
:100cb0000402e800eeff37000401780089017400a7
:100cc000a10107008a807000f1ff3700f7010700db
:100cd000070278000001fd008101fd00f30107001b
:100ce00087027800850372000778a30004003200b1
:100cf0000001fd008101fd0006020700e4ff37004e
:100d0000850362000768a300080032000b50e10071
:100d100003003200f0ff2f00f1ff2700dcff370057
:100d20000001fd008101fd00d9ff37000468a30028
:100d3000d7ff3200faff3700f8ff270088836000f2
:100d40000b003a000000e00009003a008303640051
:100d500082837300020032000200be00ccff370025
:100d60000b50e100ceff3a000200be00c8ff370082
:100d700014002000810064003eff3700f8ff2700c8
:100d80008883610004003a000200e00002003a009b
:100d90008c007800beff370015002000830164003e
:100da00039ff370001f8270000002000810075009e
:100db000b7ff3700889fbe008a9fbe008c9fbe0091
:100dc0001b0020000202be00058668000600280005
:100dd000060666004709de00f20fb200820032000c
:100de0000243e80080003200c729de00f30fb200a2
:100df0007d0032000343e8007b003200f107b200bf
:100e00000170a000f507b2000570a000c708dd0062
:100e10004903de00868070004700dd00c72add0040
:100e20004923de00868272004722dd00030551005f
:100e30000403500085835800030031000000400087
:100e4000818048000a05e9008c1f78008a9fbe0057
:100e500004005000858058000402420085824a0048
:100e600000004000818048000005eb000004be0047
:100e70006033b8000406be000d48e10056003100a2
:100e8000110009004dccd8000c01b8000d02b800cb
:100e90008481410060824a008283530003045c0025
:100ea00084845c0060055d000a00e00025003a00d3
:100eb000800578000d40e10049003100880078008d
:100ec00007007800110009004d88d8000c01b80017
:100ed0000d02b8008481410060824a006003110065
:100ee00083835b0004045c00e0845c000900e00094
:100ef00021003a004f01be000300e0002b00320049
:100f0000e3016000070673008c817100010032006c
:100f1000640070004200de004e5edd000c007000d8
:100f2000c258de0001e0a00083010700cf01780075
:100f3000818071004f06be004f05be004f04be0009
:100f4000000006008c8343000d044c00e0844c003c
:100f500060054d000000e9000a00e000d4ff320007
:100f60008c8343000d044c00e0844c0060054d0070
:100f70000000e900ceff37000c0343008d834b00d7
:100f800060044c00e0844c000000e9000900e0002f
:100f9000d8ff32000c0343008d834b0060044c00eb
:100fa000e0844c000000e900d2ff37004200de0080
:100fb0004e5edd000c007000c258de0001e0a000b3
:100fc000cf0178000300e000daff3200600010007b
:100fd000e0801800d7ff3700f0ff2f00aaff37008e
:100fe000f0ff2f00b9ff37000404be002f010700f7
:100ff000870678000004fd008104fd002b01070036
:10100000078366000678a300030032000960a7008a
:101010000800be002c0037000d78a300020032004b
:101020000800be00280037000778a30026003a0019
:1010300001f0a10009f0a1000668a300030032003e
:10104000f1ff2700f0ff2f00baff37000d68a30063
:10105000030032000800be008c807000b5ff37002e
:101060000768a30007003a000648a3000300320007
:10107000f1ff2700f0ff2f00aeff37000d48a3005f
:10108000030032006000b8008c807000a9ff3700b8
:101090000748a3000400320001f8270000002000e8
:1010a0008c807000a3ff3700760107000004fd006c
:1010b0008104fd0002057800720107000802be00ed
:1010c0008a01780059ff37000160a0001202200059
:1010d0000282880097ff37000100e0001200320012
:1010e0000500e00010003200889fbe008a9fbe000d
:1010f0008c9fbe000006eb0001f8a3000300320045
:1011000060001000e08018000cf0a00005f8a300bb
:101110000300320060021200e0821a000cf0a2000c
:101120008005eb0041ff37006000b80002000500b9
:10113000038368000700280007036300470ade00f6
:101140000480a100c71ade000580a100f70f20006f
:101150000720e100420032000728e1004000320091
:10116000889fbe008a9fbe008c1f7800f107b200e6
:10117000f307b2000400e000640032000170a00038
:101180000500e000680032000370a0008505420001
:10119000eb07b1000204b8000302b80084844400e5
:1011a00060854a00020ab800848444000a854a0027
:1011b000030ab80004054500040033000804d00009
:1011c0008984d2000a85d2008b05e9006158e100cc
:1011d0003d003500021020000901610003082000d5
:1011e00089816100f7072000878364000886730007
:1011f000c84cde00c853dd00878474004855de000b
:101200000300e00006003200820376000400320092
:101210008904e80060054d000a88a3000c003a002c
:10122000f70f20000758e10044003d000a70a100bc
:10123000c75ddd000a8575008a007300090078002b
:101240004f0678004f05be004f04be0000000600a8
:101250000a05d1008984d3008b05e800f0ff370030
:10126000881f7800060478009000070007027800c5
:101270000001fd008101fd008c000700870278005d
:10128000850372000778a300050032000001fd000d
:101290008101fd009f0007004f0478000000060058
:1012a000850372000748a30003003200f0ff2f00ff
:1012b000f1ff2700f8ff37000000200001f82700a9
:1012c00088807000f4ff3700880178004848dd000e
:1012d000808171004848de00c850dd0001007000c8
:1012e000c850de00060478000b01780016000700e5
:1012f00088807000d2ff37000500e0000500320052
:10130000170020003a0007009dff3700810370009e
:10131000f9ff3a00860078004f0678004f05be00be
:101320004f04be000000050083037100f9ff320086
:10133000270020002e00070094ff370001f8270047
:1013400086807000f4ff37000100e00026003200c4
:10135000610111007810e10023003c006022b80018
:101360007010e10004003500800278000100780070
:101370008000eb00700151000200e0000900340021
:1013800070031100062add00822ade008603dd00dc
:10139000878272000200de00860bdd00070070000d
:1013a0008208de0084817100f4ff2700048262005d
:1013b0008481710004002800848262006102600060
:1013c00005f0a6000000060004827100070032004c
:1013d0000000e800e0804800000006000002be00b7
:1013e0006000b800efff37006000b80000000600a2
:1013f000889fbe000004eb006138e10016003a004f
:101400000100e00008003a00c800de004800dd00ee
:10141000880020000100e00003003a00c800de0060
:101420004800dd00680444008184cf00e984540052
:10143000060034008908dd00f08314008703de0015
:10144000878070000900dd00090444006102140077
:101450004f04be00000006000300e00008003a0050
:10146000c811de004811dd00880020000300e00004
:1014700003003a00c811de004811dd006804440092
:101480008384cf00e9845400060034008919dd000c
:10149000f08314008713de00878171000911dd00dd
:1014a00009044400e1021400e9ff3700270020008e
:1014b00001f0a70017002000470bde00f60fb20076
:1014c000040032000643e8000a0032004702b3007d
:1014d0000000060001037800f607b2000603700062
:1014e00002003a000703b300000006008702b300c1
:1014f0000000060001037800f607b2000603700042
:10150000020032000770a000000006000760a00083
:10151000000006000478a300040032000578a30050
:10152000030032000168a30001003a000200be007f
:101530000160a00000000600810170002700320059
:101540008002eb0001f8a3000300320060001000ed
:10155000e080180015002000f4072000020242007d
:1015600020003400f70320008703600006042000f9
:101570000003630002082000000161004700de0054
:10158000c909dd0000807100c708de000600e00028
:101590000800320087037100060032001000b0001e
:1015a0000180b0000188a30002003200c108de0003
:1015b0000402e800f107b200f30f20000320e1006d
:1015c00003003d004722dd00810072002900370042
:1015d00001f827000000eb00260037006000b8008b
:1015e00000000600680212007f20e10002003400c3
:1015f0006000b8001f0037006011b8007020e100e3
:101600000400350080017800010078008000eb00c4
:10161000700252000400e00009003400f0031200e0
:101620000719dd008419de000703dd0086817100e3
:101630000400de00070bdd00060070008408de00f9
:10164000f7ff2700838363008703710006002800eb
:1016500003036300070032000700e00003003a00c4
:101660006101600002817300020032001000b000ce
:101670000180b0000500a6000000060001f0a000f7
:10168000000006004f0ade004709de00f107b20045
:10169000f20fb2000b003200f207b1000170a0009f
:1016a000c708dd00c901de00838070004700dd004f
:1016b0000400a6000000060060001000e080180092
:1016c00000000600810f700001003a0000000600d3
:1016d0008182cf000500e00010003e008082cf0034
:1016e000ee8242007028e1000400390007003e004d
:1016f000800078000000eb000e00370070831200bd
:101700008600de000500dd000a003700708352000d
:101710008600dd000000eb0006003700e282520088
:101720008508dd00708312000603de0086807000ed
:101730000500dd007507b0000501ea000400a60001
:101740000000060060001000e080180000000600a5
:10175000889fbe008a9fbe00841f78006c0007002f
:101760004f00780011003300f0ff2f00838f6c00d2
:1017700006003b00040565000a00a70008003700ca
:1017800009f0a6001000200008003700820f540066
:10179000838f5c00030039001000200001003e0030
:1017a0000000200009f0a7000000ea004f05be007d
:1017b0004f04be000000e00000000600889fbe004d
:1017c0008a9fbe00008270000402710004827100d2
:1017d000260032000004be000200be006011b80006
:1017e0006b092000950220000182cf000a00390019
:1017f0000541b1000082cf00070039000541b1006a
:101800000982cf00040039000541b1000882cf00f1
:10181000010039000541b1000542520012003200ba
:101820000a003b0082817100610164008100d100e7
:101830000080d3008984d3000884d3008b05e8009e
:101840000442e800f7ff3a000700370008044400ac
:1018500089844c0000004800818048008b05e90025
:101860000442e900f9ff3a00030007004f05be00fb
:101870004f04be000000060081002000618055007a
:101880000b003d000b00200061fe2f000100e10075
:101890001d00340082817100610164008904d1005f
:1018a0000884d3000000e800faff3a00710020002d
:1018b0006100640003007000020060000900320053
:1018c00061044400e0844c000988a5000500320052
:1018d0008b05e8006808e10002003a008904d100a5
:1018e0000884d300f20f20000258e10005003d00fb
:1018f000c75ddd00f907b200898075000800780037
:10190000000006000bf827008b007800000005009f
:101910000004be0024fc07000003be000405be0056
:101920000200be0020fc0700844f75000000060086
:020000040000fa
:101930000a00fa007b070700c707070079030700c2
:101940009702070000002000a1472400840307003d
:1019500038040700d50607009b06070084cea900bf
:1019600084aea900848ea900856ea900754ea900d9
:10197000040ea900052ea90095eea900054ea900a8
:10198000746ea9000000eb00000f7800070037001c
:101990002c07070000407800004f980068004700bf
:1019a00011002000000607001e0fe8004207070094
:1019b0009e007800808f5000f5ff350000712200f6
:1019c000010020008efa0700907380000000d10013
:1019d00061406000e14f500004003a001000200018
:1019e000f08088000e30ef001030ef00f5060700a1
:1019f000e14f5000e3ff3a00f6060700ed0607004e
:101a0000100798001e009000100078008000eb0086
:101a1000e3fb07003233230033052400c4fd070035
:101a2000000178000100780082027800000278004e
:101a3000020020000358240005007800840078008c
:101a40000000be00dbfc070020079800310798006b
:101a50002e019000be019000000020008120240093
:101a6000d4fc0700000178000100780082027800b1
:101a70000002780002002000030a2400050078001c
:101a8000840078000000be00dcfb070080017800c5
:101a90000101780003007800820078000000be0099
:101aa000a08a8800b18a88000e80e8001080e800d3
:101ab000100078008000eb00b9fb070032332300f0
:101ac000330524009afd070000017800010078002a
:101ad00082027800000278000200200003582400ef
:101ae00005007800840078000000be00b1fc07000b
:101af00020079800310798002e019000be01900049
:101b00000000200081202400aafc070000017800ca
:101b100001007800820278000002780002002000b4
:101b2000030a240005007800840078000000be004d
:101b3000b2fb070080017800010178000300780003
:101b4000820078000000be00c08a8800d18a880028
:101b50000e80e80041002000108040001000780056
:101b60008000eb008efb0700323323003305240096
:101b70006ffd070000017800010078008202780004
:101b800000027800020020000358240005007800bd
:101b9000840078000000be0086fc07002007980043
:101ba000310798002e019000be0190000000200037
:101bb000812024007ffc07000001780001007800ec
:101bc000820278000002780002002000030a24004c
:101bd00005007800840078000000be0087fb070045
:101be000800178000101780003007800820078000d
:101bf0000000be00e08a8800f18a88000e80e800bc
:101c00006100200010804000100078008000eb0090
:101c100063fb0700323323003305240044fd070033
:101c2000000178000100780082027800000278004c
:101c3000020020000358240005007800840078008a
:101c40000000be005bfc07002007980031079800e9
:101c50002e019000be019000000020008120240091
:101c600054fc07000001780001007800820278002f
:101c70000002780002002000030a2400050078001a
:101c8000840078000000be005cfb07008001780043
:101c90000101780003007800820078000000be0097
:101ca000008b8800118b88000e80e80081002000e6
:101cb00010804000100078008000eb0038fb070027
:101cc000323323003305240019fd0700000178009a
:101cd00001007800820278000002780002002000f3
:101ce0000358240005007800840078000000be003e
:101cf00030fc070020079800310798002e01900063
:101d0000be019000000020008120240029fc070073
:101d1000000178000100780082027800000278005b
:101d200002002000030a24000500780084007800e7
:101d30000000be0031fb070080017800010178003f
:101d400003007800820078000000be00208b88002d
:101d5000318b88000bff37000000fa007280800092
:101d60008380800000a62e0001002000800f51001b
:101d7000818f5900a3003e00f08080000000e00049
:101d8000a00032001cd0bf000080fb006100b90041
:101d90001201200003002000820f5000838f5800a2
:101da00090003e0000060100110037001a003700c5
:101db000230037002d00370039003700430037007b
:101dc0004f003700590037005a00370066003700cf
:101dd0006e0037007a00370082003700810037003c
:101de000800037007f0037003a00370021003700bd
:101df0000a30ef000c30ef000041eb006000b8004b
:101e00002803070012c0b3006000b80025030700d4
:101e100010c0b3001cf0b7005280800063808000c7
:101e2000803e200001002000800f5100818f59006a
:101e30006e00360020c0b3001cf0b7006b00370006
:101e40000041eb0000002000011c240015030700e6
:101e500012c0b30000002000011c24001103070081
:101e600030c0b3001cf0b700650037006f000700fa
:101e7000630037000041eb00000020000113240044
:101e80000803070012c0b30000002000011924005d
:101e90000403070050c0b3001cf0b700580037001f
:101ea0000041eb0000002000010c2400fd020700af
:101eb00012c0b30000002000011a2400f90207003c
:101ec00050c0b3001cf0b7004d00370057000700aa
:101ed0004b0037000041eb000000200001192400f6
:101ee000f002070012c0b30000002000011324001c
:101ef000ec02070050c0b3001cf0b70040003700f0
:101f00000041eb0000002000011a2400e502070058
:101f100012c0b30000002000010c2400e102070001
:101f200070c0b3001cf0b700350037003f00070059
:101f3000330037000041eb000000200001152c00a9
:101f4000d802070012c0b3000000200001152400d1
:101f5000d402070090c0b3001cf0b7000a30ef00b5
:101f60000c30ef0026003700528080006380800034
:101f70008025200001002000800f5100818f590032
:101f80001c003600290007001a0037000041eb0052
:101f90000000200001152400c202070012c0b30097
:101fa0000000200001152c00be020700b0c0b300e5
:101fb0001cf0b7000a30ef000c30ef0010003700c3
:101fc0005280800063808000c01220000100200049
:101fd000800f5100818f5900080036001300070060
:101fe000060037001c70ef000500370000000000fd
:101ff0000b0037000000000009003700000000005f
:10200000070037001e30ef000041eb006000b80011
:10201000a402070012c0b3006000b800a1020700cc
:10202000000000000080fa00000006000200fa0034
:102030000040eb00004f7800d08080000000e000fe
:102040000f003200c08080000000e0000c003a0069
:10205000b08080000000e00009003a00a08080000d
:102060000000e00006003a00908080000000e000e0
:1020700003003a0050c0b300004f78004d00370015
:10208000d08080000000e0000f003a00c080800097
:102090000000e0000c003a00b08080000000e0008a
:1020a00009003a00a08080000000e00006003a002d
:1020b000908080000000e0000300320010c0b300f8
:1020c000004f78003b003700c08080000000e00037
:1020d00009003200b08080000000e00006003a00f5
:1020e000a08080000000e00003003a0040c0b30080
:1020f000004f78002f003700c08080000000e00013
:1021000009003a00b08080000000e00006003a00bc
:10211000a08080000000e0000300320020c0b30077
:10212000004f780023003700b08080000000e000fe
:1021300006003a00c08080000000e000120032007b
:10214000a08080000000e0000f003200048b8000bf
:10215000158b8000c08a8000d18a80000001be00fb
:102160000400be00d0f907000000e00003003400c6
:1021700060c0b300004f78000e00370030c0b300dd
:10218000004f78000b003700c08080000000e000a6
:1021900008003a00b08080000000e00005003a002e
:1021a000a08080000000e00002003a000040eb0048
:1021b000004f78001e4078000004e00003003a0061
:1021c00020c0b30020f0b700230037001e40780085
:1021d000e54f500003003a0010c1b30020f0b700f3
:1021e0001d0037001e407800e14f500003003a0008
:1021f00000c1b30020f0b700170037001e40780080
:10220000e44f500003003a0040c0b30020f0b70094
:10221000110037001e407800e24f500003003a00e2
:1022200060c0b30020f0b7000b0037001e407800fc
:10223000e34f500003003a0080c0b30020f0b70025
:10224000050037001e407800e64f500002003a00bb
:10225000a0c0b30020f0b70020d0bf000080fb007a
:10226000c1012100914078008180fb008100e900dc
:10227000810f50000200320020d0bf001cf0b700d8
:10228000000000000080fa00000006000000fa00d4
:10229000a08a8000b18a800002002000031e240072
:1022a0007ff907000000e00004003d0084cea80094
:1022b00010002000908088000200370084cea90022
:1022c0001230ef00c08a8000d18a80000200200016
:1022d000c321240072f907000000e00004003d0063
:1022e00084aea80010002000a08088000200370003
:1022f00084aea9001430ef00e08a8000f18a8000eb
:1023000002002000031f240065f907000000e00020
:1023100004003d00848ea80010002000b0808800da
:1023200002003700848ea9001630ef00008b800079
:10233000118b800002002000c321240058f90700ff
:102340000000e00004003d00856ea80010002000a1
:10235000c080880002003700856ea9001830ef00a9
:10236000208b8000318b800002002000031e24009f
:102370004bf907000000e00004003d00754ea80086
:1023800010002000d080880002003700754ea900a0
:102390001a30ef00000000000080fa000000060084
:1023a0000000fa0005e1a900200880000040a1001b
:1023b0000050a000200888000421a900f049220054
:1023c000100888000068a9002068a80005e1a8009e
:1023d00000002000812c24001d00070000000000e8
:1023e0000080fa00000006000000fa0013e1a900d6
:1023f00011e1a9001061a8001021a9008008800047
:102400000040a1000050a100800888000a21ef00d0
:102410000621ef0030392000700888000070280085
:1024200060088800204280000000a0000010a10089
:102430000020a100204288000108a9002108a8006e
:1024400011e1a800000000000080fa000000060072
:102450000400fa00008fbe00200880000040a100a8
:102460000050a100200888001e0178009e01900005
:10247000001c2e0041c624004efa0700000178001f
:1024800001007800820278000002780002f02f003c
:10249000f377240005007800840078000000be0077
:1024a00001f907000000e0008d00340020088000e2
:1024b0000040a0000050a100200888001e01780004
:1024c0009e019000001c2e0041c6240039fa07002e
:1024d0000001780001007800820278000002780094
:1024e000020020000310240005007800840078001a
:1024f0000000be002ffa07000001780001007800fc
:10250000820278000002780002f02f00f3772400a6
:1025100005007800840078000000be00e2f80700a3
:102520000000e00055003400200880000040a100b9
:102530000050a000200888001e0178009e01900035
:10254000001c2e0041c624001afa07000001780082
:10255000010078008202780000027800020020006a
:102560000328240005007800840078000000be00e5
:1025700010fa07000001780001007800820278005c
:102580000002780002f02f00f377240005007800a5
:10259000840078000000be00c3f807000000e000df
:1025a0001d003400200880000040a0000050a00062
:1025b000200888001e0178009e019000001c2e005b
:1025c00041c62400fbf907000001780001007800f3
:1025d0008202780000027800020020000338240004
:1025e00005007800840078000000be00f1f90700c3
:1025f0000001780001007800820178000001780075
:1026000003007800820078000000be00a8f80700f0
:1026100010088800400037001e0178009e019000dd
:10262000001c2e0041c62400e2f9070000017800da
:102630000100780082027800000278000200200089
:102640000328240005007800840078000000be0004
:10265000d8f90700000178000100780082017800b5
:102660000001780003007800820078000000be00be
:102670008ff8070010088800270037001e01780037
:102680009e019000001c2e0041c62400c9f90700dd
:1026900000017800010078008202780000027800d2
:1026a0000200200003102400050078008400780058
:1026b0000000be00bff907000001780001007800ab
:1026c0008201780000017800030078008200780021
:1026d0000000be0076f80700100888000e003700e2
:1026e0001e0178009e019000001c2e0041c62400af
:1026f000b0f907000001780001007800820178003d
:102700000001780003007800820078000000be001d
:1027100067f8070010088800000000000080fa0039
:10272000000006000000fa001fe1a900f008800088
:102730000040a1000050a000f00888001e21a90060
:10274000f0492200d00888000368a9002368a80087
:102750001fe1a800000000000080fa000000060051
:102760000400fa00008fbe00f00880000040a100c5
:102770000050a100f00888001e0178009e01900022
:10278000001c2e0041c624008af9070000017800d1
:1027900001007800820278000002780002f02f0029
:1027a000f377240005007800840078000000be0064
:1027b0003df807000000e0008d003400f0088000c4
:1027c0000040a0000050a100f00888001e01780021
:1027d0009e019000001c2e0041c6240075f90700e0
:1027e0000001780001007800820278000002780081
:1027f0000200200003102400050078008400780007
:102800000000be006bf907000001780001007800ad
:10281000820278000002780002f02f00f377240093
:1028200005007800840078000000be001ef8070054
:102830000000e00055003400f00880000040a100d6
:102840000050a000f00888001e0178009e01900052
:10285000001c2e0041c6240056f907000001780034
:102860000100780082027800000278000200200057
:102870000328240005007800840078000000be00d2
:102880004cf907000001780001007800820278000e
:102890000002780002f02f00f37724000500780092
:1028a000840078000000be00fff707000000e00091
:1028b0001d003400f00880000040a0000050a0007f
:1028c000f00888001e0178009e019000001c2e0078
:1028d00041c6240037f907000001780001007800a4
:1028e00082027800000278000200200003382400f1
:1028f00005007800840078000000be002df9070074
:102900000001780001007800820178000001780061
:1029100003007800820078000000be00e4f70700a2
:10292000d0088800400037001e0178009e0190000a
:10293000001c2e0041c624001ef90700000178008b
:102940000100780082027800000278000200200076
:102950000328240005007800840078000000be00f1
:1029600014f9070000017800010078008201780066
:102970000001780003007800820078000000be00ab
:10298000cbf70700d0088800270037001e01780029
:102990009e019000001c2e0041c6240005f907008e
:1029a00000017800010078008202780000027800bf
:1029b0000200200003102400050078008400780045
:1029c0000000be00fbf8070000017800010078005d
:1029d000820178000001780003007800820078000e
:1029e0000000be00b2f70700d00888000e003700d4
:1029f0001e0178009e019000001c2e0041c624009c
:102a0000ecf80700000178000100780082017800ee
:102a10000001780003007800820078000000be000a
:102a2000a3f70700d0088800000000000080fa002b
:102a3000000006000000fa0002ccbf000000a10068
:102a40000010a1000020a10002ecb70000962000b9
:102a5000206088001061800000a0a00000b0a000ed
:102a60001061880023cca80023eca80030002000cf
:102a7000206188001062800000a0a00000b0a000cb
:102a80001062880043cca80043eca800300020006e
:102a90002062880001eca800000000000080fa001d
:102aa000000006000600fa00008fbe0042479800b2
:102ab0004e409000e14f500016003a001e01780091
:102ac0009e019000228a8800338a8800020020003c
:102ad000031c24001e0078009e00900070f7070081
:102ae0000000e00006003a00040ea800052ea80031
:102af00095eea800054ea800746ea80005003700ea
:102b0000040ea900052ea90095eea900054ea90006
:102b1000746ea9004e4090000004e00004003a00ea
:102b20001e0178009e019000628a8800738a8800e6
:102b3000000000000080fa00000006000000fa001b
:102b4000889fbe00848a8000958a8000608a800009
:102b5000718a80000001be000400be0050f707002b
:102b60000000e00014003d00688a8000798a80003f
:102b7000848a8000958a8000808180009181800015
:102b80000001be000400be00a5f7070000017800a8
:102b90000100780082027800000278000801be007f
:102ba00005007800840078000000be000d010700d9
:102bb000808a8800918a8800848a8000958a8000b3
:102bc000608a8000718a80000001be000400be009f
:102bd00035f707000000e00014003400688a800028
:102be000798a8000848a8000958a800080818000b4
:102bf000918180000001be000400be007ff7070045
:102c0000000178000100780082027800000278005c
:102c10000801be0005007800840078000000be00b6
:102c2000d9000700808a8800918a8800808a800005
:102c3000918a80006011b8001bf707000000e000d7
:102c40001e003500808a8000918a800002002000ea
:102c5000031c240036f90700000178000100780009
:102c6000820278000002780060818000718180001b
:102c70000001be0005007800840078000000be005e
:102c800067f70700000178000100780082017800f2
:102c90000001780003007800820078000000be0088
:102ca00024f7070030618800608180007181800016
:102cb00020f70700706188001e00370060818000e7
:102cc000718180001bf7070030618800808a8000d6
:102cd000918a800001f0a20002002000031c240061
:102ce00013f90700000178000100780082027800e3
:102cf0000002780060818000718180000001be00c8
:102d000005007800840078000000be0044f707004a
:102d1000000178000100780082017800000178004d
:102d200003007800820078000000be0001f7070071
:102d300070618800448a8000558a8000208a800063
:102d4000318a80000001be000400be00d4f60700f6
:102d50000000e00014003d00288a8000398a8000cd
:102d6000448a8000558a80008081800091818000a3
:102d70000001be000400be0029f707000001780032
:102d80000100780082027800000278000801be008d
:102d900005007800840078000000be009100070064
:102da000408a8800518a8800448a8000558a8000c1
:102db000208a8000318a80000001be000400be002d
:102dc000b9f607000000e00014003400288a8000f3
:102dd000398a8000448a8000558a80008081800082
:102de000918180000001be000400be0003f70700cf
:102df000000178000100780082027800000278006b
:102e00000801be0005007800840078000000be00c4
:102e10005d000700408a8800518a8800408a80004f
:102e2000518a80006011b8009ff607000000e000a2
:102e30001e003500408a8000518a80000200200078
:102e4000031c2400baf80700000178000100780094
:102e50008202780000027800608180007181800029
:102e60000001be0005007800840078000000be006c
:102e7000ebf607000001780001007800820178007d
:102e80000001780003007800820078000000be0096
:102e9000a8f6070070628800608180007181800060
:102ea000a4f60700306288001e00370060818000b1
:102eb000718180009ff6070070628800408a800060
:102ec000518a800001f0a20002002000031c2400af
:102ed00097f807000001780001007800820278006e
:102ee0000002780060818000718180000001be00d6
:102ef00005007800840078000000be00c8f60700d6
:102f0000000178000100780082017800000178005b
:102f100003007800820078000000be0085f60700fc
:102f200030628800000000004f04be000080fa00fc
:102f3000000006000400fa00008fbe006011b80017
:102f40001e0078009e00900057f607000000e00089
:102f5000030035001e0078009e009000030037003b
:102f60001e0078009e00900001f0a2008001780011
:102f70000101780003007800820078000000be00a4
:102f80000080fa00000006000800fa00008fbe0072
:102f900022079800330798002e019000be01900090
:102fa0001e0078009e0090003ff607000000e00041
:102fb000030034009e0078001e00900002003700dd
:102fc000ae0090003e009000810178000001780082
:102fd00003007800820078000000be000080fa0044
:102fe000000006000800fa00008fbe0022079800cb
:102ff000330798002e019000be0190001e0078005b
:103000009e00900026f607000000e00003003d004f
:103010009e0078001e00900002003700ae00900075
:103020003e009000810178000001780003007800e4
:10303000820078000000be000080fa000000060058
:103040000c00fa00008fbe0022079800330798009a
:1030500044079800550798004e019000de0190004b
:103060001e0078009e0090000ff607000000e000b0
:10307000040034004e019000de019000028fbe007b
:103080000a0037002e019000be0190001e0078005b
:103090009e00900002f607000000e00003003d00e3
:1030a0002e019000be019000028fbe009e007800ad
:1030b0001e00900081017800000178000300780074
:1030c000820078000000be000080fa0000000600c8
:1030d0000400fa00008fbe00b2fd2000930424001b
:1030e0001e0078009e00900032f707000001780073
:1030f00001007800820278000002780002002000bf
:103100004333240005007800840078000000be00ee
:1031100007f80700000178000100780082007800bd
:1031200081017800000178000300780082007800b7
:103130000000be000080fa00000006000400fa0053
:10314000008fbe00b2fd2000930424001e00780012
:103150009e009000f6f7070000017800010078005b
:10316000820278000002780002002000433324002d
:1031700005007800840078000000be000df707000d
:103180000001780001007800820078008101780059
:103190000001780003007800820078000000be0083
:1031a0000080fa00000006000600fa0010079800f0
:1031b000210798000040eb00004f780060000700f6
:1031c000ae009000808f500013003d000040eb00e7
:1031d000004f7800080037001e80fb008e80e8005a
:1031e00011004000104078000e0007001e407800db
:1031f0000040e800004f78001e80fb00ae00900009
:10320000808f5000f4ff3c00370007000004e0000e
:1032100001003a002a000700000000000080fa00c8
:10322000000006000200fa00004f7800a181800033
:1032300020042100010040001e487800a081800089
:103240008000e800f0072800008060000000e00037
:1032500004003d000000e90001f82f00008070002c
:103260000000e800a0818800000000000080fa0053
:10327000000006000200fa00b18180002004210055
:1032800001004000104f7800b08180008000e8000d
:10329000f0072800008060000000e00004003d000e
:1032a0000000e90001f82f00008070000000e80035
:1032b000b08188001e4078000080fa0000000600ff
:1032c0000200fa0010c0b30038f0b700e9ff0700b1
:1032d000004f78001e80fb002011880000000000d5
:1032e0000080fa00000006000000fa0038d0bf009d
:1032f0000080fa00000006000200fa00a1818000b0
:10330000b0818000008050000108200080804000d3
:10331000f0072800008060000000e00004003d008d
:103320000000e90001f82f00008070000000e800b4
:10333000000f78001e0078000080fa0000000600f0
:103340000200fa00ecff070080007800000820006f
:1033500001005000000f78001e0078000080fa0085
:10336000000006000000fa003002a9008011800071
:103370000010a1000020a1008011880030a2a90047
:103380003062a80010082000c011880033a2a900f4
:1033900033e2a90003e8a90023e8a9009011800006
:1033a0000060a1000070a1009011880003c8a9006e
:1033b00023c8a80031e2a8003342a80000000000a2
:1033c0000080fa00000006000000fa002002a900b8
:1033d000001180000010a1000020a1000011880051
:1033e00020a2a9002062a800100820004011880037
:1033f00023a2a80023e2a9000188a9002188a8002f
:10340000101180000060a1000070a1001011880060
:103410000168a9002168a80021e2a8002342a800b1
:10342000000000000080fa00000006000600fa001c
:1034300010079800210798000040eb00004f78002b
:103440000040eb00004f7800110037000000000042
:10345000101180004900de00614060000004e000bf
:10346000fbff3a009e0090000e80e8000108e80093
:103470001001780012079800114078000080fb00ce
:10348000201188001e4078000040e800004f7800be
:103490001e80fb00ae009000808f5000ebff3c00d0
:1034a000000000000080fa00000006000000fa00a2
:1034b00021e3a9002143a800001980000080a10099
:1034c0000090a100001988002043a9000019800085
:1034d0000050a0000060a0000070a000001988004b
:1034e0001019800000d0a10000e0a10000f0a100b0
:1034f000101988002343a800101980000080a10043
:103500000090a100101988001119800030f82f00d8
:10351000008060000040a000101988002203a9006c
:103520002223a90025e3a900f0c0b30024e3b700db
:1035300021198000f00f2e008080600000f0200034
:1035400001007000201988003303a9001e0ea80096
:103550001f0ea8001f2ea8001f4ea8001f6ea80057
:103560003003a8003103a8003123a8003143a8008c
:103570003163a8004119800000fe2f000080600028
:103580004019880028e3a90001a8a90021a8a800e3
:1035900021e3a800000000000080fa0000000600ff
:1035a0000000fa002023a800000000000080fa00bc
:1035b000000006000000fa00801621000080fa00da
:1035c000000006000000fa003fd0bf000080fa00b3
:1035d000000006000000fa003f70ef00000000004d
:1035e0000080fa00000006000200fa00004f780098
:1035f000430007000000e0000f003400d18180008c
:10360000200c2100010040001e487800d08180007d
:103610008000e800f0072800008060000000e00063
:1036200004003d000000e90001f82f000080700058
:103630000000e800d0818800000000000080fa004f
:10364000000006000200fa00e1818000200c210049
:1036500001004000104f7800e08180008000e80009
:10366000f0072800008060000000e00004003d003a
:103670000000e90001f82f00008070000000e80061
:10368000e08188001e4078000080fa0000000600fb
:103690000000fa00d1818000e0818000808f50001e
:1036a0000200320010c0b300010037000040eb0000
:1036b0000080fa00000006000200fa00d1818000bc
:1036c000e0818000008050000108200080804000e0
:1036d000f0072800008060000000e00004003d00ca
:1036e0000000e90001f82f00008070000000e800f1
:1036f000000f78001e0078000080fa00000006002d
:103700000200fa00ecff07008000780000082000ab
:1037100001005000000f78001e0078000080fa00c1
:10372000000006000000fa0081742000914078003b
:1037300000ccb30000c060007041b30048e7b700a0
:10374000313a800000e02f0080806000800520007a
:1037500001007000303a8800203a80000060a1002b
:103760000070a100203a8800213a800000fe2f005e
:10377000008060000000a000203a880012002000b5
:1037800080072000a10920003374200080497800c0
:103790008149780082497800103a80000001780061
:1037a0000200a000600420007105200023742000a6
:1037b0008049780081497800824978000000000043
:1037c000103a80004c00de0067406000e14f50007e
:1037d000fbff3a005927a800c03a80000000a00073
:1037e0000010a1000020a100c03a88005ac7bf0005
:1037f0000000a0000010a0000020a0005ae7b700c1
:10380000c03a80000050a1000060a0000070a0003d
:10381000c03a880059a7a80059e7a8000000000096
:10382000c03a80004e00de0061406000e14f500071
:10383000fbff3a0000000000103a80004500de0067
:1038400061406000e14f5000fbff3a0000000000c3
:103850000080fa00000006000000fa000e2eef00c3
:103860001e2eef003e2eef002e2eef004e2eef000c
:103870006e2eef00702ea80080cea90080aea900a9
:10388000808ea900816ea900714ea900000ea900ca
:10389000012ea90091eea900014ea900706ea900a9
:1038a000230007003136800000f82f000080600000
:1038b0002001b300303688008134800000fc2f00e6
:1038c000008060003000b300803488002136800022
:1038d00000f82f0080806000e004200001007000ec
:1038e000203688004134800000fc2f0000806000fa
:1038f0000000a00040348800030007000000000022
:103900000080fa00000006000000fa002174200088
:103910006204200073052000824878008348780004
:1039200042c7a800000000000080fa000000060066
:103930000000fa00217420006204200073052000ba
:10394000824878008348780042c7a9000000000040
:083950000080fa0000000600ef
:020000040000fa
:10395800121000001000000080000000001000009d
:103968001200000080000000421100002600000044
:10397800800000002c1000000800000082000000f9
:103988000000a00041000000a040000068110000f5
:103998000a000000800000003e1000000200000045
:1039a80080000000221000000a00000080000000d3
:1039b8004210000080000000800000003410000069
:1039c8000600000080000000c21000008000000017
:1039d800800000003a100000040000008000000091
:1039e80040100000020000008000000000000000fd
:020000040000fa
:0200000401f009
:04000800cfffff0027
:020000040000fa
:0200000401f009
:04000c00f9ffff00f9
:020000040000fa
:0200000401f009
:040010005bffff0093
:020000040000fa
:0200000401f009
:040014007fffff006b
:020000040000fa
:0200000401f009
:04001800cfffff0017
:020000040000fa
:0200000401f009
:04001c00deffff0004
:020000040000fa
:0200000401f009
:04002000cfffff000f
:00000001FF
