:020000040000fa
:080000000002040000000000f2
:020000040000fa
:04000800840400006c
:020000040000fa
:04000c008404000068
:020000040000fa
:040010008404000064
:020000040000fa
:040014008404000060
:020000040000fa
:04001800840400005c
:020000040000fa
:04001c008404000058
:020000040000fa
:040020008404000054
:020000040000fa
:040024008404000050
:020000040000fa
:04002800840400004c
:020000040000fa
:04002c008404000048
:020000040000fa
:040030008404000044
:020000040000fa
:04003400fa020000cc
:020000040000fa
:04003800840400003c
:020000040000fa
:04003c008404000038
:020000040000fa
:040040008404000034
:020000040000fa
:040044008404000030
:020000040000fa
:04004800840400002c
:020000040000fa
:04004c008404000028
:020000040000fa
:040050008404000024
:020000040000fa
:04005400c8030000dd
:020000040000fa
:040058009c03000005
:020000040000fa
:04005c007603000027
:020000040000fa
:040060008404000014
:020000040000fa
:040064008404000010
:020000040000fa
:04006800840400000c
:020000040000fa
:04006c008404000008
:020000040000fa
:040070008404000004
:020000040000fa
:040074008404000000
:020000040000fa
:0400780084040000fc
:020000040000fa
:04007c0084040000f8
:020000040000fa
:0400800084040000f4
:020000040000fa
:0400840084040000f0
:020000040000fa
:0400880084040000ec
:020000040000fa
:04008c0084040000e8
:020000040000fa
:0400900084040000e4
:020000040000fa
:040094001e03000047
:020000040000fa
:0400980084040000dc
:020000040000fa
:04009c0084040000d8
:020000040000fa
:0400a0003c0400001c
:020000040000fa
:0400a4001004000044
:020000040000fa
:0400a80084040000cc
:020000040000fa
:0400ac0084040000c8
:020000040000fa
:0400b00084040000c4
:020000040000fa
:0400b40084040000c0
:020000040000fa
:0400b80084040000bc
:020000040000fa
:0400bc0084040000b8
:020000040000fa
:0400c00084040000b4
:020000040000fa
:0400c40084040000b0
:020000040000fa
:0400c80084040000ac
:020000040000fa
:0400cc0084040000a8
:020000040000fa
:0400d00084040000a4
:020000040000fa
:0400d40084040000a0
:020000040000fa
:0400d800840400009c
:020000040000fa
:0400dc008404000098
:020000040000fa
:0400e0008404000094
:020000040000fa
:0400e4008404000090
:020000040000fa
:0400e800840400008c
:020000040000fa
:0400ec008404000088
:020000040000fa
:0400f0008404000084
:020000040000fa
:0400f4008404000080
:020000040000fa
:0400f800840400007c
:020000040000fa
:0400fc008404000078
:020000040000fa
:040100008404000073
:020000040000fa
:04010400840400006f
:020000040000fa
:04010800840400006b
:020000040000fa
:04010c008404000067
:020000040000fa
:040110008404000063
:020000040000fa
:04011400840400005f
:020000040000fa
:04011800840400005b
:020000040000fa
:04011c008404000057
:020000040000fa
:040120008404000053
:020000040000fa
:04012400840400004f
:020000040000fa
:04012800840400004b
:020000040000fa
:04012c008404000047
:020000040000fa
:040130008404000043
:020000040000fa
:04013400840400003f
:020000040000fa
:04013800840400003b
:020000040000fa
:04013c008404000037
:020000040000fa
:040140008404000033
:020000040000fa
:04014400840400002f
:020000040000fa
:04014800840400002b
:020000040000fa
:04014c008404000027
:020000040000fa
:040150008404000023
:020000040000fa
:04015400840400001f
:020000040000fa
:04015800840400001b
:020000040000fa
:04015c008404000017
:020000040000fa
:040160008404000013
:020000040000fa
:04016400840400000f
:020000040000fa
:04016800840400000b
:020000040000fa
:04016c008404000007
:020000040000fa
:040170008404000003
:020000040000fa
:0401740084040000ff
:020000040000fa
:0401780084040000fb
:020000040000fa
:04017c0084040000f7
:020000040000fa
:0401800084040000f3
:020000040000fa
:0401840084040000ef
:020000040000fa
:0401880084040000eb
:020000040000fa
:04018c0084040000e7
:020000040000fa
:0401900084040000e3
:020000040000fa
:0401940084040000df
:020000040000fa
:0401980084040000db
:020000040000fa
:04019c0084040000d7
:020000040000fa
:0401a00084040000d3
:020000040000fa
:0401a40084040000cf
:020000040000fa
:0401a80084040000cb
:020000040000fa
:0401ac0084040000c7
:020000040000fa
:0401b00084040000c3
:020000040000fa
:0401b40084040000bf
:020000040000fa
:0401b80084040000bb
:020000040000fa
:0401bc0084040000b7
:020000040000fa
:0401c00084040000b3
:020000040000fa
:0401c40084040000af
:020000040000fa
:0401c80084040000ab
:020000040000fa
:0401cc0084040000a7
:020000040000fa
:0401d00084040000a3
:020000040000fa
:0401d400840400009f
:020000040000fa
:0401d800840400009b
:020000040000fa
:0401dc008404000097
:020000040000fa
:0401e0008404000093
:020000040000fa
:0401e400840400008f
:020000040000fa
:0401e800840400008b
:020000040000fa
:0401ec008404000087
:020000040000fa
:0401f0008404000083
:020000040000fa
:0401f400840400007f
:020000040000fa
:0401f800840400007b
:020000040000fa
:0401fc008404000077
:020000040000fa
:040200008404000072
:020000040000fa
:04020400840400006e
:020000040000fa
:04020800840400006a
:020000040000fa
:04020c008404000066
:020000040000fa
:040210008404000062
:020000040000fa
:04021400840400005e
:020000040000fa
:04021800840400005a
:020000040000fa
:04021c008404000056
:020000040000fa
:040220008404000052
:020000040000fa
:04022400840400004e
:020000040000fa
:04022800840400004a
:020000040000fa
:04022c008404000046
:020000040000fa
:040230008404000042
:020000040000fa
:04023400840400003e
:020000040000fa
:04023800840400003a
:020000040000fa
:04023c008404000036
:020000040000fa
:040240008404000032
:020000040000fa
:04024400840400002e
:020000040000fa
:04024800840400002a
:020000040000fa
:04024c008404000026
:020000040000fa
:040250008404000022
:020000040000fa
:04025400840400001e
:020000040000fa
:04025800840400001a
:020000040000fa
:04025c008404000016
:020000040000fa
:040260008404000012
:020000040000fa
:04026400840400000e
:020000040000fa
:100400008f2f21000eff27000e0188000000000042
:10041000000020000000e000020032000001200087
:100420002002880014000700390107000000e000e6
:1004300003003a00a00d2200010020000200370056
:100440000000200001002000810f70000100320038
:100450000f000700000020000000e0000200320052
:100460000000020000000000d20c020000000000aa
:100470000040da000000fe00200020000000e00044
:1004800002003200100020009001880000000600e9
:10049000a1028800800478000000eb001f003700f4
:1004a000e284440054a0b4009905ba00e2844400f8
:1004b00054a0b4009906ba00e284440054a0b400e9
:1004c0000006eb00476fde00fd07b200ae018800ba
:1004d000636ce10003003a000ad801000000eb0061
:1004e0000e003700606ce10008003a00004deb00a0
:1004f0000a05e800020039003420ec000af0a000f0
:100500008b05e900f9ff3e00040037006168e10057
:10051000010032000086eb000b00070019c7ba008b
:100520000e04e0001905ba0003003a000a00e000da
:10053000dbff3a0000000600fe07b200ae028800b2
:100540008a047800f5ff37000cd0a300e20f4d00bd
:100550001c003b0089027800354dba000a05e8000e
:10056000020039003420ec000af0a0008b05e900fd
:100570000f003200254dba000a05e80002003900dc
:100580003420ec000af0a0008b05e90008003200de
:100590000c00e0000600320015cdba000a05e800a4
:1005a000020039003420ec000af0a0008b05e900bd
:1005b0008984e80054a0b4000b00e000e2ff3a0098
:1005c000000006009902ba00055d78008b05e9007d
:1005d000f7ff3200c82ade00055d78008b05e900d0
:1005e000f3ff32000c00e000f1ff320019ddba0029
:1005f000eeff37003600f800809fbe00829fbe00ed
:10060000849fbe00869fbe000000fa000068a9001b
:10061000b80a0700b40d07006007070000000000db
:100620000080fa004f03be004f02be004f01be0023
:100630004f00be003600f900004006003600f8000a
:10064000809fbe00829fbe00849fbe00869fbe002a
:100650000000fa000368a90092808000a380800057
:1006600010002000010020000200400083804800ac
:1006700090808800a1808800b2808000c3808000c4
:10068000100020000100200002004000838048008c
:10069000b0808800c1808800d2808000e380800024
:1006a000100020000100200002004000838048006c
:1006b000d0808800e1808800cd050700590e070032
:1006c0000004e00001003200440e070000000000ba
:1006d0000080fa004f03be004f02be004f01be0073
:1006e0004f00be003600f90000400600801f780071
:1006f0000000fa0001a8a900001880007097880087
:10070000101880008097880020188000909788003b
:1007100030188000a097880040188000b0978800ab
:1007200010c0b30045f0b700000000000080fa00e0
:100730004f007800004006003600f800809fbe00a1
:10074000829fbe00849fbe00869fbe000000fa000c
:100750000188a9009181800080818000808f5000f5
:10076000020032003e0c0700010037003470ef0039
:10077000000000000080fa004f03be004f02be00e0
:100780004f01be004f00be003600f90000400600d9
:100790003600f800809fbe00829fbe00849fbe008e
:1007a000869fbe000000fa000168a90010118000b9
:1007b0004200de0061406000e14f500001003a005d
:1007c0002242a900101180000000d10061406000a9
:1007d000e14f500005003a002222a9000300370033
:1007e00030118000004078009e0d0700101180003d
:1007f0000040780061406000e14f5000f8ff320097
:10080000000000000080fa004f03be004f02be004f
:100810004f01be004f00be003600f9000040060048
:100820003600f800809fbe00829fbe00849fbe00fd
:10083000869fbe000000fa0003e8a900c181800085
:10084000b0818000808f5000020032006c0c0700e5
:10085000010037003a70ef00000000000080fa004d
:100860004f03be004f02be004f01be004f00be004e
:100870003600f900004006003600f800809fbe00f8
:10088000829fbe00849fbe00869fbe000000fa00cb
:1008900003c8a900901180004200de0061406000a2
:1008a000e14f500001003a003242a900901180004f
:1008b0000000d10061406000e14f500005003a00a7
:1008c0003222a90003003700b011800000407800f8
:1008d000ae0d07009011800000407800614060007c
:1008e000e14f5000f8ff3200000000000080fa00e5
:1008f0004f03be004f02be004f01be004f00be00be
:100900003600f900004006000040da000000fe005a
:100910000000050014002000aa033700f4ff2f0098
:10092000a80337000001be003c0007000470a700c8
:1009300003f0a1006509b100160032000d0035007a
:100940006828e10006003500f0ff2f00f1ff2700c6
:100950000300e00013003b00010028000000050038
:1009600000004000818048008502e900fcff3a0059
:1009700008003700f88f420002003c008000eb00c6
:10098000000005008100d1000080d3008502e8004e
:10099000fcff3a000300e00002003b006000100092
:1009a000e0801800000006000001be001b000700e8
:1009b0000470a70003f0a10003f8a30013003a009d
:1009c0006509b10010003200090035006928e10016
:1009d0000200350001002800000005000000400072
:1009e000818048008502e900fcff3a000000060013
:1009f000f88f4200050035008100d1000080d3004f
:100a00008502e800fcff3a00000006008000eb00d1
:100a1000000005006011b80085033700c70ade003a
:100a2000f107b200f50fb20008003200e1cf42003a
:100a3000020032000170a00024000500810f700048
:100a4000010032000408050044000500810f700019
:100a500002003a00140005008502e9000000400091
:100a600081c04800fcff3b000170a000240005008d
:100a700007f82700078361000638e10004003a0008
:100a8000f7072000878361008703710001003a00a7
:100a900003f0a200889fbe008a9fbe008c9fbe000c
:100aa000470ade000480a100c71ade000580a1000d
:100ab000070028000785600087856100f70f200088
:100ac0000720e1009e0032000728e1009c00320070
:100ad000010678000400e000b4003200f7072000af
:100ae000878060000170a0000500e000c0003200b7
:100af000f7072000878161000370a00005065200ff
:100b00000f003a000b50e1000b0032000308e10037
:100b100002003a000200e1007e00320002045000b0
:100b200083845800040031000001fd008101fd00b4
:100b30008402fd008a05fd006044b80021003700f2
:100b40000520e10005003d000001fd008101fd00e0
:100b50008402fd008a05fd00050652007a60e1006e
:100b6000050035000170a1004722dd00848070007f
:100b70008a807000630037006044b800ef026600ae
:100b800007ff2f00070666000500e000060034009e
:100b9000f08312008714dd000511de00071bdd0065
:100ba000060171008519de007060e1000500350066
:100bb0000904780082047800030178008001eb00ca
:100bc000700656000b50e10003003a00020040009e
:100bd000838048000400370060041400e0841c0097
:100be00002005800838058000188a30006003200ec
:100bf0008100d1000080d3008984d3000884d30011
:100c00000402e800270037000178a30025003a001d
:100c10000100e000030032008186cf0069865600a3
:100c20000a0037008c0020000000e00004003a00b9
:100c300009007800880478000004eb00700252007c
:100c40008086cf000d0646000c06e9007060e100ca
:100c500006003500800078000900780088047800dc
:100c60000004eb0070065600700252000c00e00019
:100c70000c0034008c08dd00f00316000703de00d2
:100c8000868070000c00dd00074bde00060070005f
:100c90008c4cdd000743de00868474000c44dd00cc
:100ca0000c0252006120e10020003500610160006b
:100cb0000700280087816400f7ff2700878364000e
:100cc000070374000300e000060032008203730093
:100cd000040032000000e800e08048000188a30022
:100ce0000e003a00f70f20000720e1004a003d0007
:100cf0000170a1004722dd00810072008a8070002f
:100d00000000be004f06be004f05be004f04be00ef
:100d1000000006006000b800faff37008100d10033
:100d20000080d3000402e800eeff370004017800e1
:100d300089017400a10107008a807000f1ff37006b
:100d4000f7010700070278000001fd008101fd00a6
:100d5000f301070087027800850372000778a3007b
:100d6000040032000001fd008101fd0006020700c1
:100d7000e4ff3700850362000768a3000800320023
:100d80000b50e10003003200f0ff2f00f1ff2700bd
:100d9000dcff37000001fd008101fd00d9ff3700b5
:100da0000468a300d7ff3200faff3700f8ff2700de
:100db000888360000b003a000000e00009003a0060
:100dc0008303640082837300020032000200be00cd
:100dd000ccff37000b50e100ceff3a000200be000e
:100de000c8ff370014002000810064003eff370078
:100df000f8ff27008883610004003a000200e00049
:100e000002003a008c007800beff37001500200079
:100e10008301640039ff370001f82700000020003b
:100e200081007500b7ff3700889fbe008a9fbe0013
:100e30008c9fbe001b0020000202be0005866800d9
:100e400006002800060666004709de00f20fb20021
:100e5000820032000243e80080003200c729de0031
:100e6000f30fb2007d0032000343e8007b00320044
:100e7000f107b2000170a000f507b2000570a000f4
:100e8000c708dd004903de00868070004700dd00f2
:100e9000c72add004923de00868272004722dd007a
:100ea00003055100040350008583580003003100fe
:100eb00000004000818048000a05e9008c1f78008e
:100ec0008a9fbe0004005000858058000402420042
:100ed00085824a0000004000818048000005eb0048
:100ee0000004be006033b8000406be000d48e100f7
:100ef00056003100110009004dccd8000c01b8009b
:100f00000d02b8008481410060824a008283530050
:100f100003045c0084845c0060055d000a00e0005e
:100f200025003a00800578000d40e10049003100bd
:100f30008800780007007800110009004d88d8006b
:100f40000c01b8000d02b8008481410060824a00a3
:100f50006003110083835b0004045c00e0845c0098
:100f60000900e00021003a004f01be000300e0004c
:100f70002b003200e3016000070673008c817100d2
:100f800001003200640070004200de004e5edd00b1
:100f90000c007000c258de0001e0a00083010700d1
:100fa000cf017800818071004f06be004f05be0062
:100fb0004f04be00000006008c8343000d044c006b
:100fc000e0844c0060054d000000e9000a00e000ec
:100fd000d4ff32008c8343000d044c00e0844c00ad
:100fe00060054d000000e900ceff37000c03430010
:100ff0008d834b0060044c00e0844c000000e9004d
:101000000900e000d8ff32000c0343008d834b0041
:1010100060044c00e0844c000000e900d2ff37007f
:101020004200de004e5edd000c007000c258de00a3
:1010300001e0a000cf0178000300e000daff3200f9
:1010400060001000e0801800d7ff3700f0ff2f008d
:10105000aaff3700f0ff2f00b9ff37000404be00dd
:101060002f010700870678000004fd008104fd00c1
:101070002b010700078366000678a30003003200f7
:101080000960a7000800be002c0037000d78a300ff
:10109000020032000800be00280037000778a300d5
:1010a00026003a0001f0a10009f0a1000668a300a3
:1010b00003003200f1ff2700f0ff2f00baff3700d6
:1010c0000d68a300030032000800be008c80700091
:1010d000b5ff37000768a30007003a000648a300e1
:1010e00003003200f1ff2700f0ff2f00aeff3700b2
:1010f0000d48a300030032006000b8008c8070002f
:10110000a9ff37000748a3000400320001f82700b8
:10111000000020008c807000a3ff370076010700dc
:101120000004fd008104fd00020578007201070043
:101130000802be008a01780059ff37000160a00054
:10114000120220003282880097ff37000100e00081
:10115000120032000500e00010003200889fbe003f
:101160008a9fbe008c9fbe000006eb0001f8a30022
:101170000300320060001000e08018000cf0a000b6
:1011800005f8a3000300320060021200e0821a009a
:101190000cf0a2008005eb0041ff37006000b800b2
:1011a00002000500038368000700280007036300ae
:1011b000470ade000480a100c71ade000580a100f6
:1011c000f70f20000720e100420032000728e1006d
:1011d00040003200889fbe008a9fbe008c1f7800ae
:1011e000f107b200f307b2000400e000640032002f
:1011f0000170a0000500e000680032000370a0004c
:1012000085054200eb07b1000204b8000302b800f4
:101210008484440060854a00020ab8008484440043
:101220000a854a00030ab80004054500040033009b
:101230000804d0008984d2000a85d2008b05e90019
:101240006158e1003d0035000210200009016100f5
:101250000308200089816100f7072000878364006c
:1012600008867300c84cde00c853dd008784740014
:101270004855de000300e0000600320082037600dd
:10128000040032008904e80060054d000a88a300cc
:101290000c003a00f70f20000758e10044003d0021
:1012a0000a70a100c75ddd000a8575008a00730021
:1012b000090078004f0678004f05be004f04be00bd
:1012c000000006000a05d1008984d3008b05e800e0
:1012d000f0ff3700881f78000604780090000700b0
:1012e000070278000001fd008101fd008c0007006d
:1012f00087027800850372000778a300050032009a
:101300000001fd008101fd009f0007004f047800ef
:1013100000000600850372000748a30003003200a6
:10132000f0ff2f00f1ff2700f8ff3700000020003a
:1013300001f8270088807000f4ff370088017800ea
:101340004848dd00808171004848de00c850dd005b
:1013500001007000c850de00060478000b01780020
:101360001600070088807000d2ff37000500e000fb
:1013700005003200170020003a0007009dff3700eb
:1013800081037000f9ff3a00860078004f0678006c
:101390004f05be004f04be0000000500830371002e
:1013a000f9ff3200270020002e00070094ff3700cd
:1013b00001f8270086807000f4ff37000100e0008c
:1013c00026003200610111007810e10023003c008a
:1013d0006022b8007010e10004003500800278003f
:1013e000010078008000eb00700151000200e00075
:1013f0000900340070031100062add00822ade0095
:101400008603dd00878272000200de00860bdd00ad
:10141000070070008208de0084817100f4ff27005d
:1014200004826200848171000400280084826200ca
:101430006102600005f0a600000006000482710051
:10144000070032000000e800e080480000000600cd
:101450000002be006000b800efff37006000b80077
:1014600000000600889fbe000004eb006138e10028
:1014700016003a000100e00008003a00c800de0053
:101480004800dd00880020000100e00003003a0071
:10149000c800de004800dd00680444008184cf00fd
:1014a000e9845400060034008908dd00f08314004c
:1014b0008703de00878070000900dd000904440016
:1014c000610214004f04be00000006000300e000ab
:1014d00008003a00c811de004811dd008800200035
:1014e0000300e00003003a00c811de004811dd00ef
:1014f000680444008384cf00e9845400060034006b
:101500008919dd00f08314008713de0087817100e4
:101510000911dd0009044400e1021400e9ff37006d
:101520002700200001f0a70017002000470bde0075
:10153000f60fb200040032000643e8000a00320051
:101540004702b3000000060001037800f607b2006e
:101550000603700002003a000703b3000000060013
:101560008702b3000000060001037800f607b2000e
:1015700006037000020032000770a00000000600a1
:101580000760a000000006000478a30004003200f9
:101590000578a300030032000168a30001003a00af
:1015a0000200be000160a000000006008101700082
:1015b000270032008002eb0001f8a3000300320094
:1015c00060001000e080180015002000f4072000e3
:1015d0000202420020003400f7032000870360006d
:1015e00006042000000363000208200000016100df
:1015f0004700de00c909dd0000807100c708de0079
:101600000600e00008003200870371000600320087
:101610001000b0000180b0000188a3000200320079
:10162000c108de000402e800f107b200f30f200059
:101630000320e10003003d004722dd00810072002d
:101640002900370001f827000000eb0026003700d2
:101650006000b80000000600680212007f20e10070
:10166000020034006000b8001f0037006011b800ad
:101670007020e1000400350080017800010078004e
:101680008000eb00700252000400e000090034000a
:10169000f00312000719dd008419de000703dd00e6
:1016a000868171000400de00070bdd00060070007b
:1016b0008408de00f7ff270083836300870371003f
:1016c0000600280003036300070032000700e00063
:1016d00003003a00610160000281730002003200e1
:1016e0001000b0000180b0000500a6000000060058
:1016f00001f0a000000006004f0ade004709de00ee
:10170000f107b200f20fb2000b003200f207b10095
:101710000170a000c708dd00c901de0083807000f1
:101720004700dd000400a600000006006000100075
:10173000e080180000000600810f700001003a00f0
:10174000000006008182cf000500e00010003e008e
:101750008082cf00ee8242007028e1000400390050
:1017600007003e00800078000000eb000e0037000c
:10177000708312008600de000500dd000a003700dd
:10178000708352008600dd000000eb000600370089
:10179000e28252008508dd00708312000603de003d
:1017a000868070000500dd007507b0000501ea00c5
:1017b0000400a6000000060060001000e080180091
:1017c00000000600889fbe008a9fbe00841f78002c
:1017d0006c0007004f00780011003300f0ff2f006d
:1017e000838f6c0006003b00040565000a00a7001b
:1017f0000800370009f0a60010002000080037009c
:10180000820f5400838f5c00030039001000200019
:1018100001003e000000200009f0a7000000ea00df
:101820004f05be004f04be000000e00000000600af
:10183000889fbe008a9fbe00008270000402710073
:1018400004827100260032000004be000200be00c7
:101850006011b8006b092000950220000182cf00c2
:101860000a0039000541b1000082cf0007003900ad
:101870000541b1000982cf00040039000541b100e3
:101880000882cf00010039000541b1000542520035
:10189000120032000a003b00828171006101640085
:1018a0008100d1000080d3008984d3000884d30054
:1018b0008b05e8000442e800f7ff3a000700370014
:1018c0000804440089844c000000480081804800de
:1018d0008b05e9000442e900f9ff3a000300070024
:1018e0004f05be004f04be0000000600810020002e
:1018f000618055000b003d000b00200061fe2f00b1
:101900000100e1001d00340082817100610164006a
:101910008904d1000884d3000000e800faff3a00ef
:10192000710020006100640003007000020060008c
:101930000900320061044400e0844c000988a500dd
:10194000050032008b05e8006808e10002003a005b
:101950008904d1000884d300f20f20000258e1006e
:1019600005003d00c75ddd00f907b2008980750004
:1019700008007800000006000bf827008b007800b4
:10198000000005000004be0024fc07000003be00a8
:101990000405be000200be0020fc0700844f750055
:0419a000000006003d
:020000040000fa
:1019a4000c00fa00e1080700c1090700a0030700c2
:1019b400be02070000002000a1472400ab0307007b
:1019c4009b0507008a0807003408070084cea90095
:1019d40084aea900848ea900856ea900754ea90065
:1019e400040ea900052ea90095eea900054ea90034
:1019f400746ea900907380000000d1006140600003
:101a0400e14f500004003a001000200010808800cc
:101a14001630ef001830ef00bb080700e14f50000c
:101a2400f4ff3a00bc080700b3080700000f780071
:101a34001e007800100078008000eb00f4fb070023
:101a44003233230033052400d5fd0700000178005c
:101a54000100780082027800000278000200200071
:101a64000358240005007800840078000000be00bc
:101a7400ecfc070010079800210798001e01900055
:101a8400ae0190000000200081202400e5fc070046
:101a940000017800010078008202780000027800da
:101aa40002002000030a2400050078008400780066
:101ab4000000be00edfb0700800178000101780002
:101ac40003007800820078000000be00d0968800f1
:101ad400e19688001e80e800100078008000eb008a
:101ae400cbfb07003233230033052400acfd070091
:101af400000178000100780082027800000278007a
:101b040002002000035824000500780084007800b7
:101b14000000be00c3fc07001007980021079800ce
:101b24001e019000ae0190000000200081202400de
:101b3400bcfc0700000178000100780082027800f4
:101b44000002780002002000030a24000500780047
:101b5400840078000000be00c4fb07008001780008
:101b64000101780003007800820078000000be00c4
:101b7400f096880001978800410020001e804000f4
:101b8400100078008000eb00a1fb07003233230033
:101b94003305240082fd070000017800010078006d
:101ba400820278000002780002002000035824001a
:101bb40005007800840078000000be0099fc07004e
:101bc40010079800210798001e019000ae019000b4
:101bd400000020008120240092fc0700000178000e
:101be40001007800820278000002780002002000e0
:101bf400030a240005007800840078000000be0079
:101c04009afb070080017800010178000300780046
:101c1400820078000000be00109788002197880099
:101c2400610020001e804000100078008000eb005e
:101c340077fb0700323323003305240058fd0700e7
:101c44000001780001007800820278000002780028
:101c54000200200003582400050078008400780066
:101c64000000be006ffc07001007980021079800d1
:101c74001e019000ae01900000002000812024008d
:101c840068fc0700000178000100780082027800f7
:101c94000002780002002000030a240005007800f6
:101ca400840078000000be0070fb0700800178000b
:101cb4000101780003007800820078000000be0073
:101cc4003097880041978800810020001e804000e2
:101cd400100078008000eb004dfb07003233230036
:101ce400330524002efd0700000178000100780070
:101cf40082027800000278000200200003582400c9
:101d040005007800840078000000be0045fc070050
:101d140010079800210798001e019000ae01900062
:101d240000002000812024003efc07000001780010
:101d3400010078008202780000027800020020008e
:101d4400030a240005007800840078000000be0027
:101d540046fb070080017800010178000300780049
:101d6400820078000000be005097880061978800c8
:101d7400d0968000e19680000afb070000407800be
:101d8400204f9800f09680000197800005fb070023
:101d940000407800104f9800109780002197800031
:101da40000fb070000407800004f98003097800047
:101db40041978000fbfa07000040780070479800c4
:101dc4005097800061978000f6fa07000040780081
:101dd4006047980066004700000178005100200029
:101de400000320008803070002ff37000000fa0008
:101df400b2808000c380800000a62e000100200075
:101e0400800f5100818f5900a3003e001080800094
:101e14000000e000a000320000d0bf000080fb0002
:101e24006100b9001201200003002000820f50005d
:101e3400838f580090003e00000601001100370017
:101e44001a003700230037002d003700390037000f
:101e5400430037004f003700590037005a0037005d
:101e6400660037006e0037007a00370082003700c2
:101e740081003700800037007f0037003a003700c8
:101e8400210037001230ef001430ef000041eb0066
:101e94006000b8008204070012c0b3006000b800fc
:101ea4007f04070010c0b30000f0b70092808000e8
:101eb400a3808000803e200001002000800f51009c
:101ec400818f59006e00360020c0b30000f0b700c7
:101ed4006b0037000041eb0000002000011c2400cf
:101ee4006f04070012c0b30000002000011c24008e
:101ef4006b04070030c0b30000f0b7006500370082
:101f04006f000700630037000041eb000000200071
:101f1400011324006204070012c0b3000000200073
:101f2400011924005e04070050c0b30000f0b7009c
:101f3400580037000041eb0000002000010c240091
:101f44005704070012c0b30000002000011a240047
:101f54005304070050c0b30000f0b7004d00370031
:101f6400570007004b0037000041eb000000200041
:101f7400011924004a04070012c0b3000000200025
:101f8400011324004604070050c0b30000f0b7005a
:101f9400400037000041eb0000002000011a24003b
:101fa4003f04070012c0b30000002000010c24000d
:101fb4003b04070070c0b30000f0b70035003700e1
:101fc4003f000700330037000041eb000000200011
:101fd40001152c003204070012c0b30000002000d9
:101fe400011524002e04070090c0b30000f0b700d0
:101ff4001230ef001430ef0026003700928080008a
:10200400a38080008025200001002000800f510063
:10201400818f59001c003600290007001a00370080
:102024000041eb0000002000011524001c040700ff
:1020340012c0b3000000200001152c001804070092
:10204400b0c0b30000f0b7001230ef001430ef005e
:102054001000370092808000a3808000c01220000e
:1020640001002000800f5100818f590008003600c4
:1020740013000700060037000070ef00050037006a
:10208400000000000b0037000000000009003700ca
:1020940000000000070037000230ef000041eb00b1
:1020a4006000b800fe03070012c0b3006000b8006f
:1020b400fb030700000000000080fa000000060097
:1020c4000600fa000040eb00004f780060808000ba
:1020d4000000e0000f003200508080000000e000ab
:1020e4000c003a00408080000000e00009003a0043
:1020f400308080000000e00006003a00208080006c
:102104000000e00003003a0050c0b300004f780024
:102114004d003700608080000000e0000f003a00ae
:10212400508080000000e0000c003a0040808000f5
:102134000000e00009003a00308080000000e00068
:1021440006003a00208080000000e0000300320016
:1021540010c0b300004f78003b003700508080006f
:102164000000e00009003200408080000000e00030
:1021740006003a00308080000000e00003003a00ce
:1021840040c0b300004f78002f003700508080001b
:102194000000e00009003a00408080000000e000f8
:1021a40006003a00308080000000e00003003200a6
:1021b40020c0b300004f7800230037004080800027
:1021c4000000e00006003a00508080000000e000bb
:1021d40012003200308080000000e0000f00320066
:1021e4003497800045978000f09680000197800026
:1021f4000001be000400be00c7f907000000e000b3
:102204000300340060c0b300004f78000e003700b4
:1022140030c0b300004f78000b00370050808000be
:102224000000e00008003a00408080000000e00068
:1022340005003a00308080000000e00002003a000f
:102244000040eb00004f78001e4078000004e000de
:1022540003003a0020c0b3000ef0b700230037009b
:102264001e407800e54f500003003a0010c1b3004f
:102274000ef0b7001d0037001e407800e14f5000fb
:1022840003003a0000c1b3000ef0b7001700370096
:102294001e407800e44f500003003a0040c0b300f1
:1022a4000ef0b700110037001e407800e24f5000d6
:1022b40003003a0060c0b3000ef0b7000b00370013
:1022c4001e407800e34f500003003a0080c0b30082
:1022d4000ef0b700050037001e407800e64f5000ae
:1022e40002003a00a0c0b3000ef0b7000ed0bf0049
:1022f4000080fb0001002100914078008180fb00f8
:102304008100e900810f5000200032000ed0bf0090
:1023140000f0b70000d0bf0010479800d0808000c4
:10232400e18080004808de000100200000407800c1
:1023340020479800d0808000e18080004008de00c3
:10234400010020000040780030479800d0808000d1
:10235400e18080004809dd004800de0000007100d3
:10236400c808de000040780040479800d080800014
:1023740000407800504798000e00e8000001780003
:1023840051002000000520001f020700000000008b
:102394000080fa00000006000000fa00d0968000d9
:1023a400e196800002002000031e240058f9070073
:1023b4000000e00004003d0084cea80010002000ce
:1023c400208088000200370084cea9000430ef008a
:1023d400f09680000197800002002000c3212400b1
:1023e4004bf907000000e00004003d0084aea800a3
:1023f40010002000308088000200370084aea9005d
:102404000630ef0010978000219780000200200022
:10241400031f24003ef907000000e00004003d0013
:10242400848ea8001000200040808800020037003d
:10243400848ea9000830ef00309780004197800017
:1024440002002000c321240031f907000000e0004d
:1024540004003d00856ea800100020005080880014
:1024640002003700856ea9000a30ef005097800003
:102474006197800002002000031e240024f9070055
:102484000000e00004003d00754ea800100020008c
:102494006080880002003700754ea9000c30ef0000
:1024a400000000000080fa00000006000000fa00ae
:1024b40005e1a900200880000040a1000050a00010
:1024c400200888000421a900f0492200100888008f
:1024d4000068a9002068a80005e1a8000000200009
:1024e400812c24001d000700000000000080fa0079
:1024f400000006000000fa0013e1a90011e1a900a0
:102504001061a8001021a900800880000040a100eb
:102514000050a100800888000a21ef000621ef0086
:102524003039200070088800007028006008880096
:10253400204280000000a0000010a1000020a100a3
:10254400204288000108a9002108a80011e1a80080
:10255400000000000080fa00000006000400fa00f9
:10256400008fbe00200880000040a1000050a100a0
:10257400200888001e0178009e019000001c2e0097
:1025840041c6240027fa0700000178000100780002
:10259400820278000002780002f02f00f377240012
:1025a40005007800840078000000be00daf8070017
:1025b4000000e0008d003400200880000040a000ee
:1025c4000050a100200888001e0178009e019000a0
:1025d400001c2e0041c6240012fa070000017800f6
:1025e40001007800820278000002780002002000d6
:1025f4000310240005007800840078000000be0069
:1026040008fa0700000178000100780082027800cf
:102614000002780002f02f00f37724000500780010
:10262400840078000000be00bbf807000000e00052
:1026340055003400200880000040a1000050a00094
:10264400200888001e0178009e019000001c2e00c6
:1026540041c62400f3f90700000178000100780066
:10266400820278000002780002002000032824007f
:1026740005007800840078000000be00e9f9070036
:1026840000017800010078008202780000027800de
:1026940002f02f00f377240005007800840078000e
:1026a4000000be009cf807000000e0001d0034009c
:1026b400200880000040a0000050a00020088800ee
:1026c4001e0178009e019000001c2e0041c62400cb
:1026d400d4f9070000017800010078008202780034
:1026e400000278000200200003382400050078006e
:1026f400840078000000be00caf9070000017800d9
:10270400010078008201780000017800030078005d
:10271400820078000000be0081f8070010088800dd
:10272400400037001e0178009e019000001c2e001e
:1027340041c62400bbf907000001780001007800bd
:10274400820278000002780002002000032824009e
:1027540005007800840078000000be00b1f907008d
:1027640000017800010078008201780000017800ff
:1027740003007800820078000000be0068f80700bb
:1027840010088800270037001e0178009e01900081
:10279400001c2e0041c62400a2f9070000017800a5
:1027a4000100780082027800000278000200200014
:1027b4000310240005007800840078000000be00a7
:1027c40098f9070000017800010078008201780080
:1027d4000001780003007800820078000000be0049
:1027e4004ff80700100888000e0037001e0178001b
:1027f4009e019000001c2e0041c6240089f90700a8
:10280400000178000100780082017800000178005e
:1028140003007800820078000000be0040f8070042
:1028240010088800000000000080fa000000060084
:102834000000fa001fe1a900f00880000040a10098
:102844000050a000f00888001e21a900f0492200d1
:10285400d00888000368a9002368a8001fe1a80025
:10286400000000000080fa00000006000400fa00e6
:10287400008fbe00f00880000040a1000050a100bd
:10288400f00888001e0178009e019000001c2e00b4
:1028940041c6240063f907000001780001007800b4
:1028a400820278000002780002f02f00f3772400ff
:1028b40005007800840078000000be0016f80700c8
:1028c4000000e0008d003400f00880000040a0000b
:1028d4000050a100f00888001e0178009e019000bd
:1028e400001c2e0041c624004ef9070000017800a8
:1028f40001007800820278000002780002002000c3
:102904000310240005007800840078000000be0055
:1029140044f9070000017800010078008202780081
:102924000002780002f02f00f377240005007800fd
:10293400840078000000be00f7f707000000e00004
:1029440055003400f00880000040a1000050a000b1
:10295400f00888001e0178009e019000001c2e00e3
:1029640041c624002ff90700000178000100780017
:10297400820278000002780002002000032824006c
:1029840005007800840078000000be0025f90700e7
:1029940000017800010078008202780000027800cb
:1029a40002f02f00f37724000500780084007800fb
:1029b4000000be00d8f707000000e0001d0034004e
:1029c400f00880000040a0000050a000f00888003b
:1029d4001e0178009e019000001c2e0041c62400b8
:1029e40010f90700000178000100780082027800e5
:1029f400000278000200200003382400050078005b
:102a0400840078000000be0006f907000001780089
:102a1400010078008201780000017800030078004a
:102a2400820078000000be00bdf70700d0088800cf
:102a3400400037001e0178009e019000001c2e000b
:102a440041c62400f7f8070000017800010078006f
:102a5400820278000002780002002000032824008b
:102a640005007800840078000000be00edf807003f
:102a740000017800010078008201780000017800ec
:102a840003007800820078000000be00a4f707006d
:102a9400d0088800270037001e0178009e019000ae
:102aa400001c2e0041c62400def807000001780057
:102ab4000100780082027800000278000200200001
:102ac4000310240005007800840078000000be0094
:102ad400d4f8070000017800010078008201780032
:102ae4000001780003007800820078000000be0036
:102af4008bf70700d00888000e0037001e0178000d
:102b04009e019000001c2e0041c62400c5f8070059
:102b1400000178000100780082017800000178004b
:102b240003007800820078000000be007cf70700f4
:102b3400d0088800000000000080fa0000000600b1
:102b44000a00fa002007980031079800420798000d
:102b5400e0cfb300004f78002e0090004880de00e4
:102b6400804078001e40780000c06800004f780064
:102b74002e009000804078001e40780000c068005d
:102b8400004f78003e0090004880de0080407800ce
:102b94001e40780000c06800004f78003e0090009e
:102ba400804078001e40780000c06800004f780024
:102bb4000000eb00100798000c0037001e00900086
:102bc400e800470011004000104078009e40780063
:102bd40000c06800004f78000e80e8008e80e80096
:102be4001108e80090007800110798009e009000fa
:102bf4003e009000808f5000f0ff35001e407800aa
:102c04000080fa00000006000e00fa00889fbe0053
:102c14008a1f7800400798005107980062079800bf
:102c24000f0478000f007800800478000e80e8001c
:102c3400ea0047006200200011084100900078007b
:102c4400110798001e0090008000e90021079800f9
:102c54000000e8000000d100800040000f00780070
:102c64008187470060004000300798003e009000d4
:102c7400e1cfb300014878004e0090004880de00a8
:102c8400804078003e009000114098004e00900073
:102c9400804078003e009000214098005e00900043
:102ca4004880de00804078003e009000314098006b
:102cb4005e009000804078003e0090004140980003
:102cc4000000eb00000f78000a0037001e007800b7
:102cd400ec00470011004000510020001e8140001c
:102ce400904078003e0090000200400001487800c7
:102cf4001e0fe8005e0090009e007800808f500058
:102d0400f2ff35000e80e8001005e9006e01900026
:102d1400de0090004e00900089ff0700804078009c
:102d24003e0090000a004000014878003e009000f8
:102d34009e0090008b0307008907780000000000c4
:102d4400880778004f0578004f04be000080fa0021
:102d5400000006000200fa00004f78003081800075
:102d6400e30f500023003200e30f500007003c0043
:102d7400e10f500012003200e10f500016003c0039
:102d84000000e0000800320049003700e50f500061
:102d940025003200e50f50001c003500e60f5000fe
:102da40030003200420037001e407800e24f4000fd
:102db40041003a0010002000308188003e003700b6
:102dc4001e80fb004800dd00f08088002000200009
:102dd400308188003b0037001e80fb00f1808000ba
:102de40000807000f080880030002000308188006e
:102df400340037001e80fb004800dd00008188009d
:102e040040002000308188002e0037001e80fb0027
:102e14000181800000807000008188005000200043
:102e24003081880027003700118180008014210040
:102e3400010040001e487800108180000000e80076
:102e4400108188000181800010818000808f5000f3
:102e54001b003c0060002000308188002230ef001d
:102e6400170037001e417800410221008248780093
:102e740001818000f08080008214210030ff07006f
:102e840025f0b700510221009140780024d0bf0002
:102e940080cf500004003a0001818000f08080005f
:102ea400821421000a0007002630ef0005003700d5
:102eb4002630ef0003003700000000000100370057
:102ec40000000000000000000080fa00000006007e
:102ed4000800fa00100798002107980032079800ac
:102ee4009e00900000022000808f50004d003a00a8
:102ef4003e009000104078000080fb00000f780036
:102f04001e0078000000e0000c003a006600470054
:102f14001000e80010407800614060000080fb0071
:102f2400610060004300dd00a17380000130a10056
:102f340001007000a0738800390037001e0078007b
:102f4400e10f50000c003a00660047001000e80052
:102f540010407800614060000080fb006100600068
:102f64004a00dd002170800001a0a1000100700072
:102f7400207088002a0037001e007800e20f5000fd
:102f84000b003a00660047001000e800104078008b
:102f9400614060000080fb004f00dd00a1748000f0
:102fa40001f0a10001007000a07488001c0037002b
:102fb4001e007800e30f50000c003a006600470042
:102fc4001000e80010407800614060000080fb00c1
:102fd400610060004900dd00217080000190a100c3
:102fe40001007000207088000d0037001e0078007a
:102ff400e40f50000a003a00660047001000e800a1
:1030040010407800614060000080fb0061006000b7
:10301400217080000100a100010070002070880070
:1030240000000000000000000080fa00000006001c
:103034000000fa0002ccbf000000a1000010a100b3
:103044000020a10002ecb700009620002060880058
:103054001061800000a0a00000b0a00010618800f2
:1030640023cca80023eca8003000200020618800b5
:103074001062800000a0a00000b0a00010628800d0
:1030840043cca80043eca800300020002062880054
:1030940001eca800000000000080fa000000060017
:1030a4000600fa00008fbe00424798004e40900090
:1030b400e14f500004003a001e0178009e01900088
:1030c40052968800639688004e4090000004e00009
:1030d40004003a001e0178009e0190009296880038
:1030e400a3968800000000000080fa00000006009b
:1030f4000000fa00889fbe00b4968000c596800048
:1031040090968000a19680000001be000400be00dd
:10311400fff507000000e00014003d0098968000d1
:10312400a9968000b4968000c596800060818000d6
:10313400718180000001be000400be0054f6070047
:103144000001780001007800820278000002780013
:103154000801be0005007800840078000000be006d
:103164000d010700b0968800c1968800b4968000cf
:10317400c596800090968000a19680000001be0054
:103184000400be00e4f507000000e0001400340071
:1031940098968000a9968000b4968000c596800019
:1031a40060818000718180000001be000400be00c7
:1031b4002ef60700000178000100780082027800f2
:1031c400000278000801be00050078008400780041
:1031d4000000be00d9000700b0968800c1968800a0
:1031e400b0968000c19680006011b800caf507004f
:1031f4000000e0001e003500b0968000c1968000fb
:1032040002002000031c2400e5f7070000017800f9
:10321400010078008202780000027800408180007a
:10322400518180000001be00050078008400780010
:103234000000be0016f607000001780001007800c7
:103244008201780000017800030078008200780091
:103254000000be00d3f50700306188004081800083
:1032640051818000cff50700706188001e0037008f
:103274004081800051818000caf5070030618800d8
:10328400b0968000c196800001f0a20002002000e8
:10329400031c2400c2f70700000178000100780035
:1032a4008202780000027800408180005181800011
:1032b4000001be0005007800840078000000be0014
:1032c400f3f507000001780001007800820178001e
:1032d4000001780003007800820078000000be003e
:1032e400b0f50700706188007496800085968000b0
:1032f40050968000619680000001be000400be006c
:1033040083f507000000e00014003d00589680009b
:1033140069968000749680008596800060818000a4
:10332400718180000001be000400be00d8f50700d2
:103334000001780001007800820278000002780021
:103344000801be0005007800840078000000be007b
:10335400910007007096880081968800749680001a
:103364008596800050968000619680000001be0022
:103374000400be0068f507000000e00014003400fb
:103384005896800069968000749680008596800027
:1033940060818000718180000001be000400be00d5
:1033a400b2f507000001780001007800820278007d
:1033b400000278000801be0005007800840078004f
:1033c4000000be005d0007007096880081968800aa
:1033d40070968000819680006011b8004ef5070059
:1033e4000000e0001e003500709680008196800089
:1033f40002002000031c240069f707000001780084
:103404000100780082027800000278004081800088
:10341400518180000001be0005007800840078001e
:103424000000be009af50700000178000100780052
:10343400820178000001780003007800820078009f
:103444000000be0057f507007062880040818000cc
:103454005181800053f50700306288001e00370058
:1034640040818000518180004ef507007062880021
:10347400709680008196800001f0a2000200200076
:10348400031c240046f707000001780001007800bf
:10349400820278000002780040818000518180001f
:1034a4000001be0005007800840078000000be0022
:1034b40077f50700000178000100780082017800a8
:1034c4000001780003007800820078000000be004c
:1034d40034f5070030628800000000004f04be008d
:1034e4000080fa00000006000400fa00008fbe000d
:1034f4006011b8001e0078009e00900006f50700d9
:103504000000e000030035001e0078009e009000db
:10351400030037001e0078009e00900001f0a20016
:1035240080017800010178000300780082007800af
:103534000000be000080fa00000006000800fa0047
:10354400008fbe0022079800330798002e019000d8
:10355400be0190001e0078009e009000eef407006b
:103564000000e000030034009e0078001e0090007c
:1035740002003700ae0090003e0090008101780008
:103584000001780003007800820078000000be008b
:103594000080fa00000006000800fa00008fbe0058
:1035a40022079800330798002e019000be01900076
:1035b4001e0078009e009000d5f407000000e00093
:1035c40003003d009e0078001e00900002003700ba
:1035d400ae0090003e009000810178000001780068
:1035e40003007800820078000000be000080fa002a
:1035f400000006000c00fa00008fbe0022079800ad
:103604003307980044079800550798004e0190002e
:10361400de0190001e0078009e009000bef40700ba
:103624000000e000040034004e019000de01900030
:10363400028fbe000a0037002e019000be019000e8
:103644001e0078009e009000b1f407000000e00026
:1036540003003d002e019000be019000028fbe00c9
:103664009e0078001e00900081017800000178001f
:1036740003007800820078000000be000080fa0099
:10368400000006000400fa00008fbe00b2fd200016
:10369400930424001e0078009e009000e1f50700ca
:1036a40000017800010078008202780000027800ae
:1036b40002002000433324000500780084007800d1
:1036c4000000be00b6f60700000178000100780093
:1036d40082007800810178000001780003007800fe
:1036e400820078000000be000080fa00000006009e
:1036f4000400fa00008fbe00b2fd200093042400f1
:103704001e0078009e009000a5f6070000017800d6
:103714000100780082027800000278000200200094
:103724004333240005007800840078000000be00c4
:10373400bcf50700000178000100780082007800e1
:10374400810178000001780003007800820078008d
:103754000000be000080fa00000006000600fa0027
:1037640010079800210798000040eb00004f7800f4
:1037740059000700ae009000808f500013003d00f8
:103784000040eb00004f7800080037001e80fb006b
:103794008e80e80011004000104078000e00070001
:1037a4001e4078000040e800004f78001e80fb00b7
:1037b400ae009000808f5000f4ff3c003100070001
:1037c4000004e00001003a002400070000000000ab
:1037d4000080fa00000006000200fa00004f7800a2
:1037e4008181800080042100010040001e4878008f
:1037f400808180000000e800808188008181800051
:1038040000082000808f500001003a003030ef00a3
:10381400000000000080fa00000006000200fa0028
:10382400918180008004210001004000104f780045
:10383400908180000000e8009081880091818000e0
:1038440000082000808f500001003a003230ef0061
:103854001e4078000080fa00000006000200fa0012
:1038640010c0b30034f0b700ecff0700004f78003d
:103874001e80fb0020118800000000000080fa0078
:10388400000006000000fa0034d0bf000080fa00f7
:10389400000006000200fa000000eb00000f7800b0
:1038a4008181800090818000808f500003003d0062
:1038b40000082000000f7800040037008181800098
:1038c4009081800000805000000f78001e00780076
:1038d4000080fa00000006000200fa00edff070075
:1038e400800078000008200001005000000f7800dc
:1038f4001e0078000080fa00000006000600fa00ae
:1039040010079800210798000040eb00004f780052
:1039140059000700ae009000808f500013003d0056
:103924000040eb00004f7800080037001e80fb00c9
:103934008e80e80011004000104078000e0007005f
:103944001e4078000040e800004f78001e80fb0015
:10395400ae009000808f5000f4ff3c003ad0bf00ce
:103964000004e00001003a00240007000000000009
:103974000080fa00000006000200fa00004f780000
:10398400b1818000801c2100010040001e487800a5
:10399400b08180000000e800b0818800b18180001f
:1039a40000082000808f500001003a003630ef00fc
:1039b400000000000080fa00000006000200fa0087
:1039c400c1818000801c210001004000104f78005c
:1039d400c08180000000e800c0818800c1818000af
:1039e40000082000808f500001003a003830ef00ba
:1039f4001e4078000080fa00000006000200fa0071
:103a040010c0b3003af0b700ecff0700004f780095
:103a14001e80fb00a0118800000000000080fa0056
:103a2400000006000000fa003ad0bf000080fa004f
:103a3400000006000200fa000000eb00000f78000e
:103a4400b1818000c0818000808f500003003d0060
:103a540000082000000f780004003700b1818000c6
:103a6400c081800000805000000f78001e007800a4
:103a74000080fa00000006000200fa00edff0700d3
:103a8400800078000008200001005000000f78003a
:103a94001e0078000080fa00000006000000fa0012
:103aa4003002a900801180000010a1000020a100b4
:103ab4008011880030a2a9003062a80010082000fc
:103ac400c011880033a2a90033e2a90003e8a900c9
:103ad40023e8a900901180000060a1000070a100fb
:103ae4009011880003c8a90023c8a80031e2a800e7
:103af4003342a800000000000080fa000000060025
:103b04000000fa002002a900001180000010a100aa
:103b14000020a1000011880020a2a9002062a800b2
:103b2400100820004011880023a2a80023e2a90065
:103b34000188a9002188a800101180000060a1005c
:103b44000070a100101188000168a9002168a80074
:103b540021e2a8002342a800000000000080fa002f
:103b6400000006000600fa001007980021079800dc
:103b74000040eb00004f78000040eb00004f78005d
:103b84001400370000000000901180004900de009e
:103b9400614060000004e000fbff3a001e80fb006f
:103ba4008e80e80011004000104078000080fb0087
:103bb400a01188001e80fb008e80e80011004000e8
:103bc40090407800114798001e4078000040e800bb
:103bd400004f78001e80fb00ae009000808f5000e4
:103be400e8ff3c00000000000080fa00000006002e
:103bf4000000fa0021e3a9002143a8000019800075
:103c04000080a1000090a100001988002043a900b1
:103c1400001980000050a0000060a0000070a00007
:103c2400001988001019800000d0a10000e0a10054
:103c340000f0a100101988002343a8001019800087
:103c44000080a1000090a1001019880011198000c3
:103c540030f82f00008060000040a0001019880098
:103c64002203a9002223a90025e3a900f0c0b30080
:103c740024e3b70021198000f00f2e00808060003b
:103c840000f0200001007000201988003303a9000f
:103c94001e0ea8001f0ea8001f2ea8001f4ea8006d
:103ca4001f6ea8003003a8003103a8003123a80028
:103cb4003143a8003163a8004119800000fe2f00a1
:103cc400008060004019880028e3a90001a8a90029
:103cd40021a8a80021e3a800000000000080fa0049
:103ce400000006000000fa002023a80000000000e5
:103cf4000080fa00000006000000fa00e02e210017
:103d04000080fa00000006000000fa0045d0bf0061
:103d14000080fa00000006000000fa004570ef0081
:103d2400000000000080fa00000006000000fa0015
:103d3400817420009140780000ccb30000c0600082
:103d44007041b30048e7b700313a800000e02f002b
:103d5400808060008005200001007000303a8800f7
:103d6400203a80000060a1000070a100203a880081
:103d7400213a800000fe2f00008060000000a000b7
:103d8400203a88001200200080072000a1092000aa
:103d94003374200080497800814978008249780092
:103da400103a8000000178000200a00060042000a6
:103db400710520002374200080497800814978002f
:103dc4008249780000000000103a80004c00de00b8
:103dd40067406000e14f5000fbff3a005927a800fc
:103de400c03a80000000a0000010a1000020a10043
:103df400c03a88005ac7bf000000a0000010a0000d
:103e04000020a0005ae7b700c03a80000050a1008b
:103e14000060a0000070a000c03a880059a7a80064
:103e240059e7a80000000000c03a80004e00de0000
:103e340061406000e14f5000fbff3a0000000000c9
:103e4400103a80004500de0061406000e14f500000
:103e5400fbff3a00000000000080fa0000000600aa
:103e64000200fa00004f78003e0007000000e00066
:103e74000c003400e1818000800c2100010040002e
:103e84001e487800e08180000000e800e08188009e
:103e9400e181800000082000808f500001003a007a
:103ea4003c30ef00000000000080fa000000060033
:103eb4000200fa00f1818000800c21000100400022
:103ec400104f7800f08180000000e800f081880045
:103ed4001e4078009ffb0700f1818000000820004d
:103ee400808f500001003a003e30ef001e40780001
:103ef4000080fa00000006000000fa00e181800062
:103f0400f0818000808f50000200320010c0b300a6
:103f1400010037000040eb000080fa0000000600ba
:103f24000200fa000000eb00000f7800e18180003d
:103f3400f0818000808f500003003d0000082000c5
:103f4400000f780004003700e1818000f0818000d8
:103f540000805000000f78001e0078000080fa00f6
:103f6400000006000200fa00edff07008000780060
:103f74000008200001005000000f78001e007800a7
:103f84000080fa00000006000200fa00004f7800ea
:103f94003e0007000000e0000c00340001828000b5
:103fa40080242100010040001e4878000082800027
:103fb4000000e800008288000182800000082000e0
:103fc400808f500001003a004030ef0000000000f4
:103fd4000080fa00000006000200fa00118280004e
:103fe4008024210001004000104f780010828000de
:103ff4000000e800108288001e40780055fb07008e
:104004001182800000082000808f500001003a00d7
:104014004230ef001e4078000080fa0000000600e5
:104024000000fa000182800010828000808f50001e
:104034000200320010c0b300010037000040eb0062
:104044000080fa00000006000200fa000000eb0005
:10405400000f78000182800010828000808f500061
:104064000300310000082000000f7800040037002e
:10407400018280001082800000805000000f7800d0
:104084001e0078000080fa00000006000200fa001a
:10409400edff0700800078000008200001005000b8
:1040a400000f78001e0078000080fa00000006006f
:1040b4000000fa000e2eef001e2eef003e2eef0041
:1040c4002e2eef004e2eef006e2eef00702ea80065
:1040d40080cea90080aea900808ea900816ea900bf
:1040e400714ea900000ea900012ea90091eea900ad
:1040f400014ea900706ea90023000700313680002c
:1041040000f82f00008060002001b30030368800e2
:104114008134800000fc2f00008060003000b30078
:10412400803488002136800000f82f0080806000f1
:10413400e004200001007000203688004134800033
:1041440000fc2f00008060000000a00040348800c4
:1041540003000700000000000080fa0000000600d1
:104164000000fa002174200062042000730520007e
:10417400824878008348780042c7a8000000000005
:104184000080fa00000006000000fa0021742000fc
:104194006204200073052000824878008348780078
:1041a40042c7a900000000000080fa0000000600d9
:020000040000fa
:1041b4000010000012000000800000001210000037
:1041c4000c00000080000000c8120000260000005f
:1041d4008000000028100000080000008200000099
:1041e4000000a00041000000a0400000ee1200000a
:1041f4000a000000800000004410000002000000db
:1042040080000000481000008000000080000000d2
:10421400301000000600000080000000c8100000fc
:1042240080000000800000003c100000040000003a
:1042340080000000481100008000000080000000a1
:104244001e1000000a00000080000000c8110000d9
:10425400800000008000000036100000060000000e
:104264008000000048120000800000008000000070
:104274004010000004000000800000004610000010
:0c428400020000008000000000000000ac
:020000040000fa
:0200000401f009
:04000800cfffff0027
:020000040000fa
:0200000401f009
:04000c00f9ffff00f9
:020000040000fa
:0200000401f009
:040010005bffff0093
:020000040000fa
:0200000401f009
:040014007fffff006b
:020000040000fa
:0200000401f009
:04001800cfffff0017
:020000040000fa
:0200000401f009
:04001c00deffff0004
:020000040000fa
:0200000401f009
:04002000cfffff000f
:00000001FF
